{
  "address": "0x628AE20554C9BbaaCd47C40205AC878EC62f1b84",
  "abi": [
    {
      "inputs": [
        {
          "internalType": "uint256",
          "name": "previousRoundId",
          "type": "uint256"
        },
        {
          "internalType": "int256",
          "name": "previousAnswer",
          "type": "int256"
        },
        {
          "internalType": "uint256",
          "name": "currentRoundId",
          "type": "uint256"
        },
        {
          "internalType": "int256",
          "name": "currentAnswer",
          "type": "int256"
        }
      ],
      "name": "validate",
      "outputs": [
        {
          "internalType": "bool",
          "name": "",
          "type": "bool"
        }
      ],
      "stateMutability": "nonpayable",
      "type": "function"
    }
  ],
  "transactionHash": "0x27d3e881c6bde3d48d7a6270188f2383e4b48d7aea2fe0f0ce6d0d49f6481b5d",
  "args": [],
  "numDeployments": 1,
  "solcInputHash": "dad340f4fcb6e4311ea159c3c3c357ed",
  "bytecode": "0x6080604052348015600f57600080fd5b5060ad8061001e6000396000f3fe6080604052348015600f57600080fd5b506004361060285760003560e01c8063beed9b5114602d575b600080fd5b605960048036036080811015604157600080fd5b5080359060208101359060408101359060600135606d565b604080519115158252519081900360200190f35b600194935050505056fea2646970667358221220eeef9ef3539f16ccbfbbf6fd018aaa5d010c0e976c6a0ff41d36e11628c24d0d64736f6c63430006060033",
  "devdoc": {
    "methods": {},
    "title": "The Accept All Validator contract"
  },
  "userdoc": {
    "methods": {},
    "notice": "This contract accepts all values submitted and should be considered a 'skip validation' contract used by FluxAggregator"
  },
  "storageLayout": {
    "storage": [],
    "types": null
  }
}