{
  "address": "0x3af75DEAbE628Cb0713EC6Cb4c2D15Bfad4bAdb5",
  "abi": [
    {
      "anonymous": false,
      "inputs": [
        {
          "indexed": false,
          "internalType": "uint256",
          "name": "maxHoldingBaseAsset",
          "type": "uint256"
        },
        {
          "indexed": false,
          "internalType": "uint256",
          "name": "openInterestNotionalCap",
          "type": "uint256"
        }
      ],
      "name": "CapChanged",
      "type": "event"
    },
    {
      "anonymous": false,
      "inputs": [
        {
          "indexed": false,
          "internalType": "uint256",
          "name": "ratio",
          "type": "uint256"
        }
      ],
      "name": "FeeRatioChanged",
      "type": "event"
    },
    {
      "anonymous": false,
      "inputs": [
        {
          "indexed": false,
          "internalType": "uint256",
          "name": "ratio",
          "type": "uint256"
        }
      ],
      "name": "FluctuationLimitRatioChanged",
      "type": "event"
    },
    {
      "anonymous": false,
      "inputs": [
        {
          "indexed": false,
          "internalType": "uint256",
          "name": "fundingPeriod",
          "type": "uint256"
        }
      ],
      "name": "FundingPeriodChanged",
      "type": "event"
    },
    {
      "anonymous": false,
      "inputs": [
        {
          "indexed": false,
          "internalType": "int256",
          "name": "fundingRateLong",
          "type": "int256"
        },
        {
          "indexed": false,
          "internalType": "int256",
          "name": "fundingRateShort",
          "type": "int256"
        },
        {
          "indexed": false,
          "internalType": "uint256",
          "name": "underlyingPrice",
          "type": "uint256"
        }
      ],
      "name": "FundingRateUpdated",
      "type": "event"
    },
    {
      "anonymous": false,
      "inputs": [
        {
          "indexed": false,
          "internalType": "uint256",
          "name": "ratio",
          "type": "uint256"
        }
      ],
      "name": "InitMarginRatioChanged",
      "type": "event"
    },
    {
      "anonymous": false,
      "inputs": [
        {
          "indexed": false,
          "internalType": "uint8",
          "name": "version",
          "type": "uint8"
        }
      ],
      "name": "Initialized",
      "type": "event"
    },
    {
      "anonymous": false,
      "inputs": [
        {
          "indexed": false,
          "internalType": "uint256",
          "name": "divergenceThresholdRatio",
          "type": "uint256"
        },
        {
          "indexed": false,
          "internalType": "uint256",
          "name": "feeRatio",
          "type": "uint256"
        },
        {
          "indexed": false,
          "internalType": "uint256",
          "name": "feeInFavorRatio",
          "type": "uint256"
        }
      ],
      "name": "Level1DynamicFeeSettingsChanged",
      "type": "event"
    },
    {
      "anonymous": false,
      "inputs": [
        {
          "indexed": false,
          "internalType": "uint256",
          "name": "divergenceThresholdRatio",
          "type": "uint256"
        },
        {
          "indexed": false,
          "internalType": "uint256",
          "name": "feeRatio",
          "type": "uint256"
        },
        {
          "indexed": false,
          "internalType": "uint256",
          "name": "feeInFavorRatio",
          "type": "uint256"
        }
      ],
      "name": "Level2DynamicFeeSettingsChanged",
      "type": "event"
    },
    {
      "anonymous": false,
      "inputs": [
        {
          "indexed": false,
          "internalType": "uint256",
          "name": "ratio",
          "type": "uint256"
        }
      ],
      "name": "LiquidationFeeRatioChanged",
      "type": "event"
    },
    {
      "anonymous": false,
      "inputs": [
        {
          "indexed": false,
          "internalType": "uint256",
          "name": "ratio",
          "type": "uint256"
        }
      ],
      "name": "MaintenanceMarginRatioChanged",
      "type": "event"
    },
    {
      "anonymous": false,
      "inputs": [
        {
          "indexed": true,
          "internalType": "bool",
          "name": "open",
          "type": "bool"
        }
      ],
      "name": "Open",
      "type": "event"
    },
    {
      "anonymous": false,
      "inputs": [
        {
          "indexed": true,
          "internalType": "address",
          "name": "previousOwner",
          "type": "address"
        },
        {
          "indexed": true,
          "internalType": "address",
          "name": "newOwner",
          "type": "address"
        }
      ],
      "name": "OwnershipTransferred",
      "type": "event"
    },
    {
      "anonymous": false,
      "inputs": [
        {
          "indexed": false,
          "internalType": "uint256",
          "name": "ratio",
          "type": "uint256"
        }
      ],
      "name": "PartialLiquidationRatioChanged",
      "type": "event"
    },
    {
      "anonymous": false,
      "inputs": [
        {
          "indexed": true,
          "internalType": "address",
          "name": "priceFeed",
          "type": "address"
        }
      ],
      "name": "PriceFeedUpdated",
      "type": "event"
    },
    {
      "anonymous": false,
      "inputs": [
        {
          "indexed": false,
          "internalType": "uint256",
          "name": "quoteAssetReserveBefore",
          "type": "uint256"
        },
        {
          "indexed": false,
          "internalType": "uint256",
          "name": "baseAssetReserveBefore",
          "type": "uint256"
        },
        {
          "indexed": false,
          "internalType": "uint256",
          "name": "quoteAssetReserveAfter",
          "type": "uint256"
        },
        {
          "indexed": false,
          "internalType": "uint256",
          "name": "baseAssetReserveAfter",
          "type": "uint256"
        },
        {
          "indexed": false,
          "internalType": "int256",
          "name": "repegPnl",
          "type": "int256"
        }
      ],
      "name": "Repeg",
      "type": "event"
    },
    {
      "anonymous": false,
      "inputs": [
        {
          "indexed": false,
          "internalType": "uint256",
          "name": "quoteAssetReserve",
          "type": "uint256"
        },
        {
          "indexed": false,
          "internalType": "uint256",
          "name": "baseAssetReserve",
          "type": "uint256"
        },
        {
          "indexed": false,
          "internalType": "uint256",
          "name": "timestamp",
          "type": "uint256"
        }
      ],
      "name": "ReserveSnapshotted",
      "type": "event"
    },
    {
      "anonymous": false,
      "inputs": [
        {
          "indexed": false,
          "internalType": "enum IAmm.Dir",
          "name": "dir",
          "type": "uint8"
        },
        {
          "indexed": false,
          "internalType": "uint256",
          "name": "quoteAssetAmount",
          "type": "uint256"
        },
        {
          "indexed": false,
          "internalType": "uint256",
          "name": "baseAssetAmount",
          "type": "uint256"
        }
      ],
      "name": "SwapInput",
      "type": "event"
    },
    {
      "anonymous": false,
      "inputs": [
        {
          "indexed": false,
          "internalType": "enum IAmm.Dir",
          "name": "dir",
          "type": "uint8"
        },
        {
          "indexed": false,
          "internalType": "uint256",
          "name": "quoteAssetAmount",
          "type": "uint256"
        },
        {
          "indexed": false,
          "internalType": "uint256",
          "name": "baseAssetAmount",
          "type": "uint256"
        }
      ],
      "name": "SwapOutput",
      "type": "event"
    },
    {
      "anonymous": false,
      "inputs": [
        {
          "indexed": false,
          "internalType": "uint256",
          "name": "ratio",
          "type": "uint256"
        }
      ],
      "name": "TradeLimitRatioChanged",
      "type": "event"
    },
    {
      "inputs": [],
      "name": "_x0",
      "outputs": [
        {
          "internalType": "uint256",
          "name": "d",
          "type": "uint256"
        }
      ],
      "stateMutability": "view",
      "type": "function"
    },
    {
      "inputs": [],
      "name": "_y0",
      "outputs": [
        {
          "internalType": "uint256",
          "name": "d",
          "type": "uint256"
        }
      ],
      "stateMutability": "view",
      "type": "function"
    },
    {
      "inputs": [],
      "name": "baseAssetDeltaThisFundingPeriod",
      "outputs": [
        {
          "internalType": "int256",
          "name": "d",
          "type": "int256"
        }
      ],
      "stateMutability": "view",
      "type": "function"
    },
    {
      "inputs": [],
      "name": "baseAssetReserve",
      "outputs": [
        {
          "internalType": "uint256",
          "name": "d",
          "type": "uint256"
        }
      ],
      "stateMutability": "view",
      "type": "function"
    },
    {
      "inputs": [
        {
          "internalType": "enum IAmm.Dir",
          "name": "_dirOfQuote",
          "type": "uint8"
        },
        {
          "components": [
            {
              "internalType": "uint256",
              "name": "d",
              "type": "uint256"
            }
          ],
          "internalType": "struct Decimal.decimal",
          "name": "_quoteAssetAmount",
          "type": "tuple"
        },
        {
          "internalType": "bool",
          "name": "_isOpenPos",
          "type": "bool"
        }
      ],
      "name": "calcFee",
      "outputs": [
        {
          "components": [
            {
              "internalType": "uint256",
              "name": "d",
              "type": "uint256"
            }
          ],
          "internalType": "struct Decimal.decimal",
          "name": "fees",
          "type": "tuple"
        }
      ],
      "stateMutability": "view",
      "type": "function"
    },
    {
      "inputs": [
        {
          "components": [
            {
              "internalType": "uint256",
              "name": "d",
              "type": "uint256"
            }
          ],
          "internalType": "struct Decimal.decimal",
          "name": "_k",
          "type": "tuple"
        }
      ],
      "name": "calcKRepegPnl",
      "outputs": [
        {
          "components": [
            {
              "internalType": "int256",
              "name": "d",
              "type": "int256"
            }
          ],
          "internalType": "struct SignedDecimal.signedDecimal",
          "name": "repegPnl",
          "type": "tuple"
        }
      ],
      "stateMutability": "view",
      "type": "function"
    },
    {
      "inputs": [
        {
          "components": [
            {
              "internalType": "uint256",
              "name": "d",
              "type": "uint256"
            }
          ],
          "internalType": "struct Decimal.decimal",
          "name": "_repegTo",
          "type": "tuple"
        }
      ],
      "name": "calcPriceRepegPnl",
      "outputs": [
        {
          "components": [
            {
              "internalType": "int256",
              "name": "d",
              "type": "int256"
            }
          ],
          "internalType": "struct SignedDecimal.signedDecimal",
          "name": "repegPnl",
          "type": "tuple"
        }
      ],
      "stateMutability": "view",
      "type": "function"
    },
    {
      "inputs": [],
      "name": "counterParty",
      "outputs": [
        {
          "internalType": "address",
          "name": "",
          "type": "address"
        }
      ],
      "stateMutability": "view",
      "type": "function"
    },
    {
      "inputs": [],
      "name": "cumulativeNotional",
      "outputs": [
        {
          "internalType": "int256",
          "name": "d",
          "type": "int256"
        }
      ],
      "stateMutability": "view",
      "type": "function"
    },
    {
      "inputs": [],
      "name": "fluctuationLimitRatio",
      "outputs": [
        {
          "internalType": "uint256",
          "name": "d",
          "type": "uint256"
        }
      ],
      "stateMutability": "view",
      "type": "function"
    },
    {
      "inputs": [],
      "name": "fundingBufferPeriod",
      "outputs": [
        {
          "internalType": "uint256",
          "name": "",
          "type": "uint256"
        }
      ],
      "stateMutability": "view",
      "type": "function"
    },
    {
      "inputs": [],
      "name": "fundingPeriod",
      "outputs": [
        {
          "internalType": "uint256",
          "name": "",
          "type": "uint256"
        }
      ],
      "stateMutability": "view",
      "type": "function"
    },
    {
      "inputs": [],
      "name": "fundingRate",
      "outputs": [
        {
          "components": [
            {
              "internalType": "int256",
              "name": "d",
              "type": "int256"
            }
          ],
          "internalType": "struct SignedDecimal.signedDecimal",
          "name": "fundingRateLong",
          "type": "tuple"
        },
        {
          "components": [
            {
              "internalType": "int256",
              "name": "d",
              "type": "int256"
            }
          ],
          "internalType": "struct SignedDecimal.signedDecimal",
          "name": "fundingRateShort",
          "type": "tuple"
        }
      ],
      "stateMutability": "view",
      "type": "function"
    },
    {
      "inputs": [],
      "name": "getBaseAssetDelta",
      "outputs": [
        {
          "components": [
            {
              "internalType": "int256",
              "name": "d",
              "type": "int256"
            }
          ],
          "internalType": "struct SignedDecimal.signedDecimal",
          "name": "",
          "type": "tuple"
        }
      ],
      "stateMutability": "view",
      "type": "function"
    },
    {
      "inputs": [],
      "name": "getCumulativeNotional",
      "outputs": [
        {
          "components": [
            {
              "internalType": "int256",
              "name": "d",
              "type": "int256"
            }
          ],
          "internalType": "struct SignedDecimal.signedDecimal",
          "name": "",
          "type": "tuple"
        }
      ],
      "stateMutability": "view",
      "type": "function"
    },
    {
      "inputs": [],
      "name": "getFeeRatio",
      "outputs": [
        {
          "components": [
            {
              "internalType": "uint256",
              "name": "d",
              "type": "uint256"
            }
          ],
          "internalType": "struct Decimal.decimal",
          "name": "",
          "type": "tuple"
        }
      ],
      "stateMutability": "view",
      "type": "function"
    },
    {
      "inputs": [],
      "name": "getIndexPrice",
      "outputs": [
        {
          "components": [
            {
              "internalType": "uint256",
              "name": "d",
              "type": "uint256"
            }
          ],
          "internalType": "struct Decimal.decimal",
          "name": "",
          "type": "tuple"
        }
      ],
      "stateMutability": "view",
      "type": "function"
    },
    {
      "inputs": [],
      "name": "getInitMarginRatio",
      "outputs": [
        {
          "components": [
            {
              "internalType": "uint256",
              "name": "d",
              "type": "uint256"
            }
          ],
          "internalType": "struct Decimal.decimal",
          "name": "",
          "type": "tuple"
        }
      ],
      "stateMutability": "view",
      "type": "function"
    },
    {
      "inputs": [
        {
          "internalType": "enum IAmm.Dir",
          "name": "_dirOfQuote",
          "type": "uint8"
        },
        {
          "components": [
            {
              "internalType": "uint256",
              "name": "d",
              "type": "uint256"
            }
          ],
          "internalType": "struct Decimal.decimal",
          "name": "_quoteAssetAmount",
          "type": "tuple"
        }
      ],
      "name": "getInputPrice",
      "outputs": [
        {
          "components": [
            {
              "internalType": "uint256",
              "name": "d",
              "type": "uint256"
            }
          ],
          "internalType": "struct Decimal.decimal",
          "name": "",
          "type": "tuple"
        }
      ],
      "stateMutability": "view",
      "type": "function"
    },
    {
      "inputs": [
        {
          "internalType": "enum IAmm.Dir",
          "name": "_dirOfQuote",
          "type": "uint8"
        },
        {
          "components": [
            {
              "internalType": "uint256",
              "name": "d",
              "type": "uint256"
            }
          ],
          "internalType": "struct Decimal.decimal",
          "name": "_quoteAssetAmount",
          "type": "tuple"
        },
        {
          "components": [
            {
              "internalType": "uint256",
              "name": "d",
              "type": "uint256"
            }
          ],
          "internalType": "struct Decimal.decimal",
          "name": "_quoteAssetPoolAmount",
          "type": "tuple"
        },
        {
          "components": [
            {
              "internalType": "uint256",
              "name": "d",
              "type": "uint256"
            }
          ],
          "internalType": "struct Decimal.decimal",
          "name": "_baseAssetPoolAmount",
          "type": "tuple"
        }
      ],
      "name": "getInputPriceWithReserves",
      "outputs": [
        {
          "components": [
            {
              "internalType": "uint256",
              "name": "d",
              "type": "uint256"
            }
          ],
          "internalType": "struct Decimal.decimal",
          "name": "",
          "type": "tuple"
        }
      ],
      "stateMutability": "view",
      "type": "function"
    },
    {
      "inputs": [
        {
          "internalType": "enum IAmm.Dir",
          "name": "_dirOfQuote",
          "type": "uint8"
        },
        {
          "components": [
            {
              "internalType": "uint256",
              "name": "d",
              "type": "uint256"
            }
          ],
          "internalType": "struct Decimal.decimal",
          "name": "_quoteAssetAmount",
          "type": "tuple"
        }
      ],
      "name": "getInputTwap",
      "outputs": [
        {
          "components": [
            {
              "internalType": "uint256",
              "name": "d",
              "type": "uint256"
            }
          ],
          "internalType": "struct Decimal.decimal",
          "name": "",
          "type": "tuple"
        }
      ],
      "stateMutability": "view",
      "type": "function"
    },
    {
      "inputs": [],
      "name": "getLiquidationFeeRatio",
      "outputs": [
        {
          "components": [
            {
              "internalType": "uint256",
              "name": "d",
              "type": "uint256"
            }
          ],
          "internalType": "struct Decimal.decimal",
          "name": "",
          "type": "tuple"
        }
      ],
      "stateMutability": "view",
      "type": "function"
    },
    {
      "inputs": [],
      "name": "getMaintenanceMarginRatio",
      "outputs": [
        {
          "components": [
            {
              "internalType": "uint256",
              "name": "d",
              "type": "uint256"
            }
          ],
          "internalType": "struct Decimal.decimal",
          "name": "",
          "type": "tuple"
        }
      ],
      "stateMutability": "view",
      "type": "function"
    },
    {
      "inputs": [],
      "name": "getMarkPrice",
      "outputs": [
        {
          "components": [
            {
              "internalType": "uint256",
              "name": "d",
              "type": "uint256"
            }
          ],
          "internalType": "struct Decimal.decimal",
          "name": "",
          "type": "tuple"
        }
      ],
      "stateMutability": "view",
      "type": "function"
    },
    {
      "inputs": [],
      "name": "getMaxHoldingBaseAsset",
      "outputs": [
        {
          "components": [
            {
              "internalType": "uint256",
              "name": "d",
              "type": "uint256"
            }
          ],
          "internalType": "struct Decimal.decimal",
          "name": "",
          "type": "tuple"
        }
      ],
      "stateMutability": "view",
      "type": "function"
    },
    {
      "inputs": [],
      "name": "getOpenInterestNotionalCap",
      "outputs": [
        {
          "components": [
            {
              "internalType": "uint256",
              "name": "d",
              "type": "uint256"
            }
          ],
          "internalType": "struct Decimal.decimal",
          "name": "",
          "type": "tuple"
        }
      ],
      "stateMutability": "view",
      "type": "function"
    },
    {
      "inputs": [
        {
          "internalType": "enum IAmm.Dir",
          "name": "_dirOfBase",
          "type": "uint8"
        },
        {
          "components": [
            {
              "internalType": "uint256",
              "name": "d",
              "type": "uint256"
            }
          ],
          "internalType": "struct Decimal.decimal",
          "name": "_baseAssetAmount",
          "type": "tuple"
        }
      ],
      "name": "getOutputPrice",
      "outputs": [
        {
          "components": [
            {
              "internalType": "uint256",
              "name": "d",
              "type": "uint256"
            }
          ],
          "internalType": "struct Decimal.decimal",
          "name": "",
          "type": "tuple"
        }
      ],
      "stateMutability": "view",
      "type": "function"
    },
    {
      "inputs": [
        {
          "internalType": "enum IAmm.Dir",
          "name": "_dirOfBase",
          "type": "uint8"
        },
        {
          "components": [
            {
              "internalType": "uint256",
              "name": "d",
              "type": "uint256"
            }
          ],
          "internalType": "struct Decimal.decimal",
          "name": "_baseAssetAmount",
          "type": "tuple"
        },
        {
          "components": [
            {
              "internalType": "uint256",
              "name": "d",
              "type": "uint256"
            }
          ],
          "internalType": "struct Decimal.decimal",
          "name": "_quoteAssetPoolAmount",
          "type": "tuple"
        },
        {
          "components": [
            {
              "internalType": "uint256",
              "name": "d",
              "type": "uint256"
            }
          ],
          "internalType": "struct Decimal.decimal",
          "name": "_baseAssetPoolAmount",
          "type": "tuple"
        }
      ],
      "name": "getOutputPriceWithReserves",
      "outputs": [
        {
          "components": [
            {
              "internalType": "uint256",
              "name": "d",
              "type": "uint256"
            }
          ],
          "internalType": "struct Decimal.decimal",
          "name": "",
          "type": "tuple"
        }
      ],
      "stateMutability": "view",
      "type": "function"
    },
    {
      "inputs": [
        {
          "internalType": "enum IAmm.Dir",
          "name": "_dirOfBase",
          "type": "uint8"
        },
        {
          "components": [
            {
              "internalType": "uint256",
              "name": "d",
              "type": "uint256"
            }
          ],
          "internalType": "struct Decimal.decimal",
          "name": "_baseAssetAmount",
          "type": "tuple"
        }
      ],
      "name": "getOutputTwap",
      "outputs": [
        {
          "components": [
            {
              "internalType": "uint256",
              "name": "d",
              "type": "uint256"
            }
          ],
          "internalType": "struct Decimal.decimal",
          "name": "",
          "type": "tuple"
        }
      ],
      "stateMutability": "view",
      "type": "function"
    },
    {
      "inputs": [],
      "name": "getPartialLiquidationRatio",
      "outputs": [
        {
          "components": [
            {
              "internalType": "uint256",
              "name": "d",
              "type": "uint256"
            }
          ],
          "internalType": "struct Decimal.decimal",
          "name": "",
          "type": "tuple"
        }
      ],
      "stateMutability": "view",
      "type": "function"
    },
    {
      "inputs": [],
      "name": "getRatios",
      "outputs": [
        {
          "components": [
            {
              "components": [
                {
                  "internalType": "uint256",
                  "name": "d",
                  "type": "uint256"
                }
              ],
              "internalType": "struct Decimal.decimal",
              "name": "feeRatio",
              "type": "tuple"
            },
            {
              "components": [
                {
                  "internalType": "uint256",
                  "name": "d",
                  "type": "uint256"
                }
              ],
              "internalType": "struct Decimal.decimal",
              "name": "initMarginRatio",
              "type": "tuple"
            },
            {
              "components": [
                {
                  "internalType": "uint256",
                  "name": "d",
                  "type": "uint256"
                }
              ],
              "internalType": "struct Decimal.decimal",
              "name": "maintenanceMarginRatio",
              "type": "tuple"
            },
            {
              "components": [
                {
                  "internalType": "uint256",
                  "name": "d",
                  "type": "uint256"
                }
              ],
              "internalType": "struct Decimal.decimal",
              "name": "partialLiquidationRatio",
              "type": "tuple"
            },
            {
              "components": [
                {
                  "internalType": "uint256",
                  "name": "d",
                  "type": "uint256"
                }
              ],
              "internalType": "struct Decimal.decimal",
              "name": "liquidationFeeRatio",
              "type": "tuple"
            }
          ],
          "internalType": "struct IAmm.Ratios",
          "name": "",
          "type": "tuple"
        }
      ],
      "stateMutability": "view",
      "type": "function"
    },
    {
      "inputs": [],
      "name": "getReserves",
      "outputs": [
        {
          "components": [
            {
              "internalType": "uint256",
              "name": "d",
              "type": "uint256"
            }
          ],
          "internalType": "struct Decimal.decimal",
          "name": "",
          "type": "tuple"
        },
        {
          "components": [
            {
              "internalType": "uint256",
              "name": "d",
              "type": "uint256"
            }
          ],
          "internalType": "struct Decimal.decimal",
          "name": "",
          "type": "tuple"
        }
      ],
      "stateMutability": "view",
      "type": "function"
    },
    {
      "inputs": [],
      "name": "getSnapshotLen",
      "outputs": [
        {
          "internalType": "uint256",
          "name": "",
          "type": "uint256"
        }
      ],
      "stateMutability": "view",
      "type": "function"
    },
    {
      "inputs": [
        {
          "internalType": "uint256",
          "name": "_intervalInSeconds",
          "type": "uint256"
        }
      ],
      "name": "getTwapPrice",
      "outputs": [
        {
          "components": [
            {
              "internalType": "uint256",
              "name": "d",
              "type": "uint256"
            }
          ],
          "internalType": "struct Decimal.decimal",
          "name": "",
          "type": "tuple"
        }
      ],
      "stateMutability": "view",
      "type": "function"
    },
    {
      "inputs": [
        {
          "internalType": "uint256",
          "name": "_quoteAssetReserve",
          "type": "uint256"
        },
        {
          "internalType": "uint256",
          "name": "_baseAssetReserve",
          "type": "uint256"
        },
        {
          "internalType": "uint256",
          "name": "_tradeLimitRatio",
          "type": "uint256"
        },
        {
          "internalType": "uint256",
          "name": "_fundingPeriod",
          "type": "uint256"
        },
        {
          "internalType": "contract IPriceFeed",
          "name": "_priceFeed",
          "type": "address"
        },
        {
          "internalType": "bytes32",
          "name": "_priceFeedKey",
          "type": "bytes32"
        },
        {
          "internalType": "address",
          "name": "_quoteAsset",
          "type": "address"
        },
        {
          "internalType": "uint256",
          "name": "_fluctuationLimitRatio",
          "type": "uint256"
        },
        {
          "internalType": "uint256",
          "name": "_feeRatio",
          "type": "uint256"
        }
      ],
      "name": "initialize",
      "outputs": [],
      "stateMutability": "nonpayable",
      "type": "function"
    },
    {
      "inputs": [
        {
          "internalType": "enum IAmm.Dir",
          "name": "_dirOfBase",
          "type": "uint8"
        },
        {
          "components": [
            {
              "internalType": "uint256",
              "name": "d",
              "type": "uint256"
            }
          ],
          "internalType": "struct Decimal.decimal",
          "name": "_baseAssetAmount",
          "type": "tuple"
        }
      ],
      "name": "isOverFluctuationLimit",
      "outputs": [
        {
          "internalType": "bool",
          "name": "",
          "type": "bool"
        }
      ],
      "stateMutability": "view",
      "type": "function"
    },
    {
      "inputs": [],
      "name": "isOverSpreadLimit",
      "outputs": [
        {
          "internalType": "bool",
          "name": "",
          "type": "bool"
        }
      ],
      "stateMutability": "view",
      "type": "function"
    },
    {
      "inputs": [],
      "name": "k",
      "outputs": [
        {
          "internalType": "uint256",
          "name": "d",
          "type": "uint256"
        }
      ],
      "stateMutability": "view",
      "type": "function"
    },
    {
      "inputs": [],
      "name": "lastRepegTimestamp",
      "outputs": [
        {
          "internalType": "uint256",
          "name": "",
          "type": "uint256"
        }
      ],
      "stateMutability": "view",
      "type": "function"
    },
    {
      "inputs": [],
      "name": "level1DynamicFeeSettings",
      "outputs": [
        {
          "components": [
            {
              "internalType": "uint256",
              "name": "d",
              "type": "uint256"
            }
          ],
          "internalType": "struct Decimal.decimal",
          "name": "divergenceThresholdRatio",
          "type": "tuple"
        },
        {
          "components": [
            {
              "internalType": "uint256",
              "name": "d",
              "type": "uint256"
            }
          ],
          "internalType": "struct Decimal.decimal",
          "name": "feeRatio",
          "type": "tuple"
        },
        {
          "components": [
            {
              "internalType": "uint256",
              "name": "d",
              "type": "uint256"
            }
          ],
          "internalType": "struct Decimal.decimal",
          "name": "feeInFavorRatio",
          "type": "tuple"
        }
      ],
      "stateMutability": "view",
      "type": "function"
    },
    {
      "inputs": [],
      "name": "level2DynamicFeeSettings",
      "outputs": [
        {
          "components": [
            {
              "internalType": "uint256",
              "name": "d",
              "type": "uint256"
            }
          ],
          "internalType": "struct Decimal.decimal",
          "name": "divergenceThresholdRatio",
          "type": "tuple"
        },
        {
          "components": [
            {
              "internalType": "uint256",
              "name": "d",
              "type": "uint256"
            }
          ],
          "internalType": "struct Decimal.decimal",
          "name": "feeRatio",
          "type": "tuple"
        },
        {
          "components": [
            {
              "internalType": "uint256",
              "name": "d",
              "type": "uint256"
            }
          ],
          "internalType": "struct Decimal.decimal",
          "name": "feeInFavorRatio",
          "type": "tuple"
        }
      ],
      "stateMutability": "view",
      "type": "function"
    },
    {
      "inputs": [],
      "name": "markPriceTwapInterval",
      "outputs": [
        {
          "internalType": "uint256",
          "name": "",
          "type": "uint256"
        }
      ],
      "stateMutability": "view",
      "type": "function"
    },
    {
      "inputs": [],
      "name": "nextFundingTime",
      "outputs": [
        {
          "internalType": "uint256",
          "name": "",
          "type": "uint256"
        }
      ],
      "stateMutability": "view",
      "type": "function"
    },
    {
      "inputs": [],
      "name": "open",
      "outputs": [
        {
          "internalType": "bool",
          "name": "",
          "type": "bool"
        }
      ],
      "stateMutability": "view",
      "type": "function"
    },
    {
      "inputs": [],
      "name": "owner",
      "outputs": [
        {
          "internalType": "address",
          "name": "",
          "type": "address"
        }
      ],
      "stateMutability": "view",
      "type": "function"
    },
    {
      "inputs": [],
      "name": "priceFeed",
      "outputs": [
        {
          "internalType": "contract IPriceFeed",
          "name": "",
          "type": "address"
        }
      ],
      "stateMutability": "view",
      "type": "function"
    },
    {
      "inputs": [],
      "name": "priceFeedKey",
      "outputs": [
        {
          "internalType": "bytes32",
          "name": "",
          "type": "bytes32"
        }
      ],
      "stateMutability": "view",
      "type": "function"
    },
    {
      "inputs": [],
      "name": "quoteAsset",
      "outputs": [
        {
          "internalType": "contract IERC20",
          "name": "",
          "type": "address"
        }
      ],
      "stateMutability": "view",
      "type": "function"
    },
    {
      "inputs": [],
      "name": "quoteAssetReserve",
      "outputs": [
        {
          "internalType": "uint256",
          "name": "d",
          "type": "uint256"
        }
      ],
      "stateMutability": "view",
      "type": "function"
    },
    {
      "inputs": [],
      "name": "renounceOwnership",
      "outputs": [],
      "stateMutability": "nonpayable",
      "type": "function"
    },
    {
      "inputs": [],
      "name": "repegBufferPeriod",
      "outputs": [
        {
          "internalType": "uint256",
          "name": "",
          "type": "uint256"
        }
      ],
      "stateMutability": "view",
      "type": "function"
    },
    {
      "inputs": [
        {
          "components": [
            {
              "internalType": "uint256",
              "name": "d",
              "type": "uint256"
            }
          ],
          "internalType": "struct Decimal.decimal",
          "name": "_multiplier",
          "type": "tuple"
        }
      ],
      "name": "repegK",
      "outputs": [
        {
          "components": [
            {
              "internalType": "uint256",
              "name": "d",
              "type": "uint256"
            }
          ],
          "internalType": "struct Decimal.decimal",
          "name": "",
          "type": "tuple"
        },
        {
          "components": [
            {
              "internalType": "uint256",
              "name": "d",
              "type": "uint256"
            }
          ],
          "internalType": "struct Decimal.decimal",
          "name": "",
          "type": "tuple"
        },
        {
          "components": [
            {
              "internalType": "uint256",
              "name": "d",
              "type": "uint256"
            }
          ],
          "internalType": "struct Decimal.decimal",
          "name": "",
          "type": "tuple"
        },
        {
          "components": [
            {
              "internalType": "uint256",
              "name": "d",
              "type": "uint256"
            }
          ],
          "internalType": "struct Decimal.decimal",
          "name": "",
          "type": "tuple"
        },
        {
          "components": [
            {
              "internalType": "int256",
              "name": "d",
              "type": "int256"
            }
          ],
          "internalType": "struct SignedDecimal.signedDecimal",
          "name": "",
          "type": "tuple"
        }
      ],
      "stateMutability": "nonpayable",
      "type": "function"
    },
    {
      "inputs": [],
      "name": "repegPrice",
      "outputs": [
        {
          "components": [
            {
              "internalType": "uint256",
              "name": "d",
              "type": "uint256"
            }
          ],
          "internalType": "struct Decimal.decimal",
          "name": "",
          "type": "tuple"
        },
        {
          "components": [
            {
              "internalType": "uint256",
              "name": "d",
              "type": "uint256"
            }
          ],
          "internalType": "struct Decimal.decimal",
          "name": "",
          "type": "tuple"
        },
        {
          "components": [
            {
              "internalType": "uint256",
              "name": "d",
              "type": "uint256"
            }
          ],
          "internalType": "struct Decimal.decimal",
          "name": "",
          "type": "tuple"
        },
        {
          "components": [
            {
              "internalType": "uint256",
              "name": "d",
              "type": "uint256"
            }
          ],
          "internalType": "struct Decimal.decimal",
          "name": "",
          "type": "tuple"
        },
        {
          "components": [
            {
              "internalType": "int256",
              "name": "d",
              "type": "int256"
            }
          ],
          "internalType": "struct SignedDecimal.signedDecimal",
          "name": "",
          "type": "tuple"
        }
      ],
      "stateMutability": "nonpayable",
      "type": "function"
    },
    {
      "inputs": [
        {
          "internalType": "uint256",
          "name": "",
          "type": "uint256"
        }
      ],
      "name": "reserveSnapshots",
      "outputs": [
        {
          "components": [
            {
              "internalType": "uint256",
              "name": "d",
              "type": "uint256"
            }
          ],
          "internalType": "struct Decimal.decimal",
          "name": "quoteAssetReserve",
          "type": "tuple"
        },
        {
          "components": [
            {
              "internalType": "uint256",
              "name": "d",
              "type": "uint256"
            }
          ],
          "internalType": "struct Decimal.decimal",
          "name": "baseAssetReserve",
          "type": "tuple"
        },
        {
          "internalType": "uint256",
          "name": "timestamp",
          "type": "uint256"
        },
        {
          "internalType": "uint256",
          "name": "blockNumber",
          "type": "uint256"
        }
      ],
      "stateMutability": "view",
      "type": "function"
    },
    {
      "inputs": [
        {
          "components": [
            {
              "internalType": "uint256",
              "name": "d",
              "type": "uint256"
            }
          ],
          "internalType": "struct Decimal.decimal",
          "name": "_maxHoldingBaseAsset",
          "type": "tuple"
        },
        {
          "components": [
            {
              "internalType": "uint256",
              "name": "d",
              "type": "uint256"
            }
          ],
          "internalType": "struct Decimal.decimal",
          "name": "_openInterestNotionalCap",
          "type": "tuple"
        }
      ],
      "name": "setCap",
      "outputs": [],
      "stateMutability": "nonpayable",
      "type": "function"
    },
    {
      "inputs": [
        {
          "internalType": "address",
          "name": "_counterParty",
          "type": "address"
        }
      ],
      "name": "setCounterParty",
      "outputs": [],
      "stateMutability": "nonpayable",
      "type": "function"
    },
    {
      "inputs": [
        {
          "components": [
            {
              "internalType": "uint256",
              "name": "d",
              "type": "uint256"
            }
          ],
          "internalType": "struct Decimal.decimal",
          "name": "_feeRatio",
          "type": "tuple"
        }
      ],
      "name": "setFeeRatio",
      "outputs": [],
      "stateMutability": "nonpayable",
      "type": "function"
    },
    {
      "inputs": [
        {
          "components": [
            {
              "internalType": "uint256",
              "name": "d",
              "type": "uint256"
            }
          ],
          "internalType": "struct Decimal.decimal",
          "name": "_fluctuationLimitRatio",
          "type": "tuple"
        }
      ],
      "name": "setFluctuationLimitRatio",
      "outputs": [],
      "stateMutability": "nonpayable",
      "type": "function"
    },
    {
      "inputs": [
        {
          "internalType": "uint256",
          "name": "_fundingPeriod",
          "type": "uint256"
        }
      ],
      "name": "setFundingPeriod",
      "outputs": [],
      "stateMutability": "nonpayable",
      "type": "function"
    },
    {
      "inputs": [
        {
          "components": [
            {
              "internalType": "uint256",
              "name": "d",
              "type": "uint256"
            }
          ],
          "internalType": "struct Decimal.decimal",
          "name": "_initMarginRatio",
          "type": "tuple"
        }
      ],
      "name": "setInitMarginRatio",
      "outputs": [],
      "stateMutability": "nonpayable",
      "type": "function"
    },
    {
      "inputs": [
        {
          "components": [
            {
              "internalType": "uint256",
              "name": "d",
              "type": "uint256"
            }
          ],
          "internalType": "struct Decimal.decimal",
          "name": "_divergenceThresholdRatio",
          "type": "tuple"
        },
        {
          "components": [
            {
              "internalType": "uint256",
              "name": "d",
              "type": "uint256"
            }
          ],
          "internalType": "struct Decimal.decimal",
          "name": "_feeRatio",
          "type": "tuple"
        },
        {
          "components": [
            {
              "internalType": "uint256",
              "name": "d",
              "type": "uint256"
            }
          ],
          "internalType": "struct Decimal.decimal",
          "name": "_feeInFavorRatio",
          "type": "tuple"
        }
      ],
      "name": "setLevel1DynamicFeeSettings",
      "outputs": [],
      "stateMutability": "nonpayable",
      "type": "function"
    },
    {
      "inputs": [
        {
          "components": [
            {
              "internalType": "uint256",
              "name": "d",
              "type": "uint256"
            }
          ],
          "internalType": "struct Decimal.decimal",
          "name": "_divergenceThresholdRatio",
          "type": "tuple"
        },
        {
          "components": [
            {
              "internalType": "uint256",
              "name": "d",
              "type": "uint256"
            }
          ],
          "internalType": "struct Decimal.decimal",
          "name": "_feeRatio",
          "type": "tuple"
        },
        {
          "components": [
            {
              "internalType": "uint256",
              "name": "d",
              "type": "uint256"
            }
          ],
          "internalType": "struct Decimal.decimal",
          "name": "_feeInFavorRatio",
          "type": "tuple"
        }
      ],
      "name": "setLevel2DynamicFeeSettings",
      "outputs": [],
      "stateMutability": "nonpayable",
      "type": "function"
    },
    {
      "inputs": [
        {
          "components": [
            {
              "internalType": "uint256",
              "name": "d",
              "type": "uint256"
            }
          ],
          "internalType": "struct Decimal.decimal",
          "name": "_liquidationFeeRatio",
          "type": "tuple"
        }
      ],
      "name": "setLiquidationFeeRatio",
      "outputs": [],
      "stateMutability": "nonpayable",
      "type": "function"
    },
    {
      "inputs": [
        {
          "components": [
            {
              "internalType": "uint256",
              "name": "d",
              "type": "uint256"
            }
          ],
          "internalType": "struct Decimal.decimal",
          "name": "_maintenanceMarginRatio",
          "type": "tuple"
        }
      ],
      "name": "setMaintenanceMarginRatio",
      "outputs": [],
      "stateMutability": "nonpayable",
      "type": "function"
    },
    {
      "inputs": [
        {
          "internalType": "uint256",
          "name": "_interval",
          "type": "uint256"
        }
      ],
      "name": "setMarkPriceTwapInterval",
      "outputs": [],
      "stateMutability": "nonpayable",
      "type": "function"
    },
    {
      "inputs": [
        {
          "internalType": "bool",
          "name": "_open",
          "type": "bool"
        }
      ],
      "name": "setOpen",
      "outputs": [],
      "stateMutability": "nonpayable",
      "type": "function"
    },
    {
      "inputs": [
        {
          "components": [
            {
              "internalType": "uint256",
              "name": "d",
              "type": "uint256"
            }
          ],
          "internalType": "struct Decimal.decimal",
          "name": "_partialLiquidationRatio",
          "type": "tuple"
        }
      ],
      "name": "setPartialLiquidationRatio",
      "outputs": [],
      "stateMutability": "nonpayable",
      "type": "function"
    },
    {
      "inputs": [
        {
          "internalType": "contract IPriceFeed",
          "name": "_priceFeed",
          "type": "address"
        }
      ],
      "name": "setPriceFeed",
      "outputs": [],
      "stateMutability": "nonpayable",
      "type": "function"
    },
    {
      "inputs": [
        {
          "internalType": "uint256",
          "name": "_repegBufferPeriod",
          "type": "uint256"
        }
      ],
      "name": "setRepegBufferPeriod",
      "outputs": [],
      "stateMutability": "nonpayable",
      "type": "function"
    },
    {
      "inputs": [
        {
          "components": [
            {
              "internalType": "uint256",
              "name": "d",
              "type": "uint256"
            }
          ],
          "internalType": "struct Decimal.decimal",
          "name": "_tradeLimitRatio",
          "type": "tuple"
        }
      ],
      "name": "setTradeLimitRatio",
      "outputs": [],
      "stateMutability": "nonpayable",
      "type": "function"
    },
    {
      "inputs": [],
      "name": "settleFunding",
      "outputs": [
        {
          "components": [
            {
              "internalType": "int256",
              "name": "d",
              "type": "int256"
            }
          ],
          "internalType": "struct SignedDecimal.signedDecimal",
          "name": "premiumFraction",
          "type": "tuple"
        },
        {
          "components": [
            {
              "internalType": "uint256",
              "name": "d",
              "type": "uint256"
            }
          ],
          "internalType": "struct Decimal.decimal",
          "name": "markPrice",
          "type": "tuple"
        },
        {
          "components": [
            {
              "internalType": "uint256",
              "name": "d",
              "type": "uint256"
            }
          ],
          "internalType": "struct Decimal.decimal",
          "name": "indexPrice",
          "type": "tuple"
        }
      ],
      "stateMutability": "nonpayable",
      "type": "function"
    },
    {
      "inputs": [
        {
          "internalType": "enum IAmm.Dir",
          "name": "_dirOfQuote",
          "type": "uint8"
        },
        {
          "components": [
            {
              "internalType": "uint256",
              "name": "d",
              "type": "uint256"
            }
          ],
          "internalType": "struct Decimal.decimal",
          "name": "_quoteAssetAmount",
          "type": "tuple"
        },
        {
          "components": [
            {
              "internalType": "uint256",
              "name": "d",
              "type": "uint256"
            }
          ],
          "internalType": "struct Decimal.decimal",
          "name": "_baseAssetAmountLimit",
          "type": "tuple"
        },
        {
          "internalType": "bool",
          "name": "_canOverFluctuationLimit",
          "type": "bool"
        }
      ],
      "name": "swapInput",
      "outputs": [
        {
          "components": [
            {
              "internalType": "uint256",
              "name": "d",
              "type": "uint256"
            }
          ],
          "internalType": "struct Decimal.decimal",
          "name": "",
          "type": "tuple"
        }
      ],
      "stateMutability": "nonpayable",
      "type": "function"
    },
    {
      "inputs": [
        {
          "internalType": "enum IAmm.Dir",
          "name": "_dirOfBase",
          "type": "uint8"
        },
        {
          "components": [
            {
              "internalType": "uint256",
              "name": "d",
              "type": "uint256"
            }
          ],
          "internalType": "struct Decimal.decimal",
          "name": "_baseAssetAmount",
          "type": "tuple"
        },
        {
          "components": [
            {
              "internalType": "uint256",
              "name": "d",
              "type": "uint256"
            }
          ],
          "internalType": "struct Decimal.decimal",
          "name": "_quoteAssetAmountLimit",
          "type": "tuple"
        }
      ],
      "name": "swapOutput",
      "outputs": [
        {
          "components": [
            {
              "internalType": "uint256",
              "name": "d",
              "type": "uint256"
            }
          ],
          "internalType": "struct Decimal.decimal",
          "name": "",
          "type": "tuple"
        }
      ],
      "stateMutability": "nonpayable",
      "type": "function"
    },
    {
      "inputs": [],
      "name": "totalPositionSize",
      "outputs": [
        {
          "internalType": "int256",
          "name": "d",
          "type": "int256"
        }
      ],
      "stateMutability": "view",
      "type": "function"
    },
    {
      "inputs": [],
      "name": "tradeLimitRatio",
      "outputs": [
        {
          "internalType": "uint256",
          "name": "d",
          "type": "uint256"
        }
      ],
      "stateMutability": "view",
      "type": "function"
    },
    {
      "inputs": [
        {
          "internalType": "address",
          "name": "newOwner",
          "type": "address"
        }
      ],
      "name": "transferOwnership",
      "outputs": [],
      "stateMutability": "nonpayable",
      "type": "function"
    },
    {
      "inputs": [
        {
          "components": [
            {
              "internalType": "int256",
              "name": "d",
              "type": "int256"
            }
          ],
          "internalType": "struct SignedDecimal.signedDecimal",
          "name": "_premiumFractionLong",
          "type": "tuple"
        },
        {
          "components": [
            {
              "internalType": "int256",
              "name": "d",
              "type": "int256"
            }
          ],
          "internalType": "struct SignedDecimal.signedDecimal",
          "name": "_premiumFractionShort",
          "type": "tuple"
        },
        {
          "components": [
            {
              "internalType": "uint256",
              "name": "d",
              "type": "uint256"
            }
          ],
          "internalType": "struct Decimal.decimal",
          "name": "_underlyingPrice",
          "type": "tuple"
        }
      ],
      "name": "updateFundingRate",
      "outputs": [],
      "stateMutability": "nonpayable",
      "type": "function"
    }
  ],
  "transactionHash": "0xab4b09bafb97e908d63d39b9589320e340114de85778d8d83947637818680f52",
  "args": [],
  "numDeployments": 1,
  "solcInputHash": "c69ce91694fafa3e2985b51488ae5dc1",
  "bytecode": "0x608060405234801561001057600080fd5b50614745806100206000396000f3fe608060405234801561001057600080fd5b506004361061045e5760003560e01c8063715018a61161024c578063b42baf3e11610146578063df7d2759116100c3578063f1b5df8611610087578063f1b5df8614610acf578063f2fde38b14610ae2578063f4fe3e9c14610af5578063fcfff16f14610afe578063fdf262b714610b1257600080fd5b8063df7d275914610a8e578063e0037a6c14610aa1578063e1f1027f14610aaa578063e4bc2eb914610abd578063ed83d79c14610ac757600080fd5b8063d48f271d1161010a578063d48f271d14610a38578063d56f2fda14610a42578063d71ec2ad14610a55578063da0c592714610a68578063de8b319214610a7b57600080fd5b8063b42baf3e146109d7578063b4f40c6114610a08578063c2de442f14610a12578063c9566fcc14610a1b578063c9dde75614610a2557600080fd5b80638f40d932116101d4578063a6174e5611610198578063a6174e561461094f578063a7b774a014610958578063a8f8be4e1461096b578063b0919abe1461097e578063b13c86a31461098857600080fd5b80638f40d93214610904578063918a8d321461090e5780639bf5d1d4146109215780639e010362146109345780639ece77c81461093c57600080fd5b806375df63891161021b57806375df6389146108b05780637cb9dcee146108c35780637fd44dae146108d6578063862c04e3146108e05780638da5cb5b146108f357600080fd5b8063715018a614610879578063724e78da14610881578063741bef1a1461089457806374d7c62b146108a757600080fd5b80632d77407d1161035d57806350799c81116102e557806360409632116102a957806360409632146108165780636c1274461461081e5780636d206d6d146108315780636fa42ede146108535780636fdca5e01461086657600080fd5b806350799c81146107ae57806352545410146107c157806358a4c3dc146107e357806358c0994a146107ec57806359362b88146107f457600080fd5b8063385b50f41161032c578063385b50f41461074257806341d3c84c14610764578063471be2fa146107885780634894d183146107915780634cb876f2146107a457600080fd5b80632d77407d146106b85780632d7cb219146107055780632f84885914610718578063332b82fa1461073a57600080fd5b806311377394116103eb57806321e00985116103af57806321e0098514610612578063252a4ba51461064557806329f9b17b146106585780632a5aa2921461067a5780632c453bdf1461068d57600080fd5b8063113773941461059d578063130234cf146105bf5780631d3acb44146105e25780631e1ff13b146105ec578063203b3788146105ff57600080fd5b8063053077031161043257806305307703146105005780630902f1ac146105225780630aa33fa91461056d5780630d451c8f146105825780630dd68c701461058a57600080fd5b806298f34d14610463578063013dd7951461049557806301905e98146104d5578063021bd8ea146104ed575b600080fd5b60408051602080820183526000909152815190810190915260685481525b604051905181526020015b60405180910390f35b6104a86104a3366004613fc6565b610b25565b6040805195518652935160208601529151928401929092529051606083015251608082015260a00161048c565b607b546104df9081565b60405190815260200161048c565b6104816104fb366004613fc6565b610d20565b604080516020808201835260009091528151908101909152606b548152610481565b60408051602080820183526000918290528251808201845291909152815180820183526074548152825191820190925260755481525b6040805192518352905160208301520161048c565b61058061057b366004613fc6565b610e06565b005b6088546104df565b610580610598366004613fe2565b610e64565b6040805160208082018352600090915281519081019091526077548152610481565b6105d26105cd36600461402b565b610ece565b604051901515815260200161048c565b6067546104df9081565b6105806105fa366004614047565b610ff2565b61058061060d366004613fc6565b610fff565b610625610620366004614047565b61104c565b60408051945185529251602085015291830152606082015260800161048c565b610580610653366004614060565b61109d565b604080516020808201835260009091528151908101909152607a548152610481565b610580610688366004614047565b61111d565b6086546106a0906001600160a01b031681565b6040516001600160a01b03909116815260200161048c565b6040805160208082018352606f548252825180820184526070548152835191820190935260715481526106e9929083565b604080519351845291516020840152519082015260600161048c565b610580610713366004613fc6565b611168565b6040805160208082018352600090915281519081019091526079548152610481565b6104a86111ac565b6040805160208082018352600090915281519081019091526069548152610481565b60408051602080820183526072548252825190810190925260735482526105589182565b6104df607f5481565b61048161079f36600461402b565b6113e1565b6079546104df9081565b6104816107bc3660046140a6565b611406565b6040805160208082018352600090915281519081019091526078548152610481565b6104df60855481565b610481611543565b6040805160208082018352600090915281519081019091526065548152610481565b6104816115d4565b61058061082c366004613fc6565b61160f565b604080516020808201835260009091528151908101909152606a548152610481565b61048161086136600461402b565b61165c565b61058061087436600461410d565b61167a565b610580611718565b61058061088f36600461413d565b61172c565b6084546106a0906001600160a01b031681565b6104df607e5481565b6104816108be366004614172565b6117d4565b6105806108d1366004614060565b611a8b565b607d546104df9081565b6105806108ee366004613fc6565b611ae3565b6033546001600160a01b03166106a0565b6066546104df9081565b61058061091c3660046141bd565b611ba4565b61048161092f3660046140a6565b611f7e565b6105d261209d565b61058061094a36600461413d565b612133565b6104df60835481565b61048161096636600461423a565b61215d565b610580610979366004613fc6565b61231d565b607c546104df9081565b610990612361565b60405161048c9190600060a0820190508251518252602083015151602083015260408301515160408301526060830151516060830152608083015151608083015292915050565b6040805160208082018352606c54825282518082018452606d5481528351918201909352606e5481526106e9929083565b6076546104df9081565b6104df60815481565b6075546104df9081565b610580610a33366004613fc6565b612421565b607a546104df9081565b610580610a50366004614060565b61246e565b610481610a63366004614275565b612524565b610481610a7636600461402b565b6125ad565b610580610a89366004614047565b6125e6565b610481610a9c366004613fc6565b612643565b6104df60805481565b610481610ab836600461402b565b612732565b6074546104df9081565b6106e961276b565b610481610add366004614047565b612904565b610580610af036600461413d565b61291c565b6104df60825481565b6087546105d290600160a01b900460ff1681565b6087546106a0906001600160a01b031681565b604080516020810190915260008152604080516020810190915260008152604080516020810190915260008152604080516020810190915260008152604080516020810190915260008152608754600160a01b900460ff16610ba25760405162461bcd60e51b8152600401610b99906142b1565b60405180910390fd5b6086546001600160a01b03163314610bcc5760405162461bcd60e51b8152600401610b99906142d9565b608354608254610bdc9190614326565b421015610c265760405162461bcd60e51b81526020600482015260186024820152771c995c1959c81a5b9d195c9d985b081d1bdbc81cdb585b1b60421b6044820152606401610b99565b6000610c3187612992565b60408051602080820183526074548252825190810190925260755482529192506000610c5d8385612a38565b90506000610c6b8386612a38565b90506000610c798383612a38565b90506000610c8682612643565b8451607481905584516075819055845160765542608255607d91909155607c559050610cb0612a6c565b7ff793c87aa8955ca27e2a318cdc9a5c97d6196b4eab42c2a9265c97e5ff244306610cd9875190565b8651865186518551604080519586526020860194909452928401919091526060830152608082015260a00160405180910390a1949c939b5091995097509195509350505050565b6040805160208101909152600081526040805160208101909152607d548152600090610d4b90612c02565b6040805160208101909152607c548152909150600090610d6a90612c02565b90506000610d788383612c6d565b90506000610d8c610d876115d4565b612c02565b90506000610d9987612c02565b9050610dfb610df4610da9612c98565b610dee610dc8610dc1610dbc888a612cbc565b612ce7565b8690612c6d565b610de8610dd8610dbc898b612c6d565b610de2888a612c6d565b90612d68565b90612d93565b90612dbe565b8690612cbc565b979650505050505050565b610e0e612e3c565b610e1781612e96565b8051606681905560408051602081019091528190527f413bcf24bd99a421ccaf50a4a1dba0cfd78558ceb34625206d2e6dfa1a53ff27905b6040519081526020015b60405180910390a150565b610e6c612e3c565b81516077819055815160788190556040805160208082018352908490528151808201835283905281519384528301919091527f7338f3784ceb8f9456bac0c4a69f1c6354dc325fa6455e3e3f6a8a9bf9249a7c91015b60405180910390a15050565b604080516020810190915260675490819052600090600003610ef257506000610fec565b600080610efd612ee4565b915091506000610f0d86866125ad565b905060006001876001811115610f2557610f2561433e565b14610f6d5760408051602081019091526075548152610f6890610f489088613087565b60408051602081019091526074548152610f6290856130b2565b906130dd565b610fa5565b60408051602081019091526075548152610fa590610f8b90886130b2565b60408051602081019091526074548152610f629085613087565b90506000610fb38286613108565b60000b13158015610fd157506000610fcb8285613108565b60000b12155b15610fe3576000945050505050610fec565b60019450505050505b92915050565b610ffa612e3c565b608355565b611007612e3c565b61101081612e96565b8051606b81905560408051602081019091528190527f6f825f18b787836f7cf974799b160538ab237aa0d14af3611fa69683a40c6d2290610e4f565b6088818154811061105c57600080fd5b600091825260209182902060408051808501825260049093029091018054835281519384019091526001810154835260028101546003909101549193509084565b6110a5612e3c565b6040805160608101825284815260208101849052018190528251606c558151606d558051606e557fdb990bcf88f23a71d18373867e3602c89a209902f2bb7fda7691dd32152871346110f5845190565b83515b83516040805193845260208401929092529082015260600160405180910390a1505050565b611125612e3c565b607e81905561113560028261436a565b6081556040518181527f6ce6315004c92b2957244860cf57179c165f8c77755f841dcd1a7e315dc76afb90602001610e59565b611170612e3c565b8051606581905560408051602081019091528190527f42fb40f05167879d1c8fddb6b4cd334f303e50aaf387b80b3c27633933dac15790610e4f565b604080516020810190915260008152604080516020810190915260008152604080516020810190915260008152604080516020810190915260008152604080516020810190915260008152608754600160a01b900460ff166112205760405162461bcd60e51b8152600401610b99906142b1565b6086546001600160a01b0316331461124a5760405162461bcd60e51b8152600401610b99906142d9565b60835460825461125a9190614326565b4210156112a45760405162461bcd60e51b81526020600482015260186024820152771c995c1959c81a5b9d195c9d985b081d1bdbc81cdb585b1b60421b6044820152606401610b99565b60006112ae611543565b905060006112bb82610d20565b60408051602080820183526074548252825190810190925260755482529192506112e6908490612a38565b51607481905560408051602080820183526075548252825190810190925291815261131091612a38565b5160765542608255607454607d55607554607c5561132c612a6c565b7ff793c87aa8955ca27e2a318cdc9a5c97d6196b4eab42c2a9265c97e5ff244306611355825190565b604080516020808201835260755491829052825180820184526074549081905283518083018552839052875184519586529185018390528484015260608401919091526080830152519081900360a00190a16040805160208082018352607554808352835180830185526074548152845192830190945281529299509750955093509150509091929394565b6040805160208101909152600081526113ff83836000610384613139565b9392505050565b6040805160208101909152600081528351600003611441576040805160208082018352600091829052825190810190925281525b905061153b565b6000808660018111156114565761145661433e565b14905061146f6040518060200160405280600081525090565b60408051602081019091526000815260408051602081019091526000815283156114a45761149d8789613087565b91506114b1565b6114ae87896130b2565b91505b81516000036114fb5760405162461bcd60e51b8152602060048201526016602482015275071756f746520617373657420616674657220697320360541b6044820152606401610b99565b6040805160208101909152607654815261152090839061151a90612c02565b906131df565b925061153461152f8488612dbe565b61325a565b9450505050505b949350505050565b6040805160208101909152600081526040805160208101918290526084546085546331d98b3f60e01b90935260248201929092529081906001600160a01b03166331d98b3f60448301602060405180830381865afa1580156115a9573d6000803e3d6000fd5b505050506040513d601f19601f820116820180604052508101906115cd919061437e565b9052919050565b604080516020810190915260008152604080516020808201835260755482528251908101909252607454825261160a91906130dd565b905090565b611617612e3c565b61162081612e96565b8051606981905560408051602081019091528190527fe75e3e311afafb466335ae8af3bf1d55443d8937fb5ada14583f4fca729c0fa890610e4f565b6040805160208101909152600081526113ff83836001610384613139565b611682612e3c565b60875460ff600160a01b90910416151581151514611715576087805482158015600160a01b0260ff60a01b19909216919091179091556116e757610e10607e54426116cd9190614326565b6116d7919061436a565b6116e390610e10614397565b6080555b604051811515907fc15f25c4eb6ac5b9dc23661b850cbdb3ee36aebed198ad870ab929bae77142de90600090a25b50565b611720612e3c565b61172a600061329e565b565b611734612e3c565b6001600160a01b03811661178a5760405162461bcd60e51b815260206004820152601960248201527f696e76616c6964205072696365466565642061646472657373000000000000006044820152606401610b99565b608480546001600160a01b0319166001600160a01b0383169081179091556040517fe5b20b8497e4f3e2435ef9c20e2e26b47497ee13745ce1c681ad6640653119e690600090a250565b604080516020810190915260008152608754600160a01b900460ff1661180c5760405162461bcd60e51b8152600401610b99906142b1565b6086546001600160a01b031633146118365760405162461bcd60e51b8152600401610b99906142d9565b61184c61184836869003860186613fc6565b5190565b6000036118735760408051602080820183526000918290528251908101909252815261143a565b60018560018111156118875761188761433e565b0361190b5761189e61184836869003860186613fc6565b60408051602080820183526066548252825190810190925260745482526118c89161184891612a38565b101561190b5760405162461bcd60e51b81526020600482015260126024820152711bdd995c881d1c98591a5b99c81b1a5b5a5d60721b6044820152606401610b99565b600061192086610ab836889003880188613fc6565b905061193461184836869003860186613fc6565b15611a1b57600086600181111561194d5761194d61433e565b036119b95761196461184836869003860186613fc6565b815110156119b45760405162461bcd60e51b815260206004820152601c60248201527f4c657373207468616e206d696e696d616c206261736520746f6b656e000000006044820152606401610b99565b611a1b565b6119cb61184836869003860186613fc6565b81511115611a1b5760405162461bcd60e51b815260206004820152601c60248201527f4d6f7265207468616e206d6178696d616c206261736520746f6b656e000000006044820152606401610b99565b611a3586611a2e36889003880188613fc6565b83866132f0565b7fae6a2b946841d9afc0e1e19a94ae4af26f01125b87b5095bbfb177a9741a2ede86611a6961184836899003890189613fc6565b8351604051611a7a939291906143b6565b60405180910390a195945050505050565b611a93612e3c565b6040805160608101825284815260208101849052018190528251606f55815160705580516071557fd12c16549241d3cde1b026616ce24879c1f8573a0d6e6066d6cb88d339a01f756110f5845190565b611aeb612e3c565b611af481612e96565b6000611b08611b01612c98565b8390613108565b60000b12611b685760405162461bcd60e51b815260206004820152602760248201527f7061727469616c206c697120726174696f2073686f756c64206265206c657373604482015266207468616e203160c81b6064820152608401610b99565b8051606a81905560408051602081019091528190527f879382899c61e679db091d48ae2646f0021988fe20a18f21e1b856acbc57bb5c90610e4f565b600054610100900460ff1615808015611bc45750600054600160ff909116105b80611bde5750303b158015611bde575060005460ff166001145b611c415760405162461bcd60e51b815260206004820152602e60248201527f496e697469616c697a61626c653a20636f6e747261637420697320616c72656160448201526d191e481a5b9a5d1a585b1a5e995960921b6064820152608401610b99565b6000805460ff191660011790558015611c64576000805461ff0019166101001790555b8915801590611c7257508715155b8015611c7d57508815155b8015611c8857508615155b8015611c9c57506001600160a01b03861615155b8015611cb057506001600160a01b03841615155b611cec5760405162461bcd60e51b815260206004820152600d60248201526c1a5b9d985b1a59081a5b9c1d5d609a1b6044820152606401610b99565b611cf4613455565b6040805160208082018352908c905260748c9055815180820183528b905260758b9055815180820183528b815282519182019092528b8152611d3591612a38565b516076556040805160208082018352908a905260668a905581518082018352849052606584905581519081019091528390526067839055607e879055611d7c60028861436a565b60815561a8c0608355607e54607f556085859055608780546001600160a01b038681166001600160a01b03199283161790925560848054928916929091169190911790556040805160a0810182526074805460808301908152825282516020808201855260758054835281850192835242858701818152436060808901918252608880546001810182556000919091529851516004999099027f7ef464cf5a521d70c933977510816a0355b91a50eca2778837fb82da8448ecf68101999099559551517f7ef464cf5a521d70c933977510816a0355b91a50eca2778837fb82da8448ecf789015590517f7ef464cf5a521d70c933977510816a0355b91a50eca2778837fb82da8448ecf8880155517f7ef464cf5a521d70c933977510816a0355b91a50eca2778837fb82da8448ecf99096019590955585518083018752935493849052855180830187529054908190528551938452908301528184019290925291517f3a3348362552c3897fd1f06a3233519ebd8bd76ad6e99a418a9741155fe905159281900390910190a16040805160208082018352908b9052607c8b905581519081019091528a9052607d8a90558015611f72576000805461ff0019169055604051600181527f7f26b83ff96e1f2b6a682f133852f6798a09c465da95921460cefb38474024989060200160405180910390a15b50505050505050505050565b6040805160208101909152600081528351600003611fb65760408051602080820183526000918290528251908101909252815261143a565b600080866001811115611fcb57611fcb61433e565b149050611fe46040518060200160405280600081525090565b6040805160208101909152600081526040805160208101909152600081528315612019576120128689613087565b9150612026565b61202386896130b2565b91505b815160000361206f5760405162461bcd60e51b8152602060048201526015602482015274062617365206173736574206166746572206973203605c1b6044820152606401610b99565b6040805160208101909152607654815261208e90839061151a90612c02565b925061153461152f8489612dbe565b6000806120a8611543565b905060006120b4825190565b116120f45760405162461bcd60e51b815260206004820152601060248201526f0696e64657820707269636520697320360841b6044820152606401610b99565b60006120fe6115d4565b9050600061211661152f8461151a86610dee87612c02565b905067016345785d8a0000612129825190565b1015935050505090565b61213b612e3c565b608680546001600160a01b0319166001600160a01b0392909216919091179055565b60408051602081019091526000815261217e61184836859003850185613fc6565b6000036121a8576040805160208082018352600091829052825190810190925281525b90506113ff565b60006121b2611543565b905060006121be6115d4565b905060006121d961184884610f6261152f86610dee89612c02565b905060008760018111156121ef576121ef61433e565b84518451106121ff576001612202565b60005b60018111156122135761221361433e565b604080516020810190915260655481529114915086156122f7576040805160208101909152606f54908190521580159061225d57506040805160208101909152606f549081905283115b1561229457811561227e5750604080516020810190915260715481526122f7565b50604080516020810190915260705481526122f7565b6040805160208101909152606c5490819052158015906122c457506040805160208101909152606c549081905283115b156122f75781156122e557506040805160208101909152606e5481526122f7565b506040805160208101909152606d5481525b6123108161230a368b90038b018b613fc6565b90612a38565b9998505050505050505050565b612325612e3c565b8051606781905560408051602081019091528190527f878cd65339a771e627bc9856c713f02fec044bd7607db61e3858f8d56e4ea4f590610e4f565b6123bc6040805160c081018252600060a0820181815282528251602080820185528282528084019190915283518082018552828152838501528351808201855282815260608401528351908101909352825290608082015290565b506040805160c08101825260655460a0820190815281528151602081810184526068548252808301919091528251808201845260695481528284015282518082018452606a54815260608301528251908101909252606b548252608081019190915290565b612429612e3c565b61243281612e96565b8051606881905560408051602081019091528190527fd67453718fc57aad470d91be51568530ed02cc941c846cd9e281dc56b300e95e90610e4f565b608754600160a01b900460ff166124975760405162461bcd60e51b8152600401610b99906142b1565b6086546001600160a01b031633146124c15760405162461bcd60e51b8152600401610b99906142d9565b6124cb83826131df565b516072556124d982826131df565b5160738190556040805160208082018352607254918290528251908101909252908290527fc57b3a3cd4f9b755410fcb52f146d4f7e06805a4bafdf9da9f0ec270a90002c9916110f8565b604080516020810190915260008152608754600160a01b900460ff1661255c5760405162461bcd60e51b8152600401610b99906142b1565b6086546001600160a01b031633146125865760405162461bcd60e51b8152600401610b99906142d9565b61153b8461259936869003860186613fc6565b6125a836869003860186613fc6565b613484565b60408051602081019091526000815260408051602080820183526074548252825190810190925260755482526113ff9185918591611f7e565b6125ee612e3c565b8060000361263e5760405162461bcd60e51b815260206004820152601960248201527f63616e206e6f742073657420696e74657276616c20746f2030000000000000006044820152606401610b99565b607f55565b6040805160208101909152600081526040805160208101909152607c54815260009061266e90612c02565b6040805160208101909152607d54815290915060009061268d90612c02565b9050600061269b8284612c6d565b905060006126a98385612cbc565b905060006126b8610d876115d4565b905060006126c588612c02565b905060006126f66126d9610dbc8688612c6d565b610de26126e9610dbc8888612c6d565b610de8610dbc8789612c6d565b9050612310612708610dbc8686612cbc565b610de2612718610dbc888a612cbc565b610de8612728610dbc888a612cbc565b610de88888612c6d565b60408051602081019091526000815260408051602080820183526074548252825190810190925260755482526113ff9185918591611406565b604080516020810190915260008152604080516020810190915260008152604080516020810190915260008152608754600160a01b900460ff166127c15760405162461bcd60e51b8152600401610b99906142b1565b6086546001600160a01b031633146127eb5760405162461bcd60e51b8152600401610b99906142d9565b60805442101561283d5760405162461bcd60e51b815260206004820152601860248201527f736574746c652066756e64696e6720746f6f206561726c7900000000000000006044820152606401610b99565b612848607f54612904565b9150612852611543565b9050600061286382610dee85612c02565b905061288762015180612881607e54846136a090919063ffffffff16565b9061370b565b93506000608154426128999190614326565b90506000610e10607e546080546128b09190614326565b6128ba919061436a565b6128c690610e10614397565b90508181116128d557816128d7565b805b60805550506040805160208082018352600091829052825190810190925290819052607b55509192909190565b604080516020810190915260008152610fec82613736565b612924612e3c565b6001600160a01b0381166129895760405162461bcd60e51b815260206004820152602660248201527f4f776e61626c653a206e6577206f776e657220697320746865207a65726f206160448201526564647265737360d01b6064820152608401610b99565b6117158161329e565b6040805160208101909152600080825282516129b690670de0b6b3a7640000614397565b905060006003821115612a1957508060006129d260028361436a565b6129dd906001614326565b90505b81811015612a13579050806002816129f8818661436a565b612a029190614326565b612a0c919061436a565b90506129e0565b50612a23565b8115612a23575060015b60408051602081019091529081529392505050565b60408051602081019091526000815260408051602081019091526000815282518451612a639161376f565b81529392505050565b608880544391600091612a81906001906143ec565b81548110612a9157612a91614403565b9060005260206000209060040201905080600301548203612abe5760745481556075546001820155612ba7565b6040805160a081018252607454608082019081528152815160208082018452607554825282019081524292820192835260608201858152608880546001810182556000919091529251517f7ef464cf5a521d70c933977510816a0355b91a50eca2778837fb82da8448ecf66004909402938401559051517f7ef464cf5a521d70c933977510816a0355b91a50eca2778837fb82da8448ecf783015591517f7ef464cf5a521d70c933977510816a0355b91a50eca2778837fb82da8448ecf882015590517f7ef464cf5a521d70c933977510816a0355b91a50eca2778837fb82da8448ecf9909101555b604080516020808201835260745491829052825180820184526075549081905283519283529082015242918101919091527f3a3348362552c3897fd1f06a3233519ebd8bd76ad6e99a418a9741155fe9051590606001610ec2565b6040805160208101909152600081528180600001516001600160ff1b0310156040518060600160405280603381526020016146dd6033913990612c585760405162461bcd60e51b8152600401610b999190614419565b50506040805160208101909152915182525090565b60408051602081019091526000815260408051602081019091526000815282518451612a639161377d565b60408051602081019091526000815260405180602001604052806115cd601261378b565b60408051602081019091526000815260408051602081019091526000815282518451612a639161379b565b604080516020810190915260008082528251612d0b90670de0b6b3a764000061446e565b905060006003821315612a195750806000612d276002836144f3565b612d32906001614521565b90505b81811215612a1357905080600281612d4d81866144f3565b612d579190614521565b612d6191906144f3565b9050612d35565b60408051602081019091526000815260408051602081019091526000815282518451612a63916137a9565b60408051602081019091526000815260408051602081019091526000815282518451612a63916137b5565b6040805160208101909152600081528180600001516001600160ff1b0310156040518060600160405280603381526020016146dd6033913990612e145760405162461bcd60e51b8152600401610b999190614419565b5060408051602081019091526000815283518551612e329190614562565b8152949350505050565b6033546001600160a01b0316331461172a5760405162461bcd60e51b815260206004820181905260248201527f4f776e61626c653a2063616c6c6572206973206e6f7420746865206f776e65726044820152606401610b99565b6000612ea3611b01612c98565b60000b13156117155760405162461bcd60e51b815260206004820152600d60248201526c696e76616c696420726174696f60981b6044820152606401610b99565b6040805160208101909152600081526040805160208101909152600081526088805490600090612f156001846143ec565b81548110612f2557612f25614403565b60009182526020918290206040805160a081018252600490930290910180546080840190815283528151808501835260018201548152938301939093526002830154908201526003909101546060820181905290915043148015612f895750600182115b15612fff576088612f9b6002846143ec565b81548110612fab57612fab614403565b60009182526020918290206040805160a08101825260049093029091018054608084019081528352815180850183526001820154815293830193909352600283015490820152600390910154606082015290505b6020810151815160009161301391906130dd565b604080516020810190915260675481529091506000906130469061303f90613039612c98565b90613087565b8390612a38565b60408051602081019091526067548152909150600090613079906130729061306c612c98565b906130b2565b8490612a38565b919791965090945050505050565b60408051602081019091526000815260408051602081019091526000815282518451612a63916137c1565b60408051602081019091526000815260408051602081019091526000815282518451612a63916137cd565b60408051602081019091526000815260408051602081019091526000815282518451612a63916137d9565b80518251600091101561311d57506001610fec565b8151835110156131305750600019610fec565b50600092915050565b604080516020810190915260008152613150613f24565b600180825260885461316291906143ec565b6020820152604081015186600181111561317e5761317e61433e565b908160018111156131915761319161433e565b9052506040808201805160200187905251018460018111156131b5576131b561433e565b908160018111156131c8576131c861433e565b9052506131d581846137e7565b9695505050505050565b6040805160208101909152600081528180600001516001600160ff1b0310156040518060600160405280603381526020016146dd60339139906132355760405162461bcd60e51b8152600401610b999190614419565b50604080516020810190915260008152613251610dc185612c02565b95945050505050565b60408051602081019091526000815260408051602081019091526000815282516000131561329657825161328f906000614562565b8152610fec565b915182525090565b603380546001600160a01b038381166001600160a01b0319831681179093556040519116919082907f8be0079c531659141344cd1fd0a4f28419497f9722a3daafe3b4186f6b6457e090600090a35050565b6132fc848484846139fc565b60008460018111156133105761331061433e565b036133b0576040805160208101909152607454815261332f9084613087565b516074556040805160208101909152607554815261334d90836130b2565b516075556040805160208101909152607b54815261336b9083612dbe565b51607b55604080516020810190915260795481526133899083613bea565b516079556040805160208101909152607a5481526133a79084613bea565b51607a55613447565b604080516020810190915260745481526133ca90846130b2565b51607455604080516020810190915260755481526133e89083613087565b516075556040805160208101909152607b5481526134069083613bea565b51607b55604080516020810190915260795481526134249083612dbe565b516079556040805160208101909152607a5481526134429084612dbe565b51607a555b61344f612a6c565b50505050565b600054610100900460ff1661347c5760405162461bcd60e51b8152600401610b99906145a1565b61172a613c5e565b60408051602081019091526000815282516000036134bc576040805160208082018352600091829052825190810190925281526121a1565b60018460018111156134d0576134d061433e565b0361354457825160408051602080820183526066548252825190810190925260755482526135019161184891612a38565b10156135445760405162461bcd60e51b81526020600482015260126024820152711bdd995c881d1c98591a5b99c81b1a5b5a5d60721b6044820152606401610b99565b600061355085856125ad565b90506000808660018111156135675761356761433e565b14613573576000613576565b60015b9050613580845190565b156136475760018160018111156135995761359961433e565b036135f5578351825110156135f05760405162461bcd60e51b815260206004820152601d60248201527f4c657373207468616e206d696e696d616c2071756f746520746f6b656e0000006044820152606401610b99565b613647565b8351825111156136475760405162461bcd60e51b815260206004820152601d60248201527f4d6f7265207468616e206d6178696d616c2071756f746520746f6b656e0000006044820152606401610b99565b61365481838760016132f0565b7f0dd4066b1a6ce97fb670c3e4201e908c644193f38cbdaffd0229d7e26da3e5338661367e845190565b875160405161368f939291906143b6565b60405180910390a150949350505050565b604080516020810190915260008152816001600160ff1b0310156040518060600160405280603381526020016146dd60339139906136f15760405162461bcd60e51b8152600401610b999190614419565b5060408051602081019091526000815261153b8484613c8e565b6040805160208101909152600081526040805160208101909152600081528351612a639084906144f3565b60408051602081019091526000815261374d613f24565b60008152608854613760906001906143ec565b60208201526113ff81846137e7565b60006113ff83836012613cb9565b60006113ff83836012613cd8565b6000610fec60ff8316600a6146d0565b60006113ff83836012613cf8565b60006113ff8284614521565b60006113ff8284614562565b60006113ff8284614326565b60006113ff82846143ec565b60006113ff83836012613d0d565b604080516020810190915260008152600061380184613d23565b905082600003613812579050610fec565b600061381e84426143ec565b90506000608886602001518154811061383957613839614403565b60009182526020918290206040805160a0810182526004909302909101805460808401908152835281518085018352600180830154825294840152600281015491830191909152600301546060820152608854909250148061389f575081816040015111155b156138af57829350505050610fec565b604081015160006138c082426143ec565b905060006138ce8683613ec9565b90505b88602001516000036138f4576138e78183613ef4565b9650505050505050610fec565b6001896020015161390591906143ec565b60208a0181905260888054909190811061392157613921614403565b60009182526020918290206040805160a081018252600490930290910180546080840190815283528151808501835260018201548152938301939093526002830154908201526003909101546060820152935061397d89613d23565b9550848460400151116139af576139a86139a161399a87866143ec565b8890613ec9565b8290613087565b90506139f2565b60008460400151846139c191906143ec565b90506139d76139d08883613ec9565b8390613087565b91506139e38184614326565b925084604001519350506138d1565b6123108189613ef4565b6040805160208101909152606754908190521561344f57600080613a1e612ee4565b6040805160208082018352607554825282519081019092526074548252929450909250600091613a4e91906130dd565b90506000613a5c8285613108565b60000b13158015613a7a57506000613a748284613108565b60000b12155b613ad65760405162461bcd60e51b815260206004820152602760248201527f707269636520697320616c7265616479206f76657220666c756374756174696f6044820152661b881b1a5b5a5d60ca1b6064820152608401610b99565b83613be1576000876001811115613aef57613aef61433e565b14613b315760408051602081019091526075548152613b2c90613b129087613087565b60408051602081019091526074548152610f6290896130b2565b613b69565b60408051602081019091526075548152613b6990613b4f90876130b2565b60408051602081019091526074548152610f629089613087565b90506000613b778285613108565b60000b13158015613b9557506000613b8f8284613108565b60000b12155b613be15760405162461bcd60e51b815260206004820152601f60248201527f7072696365206973206f76657220666c756374756174696f6e206c696d6974006044820152606401610b99565b50505050505050565b6040805160208101909152600081528180600001516001600160ff1b0310156040518060600160405280603381526020016146dd6033913990613c405760405162461bcd60e51b8152600401610b999190614419565b5060408051602081019091526000815283518551612e329190614521565b600054610100900460ff16613c855760405162461bcd60e51b8152600401610b99906145a1565b61172a3361329e565b6040805160208101909152600081526040805160208101909152600081528351612a6390849061446e565b6000613cc48261378b565b613cce8486614397565b61153b919061436a565b600082613ce48361378b565b613cee908661446e565b61153b91906144f3565b6000613d038261378b565b613cee848661446e565b600082613d198361378b565b613cce9086614397565b60408051602081019091526000815260006088836020015181548110613d4b57613d4b614403565b600091825260208083206040805160a08101825260049094029091018054608085019081528452815180840183526001820154815292840192909252600282015490830152600301546060820152915083516001811115613dae57613dae61433e565b03613dc357602081015181516113ff916130dd565b600183516001811115613dd857613dd861433e565b03613e8a5760408301516020015151600003613e0e576040805160208082018352600091829052825190810190925281526113ff565b60008360400151604001516001811115613e2a57613e2a61433e565b03613e4c57604083015180516020918201518351928401516113ff9390611406565b60018360400151604001516001811115613e6857613e6861433e565b03613e8a57604083015180516020918201518351928401516113ff9390611f7e565b60405162461bcd60e51b81526020600482015260146024820152733737ba1039bab83837b93a32b21037b83a34b7b760611b6044820152606401610b99565b6040805160208101909152600081526040805160208101909152600081528351612a63908490614397565b6040805160208101909152600081526040805160208101909152600081528351612a6390849061436a565b905290565b6040805160608101909152806000815260200160008152602001613f1f60408051606081019091528060008152602001613f6a6040518060200160405280600081525090565b81526020016000905290565b600060208284031215613f8857600080fd5b6040516020810181811067ffffffffffffffff82111715613fb957634e487b7160e01b600052604160045260246000fd5b6040529135825250919050565b600060208284031215613fd857600080fd5b6113ff8383613f76565b60008060408385031215613ff557600080fd5b613fff8484613f76565b915061400e8460208501613f76565b90509250929050565b80356002811061402657600080fd5b919050565b6000806040838503121561403e57600080fd5b613fff83614017565b60006020828403121561405957600080fd5b5035919050565b60008060006060848603121561407557600080fd5b61407f8585613f76565b925061408e8560208601613f76565b915061409d8560408601613f76565b90509250925092565b600080600080608085870312156140bc57600080fd5b6140c585614017565b93506140d48660208701613f76565b92506140e38660408701613f76565b91506140f28660608701613f76565b905092959194509250565b8035801515811461402657600080fd5b60006020828403121561411f57600080fd5b6113ff826140fd565b6001600160a01b038116811461171557600080fd5b60006020828403121561414f57600080fd5b81356113ff81614128565b60006020828403121561416c57600080fd5b50919050565b6000806000806080858703121561418857600080fd5b61419185614017565b93506141a0866020870161415a565b92506141af866040870161415a565b91506140f2606086016140fd565b60008060008060008060008060006101208a8c0312156141dc57600080fd5b8935985060208a0135975060408a0135965060608a0135955060808a013561420381614128565b945060a08a0135935060c08a013561421a81614128565b8093505060e08a013591506101008a013590509295985092959850929598565b60008060006060848603121561424f57600080fd5b61425884614017565b9250614267856020860161415a565b915061409d604085016140fd565b60008060006060848603121561428a57600080fd5b61429384614017565b92506142a2856020860161415a565b915061409d856040860161415a565b6020808252600e908201526d185b5b481dd85cc818db1bdcd95960921b604082015260600190565b6020808252601a908201527f63616c6c6572206973206e6f7420636f756e7465725061727479000000000000604082015260600190565b634e487b7160e01b600052601160045260246000fd5b6000821982111561433957614339614310565b500190565b634e487b7160e01b600052602160045260246000fd5b634e487b7160e01b600052601260045260246000fd5b60008261437957614379614354565b500490565b60006020828403121561439057600080fd5b5051919050565b60008160001904831182151516156143b1576143b1614310565b500290565b60608101600285106143d857634e487b7160e01b600052602160045260246000fd5b938152602081019290925260409091015290565b6000828210156143fe576143fe614310565b500390565b634e487b7160e01b600052603260045260246000fd5b600060208083528351808285015260005b818110156144465785810183015185820160400152820161442a565b81811115614458576000604083870101525b50601f01601f1916929092016040019392505050565b60006001600160ff1b038184138284138082168684048611161561449457614494614310565b600160ff1b60008712828116878305891216156144b3576144b3614310565b600087129250878205871284841616156144cf576144cf614310565b878505871281841616156144e5576144e5614310565b505050929093029392505050565b60008261450257614502614354565b600160ff1b82146000198414161561451c5761451c614310565b500590565b600080821280156001600160ff1b038490038513161561454357614543614310565b600160ff1b839003841281161561455c5761455c614310565b50500190565b60008083128015600160ff1b85018412161561458057614580614310565b6001600160ff1b038401831381161561459b5761459b614310565b50500390565b6020808252602b908201527f496e697469616c697a61626c653a20636f6e7472616374206973206e6f74206960408201526a6e697469616c697a696e6760a81b606082015260800190565b600181815b8085111561462757816000190482111561460d5761460d614310565b8085161561461a57918102915b93841c93908002906145f1565b509250929050565b60008261463e57506001610fec565b8161464b57506000610fec565b8160018114614661576002811461466b57614687565b6001915050610fec565b60ff84111561467c5761467c614310565b50506001821b610fec565b5060208310610133831016604e8410600b84101617156146aa575081810a610fec565b6146b483836145ec565b80600019048211156146c8576146c8614310565b029392505050565b60006113ff838361462f56fe4d69786564446563696d616c3a2075696e742076616c756520697320626967676572207468616e205f494e543235365f4d4158a26469706673582212202221d25488b4d7df9e5030808c866220c68f3151afcc86d5381444abaa02c73264736f6c634300080d0033",
  "devdoc": {
    "kind": "dev",
    "methods": {
      "calcFee(uint8,(uint256),bool)": {
        "params": {
          "_dirOfQuote": "ADD_TO_AMM for long, REMOVE_FROM_AMM for short",
          "_isOpenPos": "whether is opening a new position",
          "_quoteAssetAmount": "quoteAssetAmount"
        },
        "returns": {
          "fees": "fees to be levied on trade"
        }
      },
      "calcPriceRepegPnl((uint256))": {
        "params": {
          "_repegTo": "price to repeg to"
        },
        "returns": {
          "repegPnl": "total pnl incurred on vault positions after repeg"
        }
      },
      "getIndexPrice()": {
        "returns": {
          "_0": "index price"
        }
      },
      "getInputPrice(uint8,(uint256))": {
        "params": {
          "_dirOfQuote": "ADD_TO_AMM for long, REMOVE_FROM_AMM for short.",
          "_quoteAssetAmount": "quote asset amount"
        },
        "returns": {
          "_0": "base asset amount"
        }
      },
      "getInputTwap(uint8,(uint256))": {
        "params": {
          "_dirOfQuote": "ADD_TO_AMM for long, REMOVE_FROM_AMM for short.",
          "_quoteAssetAmount": "quote asset amount"
        },
        "returns": {
          "_0": "base asset amount"
        }
      },
      "getMarkPrice()": {
        "returns": {
          "_0": "mark price"
        }
      },
      "getOutputPrice(uint8,(uint256))": {
        "params": {
          "_baseAssetAmount": "base asset amount",
          "_dirOfBase": "ADD_TO_AMM for short, REMOVE_FROM_AMM for long, opposite direction from `getInput`."
        },
        "returns": {
          "_0": "quote asset amount"
        }
      },
      "getOutputTwap(uint8,(uint256))": {
        "params": {
          "_baseAssetAmount": "base asset amount",
          "_dirOfBase": "ADD_TO_AMM for short, REMOVE_FROM_AMM for long, opposite direction from `getInputTwap`."
        },
        "returns": {
          "_0": "quote asset amount"
        }
      },
      "getReserves()": {
        "returns": {
          "_0": "(quote asset reserve, base asset reserve)"
        }
      },
      "isOverFluctuationLimit(uint8,(uint256))": {
        "params": {
          "_dirOfBase": "ADD_TO_AMM for closing long, REMOVE_FROM_AMM for closing short"
        }
      },
      "owner()": {
        "details": "Returns the address of the current owner."
      },
      "renounceOwnership()": {
        "details": "Leaves the contract without owner. It will not be possible to call `onlyOwner` functions anymore. Can only be called by the current owner. NOTE: Renouncing ownership will leave the contract without an owner, thereby removing any functionality that is only available to the owner."
      },
      "repegK((uint256))": {
        "details": "only clearing house can call"
      },
      "repegPrice()": {
        "details": "only clearing house can call"
      },
      "setCap((uint256),(uint256))": {
        "details": "only owner can call. assume this will be removes soon once the guarded period has ended. must be set before opening amm",
        "params": {
          "_maxHoldingBaseAsset": "max position size that traders can hold in 18 digits",
          "_openInterestNotionalCap": "open interest cap, denominated in quoteToken"
        }
      },
      "setCounterParty(address)": {
        "details": "only owner can call this function",
        "params": {
          "_counterParty": "address of counter party"
        }
      },
      "setFeeRatio((uint256))": {
        "details": "only owner can call",
        "params": {
          "_feeRatio": "new ratio"
        }
      },
      "setFluctuationLimitRatio((uint256))": {
        "details": "only owner can call this function",
        "params": {
          "_fluctuationLimitRatio": "fluctuation limit rate in 18 digits, 0 means skip the checking"
        }
      },
      "setFundingPeriod(uint256)": {
        "details": "only owner",
        "params": {
          "_fundingPeriod": "new funding period"
        }
      },
      "setInitMarginRatio((uint256))": {
        "details": "only owner can call",
        "params": {
          "_initMarginRatio": "new maintenance margin ratio in 18 digits"
        }
      },
      "setLevel1DynamicFeeSettings((uint256),(uint256),(uint256))": {
        "details": "set threshold as 0 to disable"
      },
      "setLevel2DynamicFeeSettings((uint256),(uint256),(uint256))": {
        "details": "set threshold as 0 to disable"
      },
      "setLiquidationFeeRatio((uint256))": {
        "details": "if margin ratio falls below liquidation fee ratio, entire position is liquidatedonly owner can call",
        "params": {
          "_liquidationFeeRatio": "new ratio"
        }
      },
      "setMaintenanceMarginRatio((uint256))": {
        "details": "only owner can call",
        "params": {
          "_maintenanceMarginRatio": "new maintenance margin ratio in 18 digits"
        }
      },
      "setMarkPriceTwapInterval(uint256)": {
        "details": "only owner can call this function",
        "params": {
          "_interval": "time interval in seconds"
        }
      },
      "setOpen(bool)": {
        "details": "only owner can call this function",
        "params": {
          "_open": "open to trade is true, otherwise is false."
        }
      },
      "setPartialLiquidationRatio((uint256))": {
        "details": "only owner can call",
        "params": {
          "_partialLiquidationRatio": "new ratio"
        }
      },
      "setPriceFeed(address)": {
        "details": "only owner can call",
        "params": {
          "_priceFeed": "new price feed for this AMM"
        }
      },
      "setRepegBufferPeriod(uint256)": {
        "details": "only owner",
        "params": {
          "_repegBufferPeriod": "new repeg buffer period"
        }
      },
      "setTradeLimitRatio((uint256))": {
        "details": "only owner",
        "params": {
          "_tradeLimitRatio": "new ratio"
        }
      },
      "settleFunding()": {
        "details": "only allow to update while reaching `nextFundingTime`",
        "returns": {
          "indexPrice": "of this period in 18 digits",
          "markPrice": "of this period in 18 digits",
          "premiumFraction": "of this period in 18 digits"
        }
      },
      "swapInput(uint8,(uint256),(uint256),bool)": {
        "details": "Only clearingHouse can call this function",
        "params": {
          "_baseAssetAmountLimit": "minimum base asset amount expected to get to prevent front running",
          "_canOverFluctuationLimit": "if tx can go over fluctuation limit once; for partial liquidation",
          "_dirOfQuote": "ADD_TO_AMM for long, REMOVE_FROM_AMM for short",
          "_quoteAssetAmount": "quote asset amount"
        },
        "returns": {
          "_0": "base asset amount"
        }
      },
      "swapOutput(uint8,(uint256),(uint256))": {
        "details": "only clearingHouse can call this function",
        "params": {
          "_baseAssetAmount": "base asset amount",
          "_dirOfBase": "ADD_TO_AMM for short, REMOVE_FROM_AMM for long, opposite direction from swapInput",
          "_quoteAssetAmountLimit": "limit of quote asset amount; for slippage protection"
        },
        "returns": {
          "_0": "quote asset amount"
        }
      },
      "transferOwnership(address)": {
        "details": "Transfers ownership of the contract to a new account (`newOwner`). Can only be called by the current owner."
      }
    },
    "version": 1
  },
  "userdoc": {
    "kind": "user",
    "methods": {
      "calcFee(uint8,(uint256),bool)": {
        "notice": "dynamic fee mechanism (only on open position, not on close) - if trade leaves mark price to be within 2.5% range of index price, then fee percent = 0.3% (standard) - if trade leaves mark price to be over 2.5% range of index price, then fee percent = 1% (surged) - if trade leaves mark price to be over 5.0% range of index price, then fee percent = 5% (surged) - this ensures that traders act towards maintaining pegcalculate fees to be levied on the trade"
      },
      "calcPriceRepegPnl((uint256))": {
        "notice": "calculate repeg pnl"
      },
      "getIndexPrice()": {
        "notice": "get index price provided by oracle"
      },
      "getInputPrice(uint8,(uint256))": {
        "notice": "get input amount. returns how many base asset you will get with the input quote amount."
      },
      "getInputTwap(uint8,(uint256))": {
        "notice": "get input twap amount. returns how many base asset you will get with the input quote amount based on twap price."
      },
      "getMarkPrice()": {
        "notice": "get mark price based on current quote/base asset reserve."
      },
      "getOutputPrice(uint8,(uint256))": {
        "notice": "get output price. return how many quote asset you will get with the input base amount"
      },
      "getOutputTwap(uint8,(uint256))": {
        "notice": "get output twap amount. return how many quote asset you will get with the input base amount on twap price."
      },
      "getRatios()": {
        "notice": "too avoid too many ratio calls in clearing house"
      },
      "getReserves()": {
        "notice": "get current quote/base asset reserve."
      },
      "getTwapPrice(uint256)": {
        "notice": "get twap price"
      },
      "initialize(uint256,uint256,uint256,uint256,address,bytes32,address,uint256,uint256)": {
        "notice": "upgradeable constructor, can only be inited once"
      },
      "isOverFluctuationLimit(uint8,(uint256))": {
        "notice": "check if close trade goes over fluctuation limit"
      },
      "repegK((uint256))": {
        "notice": "adjust liquidity depth"
      },
      "repegPrice()": {
        "notice": "repeg mark price to index price"
      },
      "setCap((uint256),(uint256))": {
        "notice": "set new cap during guarded period, which is max position size that traders can hold"
      },
      "setCounterParty(address)": {
        "notice": "set counter party"
      },
      "setFeeRatio((uint256))": {
        "notice": "set new fee ratio"
      },
      "setFluctuationLimitRatio((uint256))": {
        "notice": "set fluctuation limit rate. Default value is `1 / max leverage`"
      },
      "setFundingPeriod(uint256)": {
        "notice": "set funding period"
      },
      "setInitMarginRatio((uint256))": {
        "notice": "set init margin ratio"
      },
      "setLevel1DynamicFeeSettings((uint256),(uint256),(uint256))": {
        "notice": "Set level 1 dynamic fee settings only owner"
      },
      "setLevel2DynamicFeeSettings((uint256),(uint256),(uint256))": {
        "notice": "Set level 2 dynamic fee settings only owner"
      },
      "setLiquidationFeeRatio((uint256))": {
        "notice": "set liquidation fee ratio"
      },
      "setMaintenanceMarginRatio((uint256))": {
        "notice": "set maintenance margin ratio"
      },
      "setMarkPriceTwapInterval(uint256)": {
        "notice": "set time interval for twap calculation, default is 1 hour"
      },
      "setOpen(bool)": {
        "notice": "set `open` flag. Amm is open to trade if `open` is true. Default is false."
      },
      "setPartialLiquidationRatio((uint256))": {
        "notice": "set the margin ratio after deleveraging"
      },
      "setPriceFeed(address)": {
        "notice": "set priceFeed address"
      },
      "setRepegBufferPeriod(uint256)": {
        "notice": "set repeg buffer period"
      },
      "setTradeLimitRatio((uint256))": {
        "notice": "set new trade limit ratio"
      },
      "settleFunding()": {
        "notice": "update funding rate"
      },
      "swapInput(uint8,(uint256),(uint256),bool)": {
        "notice": "Swap your quote asset to base asset, the impact of the price MUST be less than `fluctuationLimitRatio`"
      },
      "swapOutput(uint8,(uint256),(uint256))": {
        "notice": "swap your base asset to quote asset; NOTE it is only used during close/liquidate positions so it always allows going over fluctuation limit"
      }
    },
    "version": 1
  },
  "storageLayout": {
    "storage": [
      {
        "astId": 2558,
        "contract": "contracts/Amm.sol:Amm",
        "label": "_initialized",
        "offset": 0,
        "slot": "0",
        "type": "t_uint8"
      },
      {
        "astId": 2561,
        "contract": "contracts/Amm.sol:Amm",
        "label": "_initializing",
        "offset": 1,
        "slot": "0",
        "type": "t_bool"
      },
      {
        "astId": 3245,
        "contract": "contracts/Amm.sol:Amm",
        "label": "__gap",
        "offset": 0,
        "slot": "1",
        "type": "t_array(t_uint256)50_storage"
      },
      {
        "astId": 2430,
        "contract": "contracts/Amm.sol:Amm",
        "label": "_owner",
        "offset": 0,
        "slot": "51",
        "type": "t_address"
      },
      {
        "astId": 2550,
        "contract": "contracts/Amm.sol:Amm",
        "label": "__gap",
        "offset": 0,
        "slot": "52",
        "type": "t_array(t_uint256)49_storage"
      },
      {
        "astId": 4359,
        "contract": "contracts/Amm.sol:Amm",
        "label": "feeRatio",
        "offset": 0,
        "slot": "101",
        "type": "t_struct(decimal)14473_storage"
      },
      {
        "astId": 4362,
        "contract": "contracts/Amm.sol:Amm",
        "label": "tradeLimitRatio",
        "offset": 0,
        "slot": "102",
        "type": "t_struct(decimal)14473_storage"
      },
      {
        "astId": 4365,
        "contract": "contracts/Amm.sol:Amm",
        "label": "fluctuationLimitRatio",
        "offset": 0,
        "slot": "103",
        "type": "t_struct(decimal)14473_storage"
      },
      {
        "astId": 4368,
        "contract": "contracts/Amm.sol:Amm",
        "label": "initMarginRatio",
        "offset": 0,
        "slot": "104",
        "type": "t_struct(decimal)14473_storage"
      },
      {
        "astId": 4371,
        "contract": "contracts/Amm.sol:Amm",
        "label": "maintenanceMarginRatio",
        "offset": 0,
        "slot": "105",
        "type": "t_struct(decimal)14473_storage"
      },
      {
        "astId": 4374,
        "contract": "contracts/Amm.sol:Amm",
        "label": "partialLiquidationRatio",
        "offset": 0,
        "slot": "106",
        "type": "t_struct(decimal)14473_storage"
      },
      {
        "astId": 4377,
        "contract": "contracts/Amm.sol:Amm",
        "label": "liquidationFeeRatio",
        "offset": 0,
        "slot": "107",
        "type": "t_struct(decimal)14473_storage"
      },
      {
        "astId": 4380,
        "contract": "contracts/Amm.sol:Amm",
        "label": "level1DynamicFeeSettings",
        "offset": 0,
        "slot": "108",
        "type": "t_struct(DynamicFeeSettings)4348_storage"
      },
      {
        "astId": 4383,
        "contract": "contracts/Amm.sol:Amm",
        "label": "level2DynamicFeeSettings",
        "offset": 0,
        "slot": "111",
        "type": "t_struct(DynamicFeeSettings)4348_storage"
      },
      {
        "astId": 4386,
        "contract": "contracts/Amm.sol:Amm",
        "label": "fundingRate",
        "offset": 0,
        "slot": "114",
        "type": "t_struct(FundingRate)4355_storage"
      },
      {
        "astId": 4389,
        "contract": "contracts/Amm.sol:Amm",
        "label": "quoteAssetReserve",
        "offset": 0,
        "slot": "116",
        "type": "t_struct(decimal)14473_storage"
      },
      {
        "astId": 4392,
        "contract": "contracts/Amm.sol:Amm",
        "label": "baseAssetReserve",
        "offset": 0,
        "slot": "117",
        "type": "t_struct(decimal)14473_storage"
      },
      {
        "astId": 4395,
        "contract": "contracts/Amm.sol:Amm",
        "label": "k",
        "offset": 0,
        "slot": "118",
        "type": "t_struct(decimal)14473_storage"
      },
      {
        "astId": 4398,
        "contract": "contracts/Amm.sol:Amm",
        "label": "maxHoldingBaseAsset",
        "offset": 0,
        "slot": "119",
        "type": "t_struct(decimal)14473_storage"
      },
      {
        "astId": 4401,
        "contract": "contracts/Amm.sol:Amm",
        "label": "openInterestNotionalCap",
        "offset": 0,
        "slot": "120",
        "type": "t_struct(decimal)14473_storage"
      },
      {
        "astId": 4404,
        "contract": "contracts/Amm.sol:Amm",
        "label": "totalPositionSize",
        "offset": 0,
        "slot": "121",
        "type": "t_struct(signedDecimal)15729_storage"
      },
      {
        "astId": 4407,
        "contract": "contracts/Amm.sol:Amm",
        "label": "cumulativeNotional",
        "offset": 0,
        "slot": "122",
        "type": "t_struct(signedDecimal)15729_storage"
      },
      {
        "astId": 4410,
        "contract": "contracts/Amm.sol:Amm",
        "label": "baseAssetDeltaThisFundingPeriod",
        "offset": 0,
        "slot": "123",
        "type": "t_struct(signedDecimal)15729_storage"
      },
      {
        "astId": 4413,
        "contract": "contracts/Amm.sol:Amm",
        "label": "_x0",
        "offset": 0,
        "slot": "124",
        "type": "t_struct(decimal)14473_storage"
      },
      {
        "astId": 4416,
        "contract": "contracts/Amm.sol:Amm",
        "label": "_y0",
        "offset": 0,
        "slot": "125",
        "type": "t_struct(decimal)14473_storage"
      },
      {
        "astId": 4419,
        "contract": "contracts/Amm.sol:Amm",
        "label": "fundingPeriod",
        "offset": 0,
        "slot": "126",
        "type": "t_uint256"
      },
      {
        "astId": 4421,
        "contract": "contracts/Amm.sol:Amm",
        "label": "markPriceTwapInterval",
        "offset": 0,
        "slot": "127",
        "type": "t_uint256"
      },
      {
        "astId": 4423,
        "contract": "contracts/Amm.sol:Amm",
        "label": "nextFundingTime",
        "offset": 0,
        "slot": "128",
        "type": "t_uint256"
      },
      {
        "astId": 4425,
        "contract": "contracts/Amm.sol:Amm",
        "label": "fundingBufferPeriod",
        "offset": 0,
        "slot": "129",
        "type": "t_uint256"
      },
      {
        "astId": 4427,
        "contract": "contracts/Amm.sol:Amm",
        "label": "lastRepegTimestamp",
        "offset": 0,
        "slot": "130",
        "type": "t_uint256"
      },
      {
        "astId": 4429,
        "contract": "contracts/Amm.sol:Amm",
        "label": "repegBufferPeriod",
        "offset": 0,
        "slot": "131",
        "type": "t_uint256"
      },
      {
        "astId": 4432,
        "contract": "contracts/Amm.sol:Amm",
        "label": "priceFeed",
        "offset": 0,
        "slot": "132",
        "type": "t_contract(IPriceFeed)14438"
      },
      {
        "astId": 4434,
        "contract": "contracts/Amm.sol:Amm",
        "label": "priceFeedKey",
        "offset": 0,
        "slot": "133",
        "type": "t_bytes32"
      },
      {
        "astId": 4436,
        "contract": "contracts/Amm.sol:Amm",
        "label": "counterParty",
        "offset": 0,
        "slot": "134",
        "type": "t_address"
      },
      {
        "astId": 4440,
        "contract": "contracts/Amm.sol:Amm",
        "label": "quoteAsset",
        "offset": 0,
        "slot": "135",
        "type": "t_contract(IERC20)3911"
      },
      {
        "astId": 4443,
        "contract": "contracts/Amm.sol:Amm",
        "label": "open",
        "offset": 20,
        "slot": "135",
        "type": "t_bool"
      },
      {
        "astId": 4447,
        "contract": "contracts/Amm.sol:Amm",
        "label": "reserveSnapshots",
        "offset": 0,
        "slot": "136",
        "type": "t_array(t_struct(ReserveSnapshot)4319_storage)dyn_storage"
      }
    ],
    "types": {
      "t_address": {
        "encoding": "inplace",
        "label": "address",
        "numberOfBytes": "20"
      },
      "t_array(t_struct(ReserveSnapshot)4319_storage)dyn_storage": {
        "base": "t_struct(ReserveSnapshot)4319_storage",
        "encoding": "dynamic_array",
        "label": "struct Amm.ReserveSnapshot[]",
        "numberOfBytes": "32"
      },
      "t_array(t_uint256)49_storage": {
        "base": "t_uint256",
        "encoding": "inplace",
        "label": "uint256[49]",
        "numberOfBytes": "1568"
      },
      "t_array(t_uint256)50_storage": {
        "base": "t_uint256",
        "encoding": "inplace",
        "label": "uint256[50]",
        "numberOfBytes": "1600"
      },
      "t_bool": {
        "encoding": "inplace",
        "label": "bool",
        "numberOfBytes": "1"
      },
      "t_bytes32": {
        "encoding": "inplace",
        "label": "bytes32",
        "numberOfBytes": "32"
      },
      "t_contract(IERC20)3911": {
        "encoding": "inplace",
        "label": "contract IERC20",
        "numberOfBytes": "20"
      },
      "t_contract(IPriceFeed)14438": {
        "encoding": "inplace",
        "label": "contract IPriceFeed",
        "numberOfBytes": "20"
      },
      "t_int256": {
        "encoding": "inplace",
        "label": "int256",
        "numberOfBytes": "32"
      },
      "t_struct(DynamicFeeSettings)4348_storage": {
        "encoding": "inplace",
        "label": "struct Amm.DynamicFeeSettings",
        "members": [
          {
            "astId": 4341,
            "contract": "contracts/Amm.sol:Amm",
            "label": "divergenceThresholdRatio",
            "offset": 0,
            "slot": "0",
            "type": "t_struct(decimal)14473_storage"
          },
          {
            "astId": 4344,
            "contract": "contracts/Amm.sol:Amm",
            "label": "feeRatio",
            "offset": 0,
            "slot": "1",
            "type": "t_struct(decimal)14473_storage"
          },
          {
            "astId": 4347,
            "contract": "contracts/Amm.sol:Amm",
            "label": "feeInFavorRatio",
            "offset": 0,
            "slot": "2",
            "type": "t_struct(decimal)14473_storage"
          }
        ],
        "numberOfBytes": "96"
      },
      "t_struct(FundingRate)4355_storage": {
        "encoding": "inplace",
        "label": "struct Amm.FundingRate",
        "members": [
          {
            "astId": 4351,
            "contract": "contracts/Amm.sol:Amm",
            "label": "fundingRateLong",
            "offset": 0,
            "slot": "0",
            "type": "t_struct(signedDecimal)15729_storage"
          },
          {
            "astId": 4354,
            "contract": "contracts/Amm.sol:Amm",
            "label": "fundingRateShort",
            "offset": 0,
            "slot": "1",
            "type": "t_struct(signedDecimal)15729_storage"
          }
        ],
        "numberOfBytes": "64"
      },
      "t_struct(ReserveSnapshot)4319_storage": {
        "encoding": "inplace",
        "label": "struct Amm.ReserveSnapshot",
        "members": [
          {
            "astId": 4311,
            "contract": "contracts/Amm.sol:Amm",
            "label": "quoteAssetReserve",
            "offset": 0,
            "slot": "0",
            "type": "t_struct(decimal)14473_storage"
          },
          {
            "astId": 4314,
            "contract": "contracts/Amm.sol:Amm",
            "label": "baseAssetReserve",
            "offset": 0,
            "slot": "1",
            "type": "t_struct(decimal)14473_storage"
          },
          {
            "astId": 4316,
            "contract": "contracts/Amm.sol:Amm",
            "label": "timestamp",
            "offset": 0,
            "slot": "2",
            "type": "t_uint256"
          },
          {
            "astId": 4318,
            "contract": "contracts/Amm.sol:Amm",
            "label": "blockNumber",
            "offset": 0,
            "slot": "3",
            "type": "t_uint256"
          }
        ],
        "numberOfBytes": "128"
      },
      "t_struct(decimal)14473_storage": {
        "encoding": "inplace",
        "label": "struct Decimal.decimal",
        "members": [
          {
            "astId": 14472,
            "contract": "contracts/Amm.sol:Amm",
            "label": "d",
            "offset": 0,
            "slot": "0",
            "type": "t_uint256"
          }
        ],
        "numberOfBytes": "32"
      },
      "t_struct(signedDecimal)15729_storage": {
        "encoding": "inplace",
        "label": "struct SignedDecimal.signedDecimal",
        "members": [
          {
            "astId": 15728,
            "contract": "contracts/Amm.sol:Amm",
            "label": "d",
            "offset": 0,
            "slot": "0",
            "type": "t_int256"
          }
        ],
        "numberOfBytes": "32"
      },
      "t_uint256": {
        "encoding": "inplace",
        "label": "uint256",
        "numberOfBytes": "32"
      },
      "t_uint8": {
        "encoding": "inplace",
        "label": "uint8",
        "numberOfBytes": "1"
      }
    }
  }
}