{
  "address": "0x493bd2c446A6aDd2a922e712d05F73A9df6CA980",
  "abi": [
    {
      "anonymous": false,
      "inputs": [
        {
          "indexed": false,
          "internalType": "uint8",
          "name": "version",
          "type": "uint8"
        }
      ],
      "name": "Initialized",
      "type": "event"
    },
    {
      "anonymous": false,
      "inputs": [
        {
          "indexed": true,
          "internalType": "address",
          "name": "previousOwner",
          "type": "address"
        },
        {
          "indexed": true,
          "internalType": "address",
          "name": "newOwner",
          "type": "address"
        }
      ],
      "name": "OwnershipTransferred",
      "type": "event"
    },
    {
      "inputs": [
        {
          "internalType": "bytes32",
          "name": "_priceFeedKey",
          "type": "bytes32"
        },
        {
          "internalType": "address",
          "name": "_aggregator",
          "type": "address"
        }
      ],
      "name": "addAggregator",
      "outputs": [],
      "stateMutability": "nonpayable",
      "type": "function"
    },
    {
      "inputs": [
        {
          "internalType": "bytes32",
          "name": "_priceFeedKey",
          "type": "bytes32"
        }
      ],
      "name": "getAggregator",
      "outputs": [
        {
          "internalType": "contract AggregatorV3Interface",
          "name": "",
          "type": "address"
        }
      ],
      "stateMutability": "view",
      "type": "function"
    },
    {
      "inputs": [
        {
          "internalType": "bytes32",
          "name": "_priceFeedKey",
          "type": "bytes32"
        }
      ],
      "name": "getPrice",
      "outputs": [
        {
          "internalType": "uint256",
          "name": "",
          "type": "uint256"
        }
      ],
      "stateMutability": "view",
      "type": "function"
    },
    {
      "inputs": [],
      "name": "initialize",
      "outputs": [],
      "stateMutability": "nonpayable",
      "type": "function"
    },
    {
      "inputs": [],
      "name": "owner",
      "outputs": [
        {
          "internalType": "address",
          "name": "",
          "type": "address"
        }
      ],
      "stateMutability": "view",
      "type": "function"
    },
    {
      "inputs": [
        {
          "internalType": "bytes32",
          "name": "",
          "type": "bytes32"
        }
      ],
      "name": "priceFeedDecimalMap",
      "outputs": [
        {
          "internalType": "uint8",
          "name": "",
          "type": "uint8"
        }
      ],
      "stateMutability": "view",
      "type": "function"
    },
    {
      "inputs": [
        {
          "internalType": "uint256",
          "name": "",
          "type": "uint256"
        }
      ],
      "name": "priceFeedKeys",
      "outputs": [
        {
          "internalType": "bytes32",
          "name": "",
          "type": "bytes32"
        }
      ],
      "stateMutability": "view",
      "type": "function"
    },
    {
      "inputs": [
        {
          "internalType": "bytes32",
          "name": "",
          "type": "bytes32"
        }
      ],
      "name": "priceFeedMap",
      "outputs": [
        {
          "internalType": "contract AggregatorV3Interface",
          "name": "",
          "type": "address"
        }
      ],
      "stateMutability": "view",
      "type": "function"
    },
    {
      "inputs": [
        {
          "internalType": "bytes32",
          "name": "_priceFeedKey",
          "type": "bytes32"
        }
      ],
      "name": "removeAggregator",
      "outputs": [],
      "stateMutability": "nonpayable",
      "type": "function"
    },
    {
      "inputs": [],
      "name": "renounceOwnership",
      "outputs": [],
      "stateMutability": "nonpayable",
      "type": "function"
    },
    {
      "inputs": [
        {
          "internalType": "address",
          "name": "newOwner",
          "type": "address"
        }
      ],
      "name": "transferOwnership",
      "outputs": [],
      "stateMutability": "nonpayable",
      "type": "function"
    }
  ],
  "transactionHash": "0x5187c1dea64e11cefd0d40085ace94b054cef9e1b439dd907e1e2c9c43596fb2",
  "args": [],
  "numDeployments": 1,
  "solcInputHash": "c69ce91694fafa3e2985b51488ae5dc1",
  "bytecode": "0x608060405234801561001057600080fd5b50610d57806100206000396000f3fe608060405234801561001057600080fd5b50600436106100a95760003560e01c80633f0e084f116100715780633f0e084f146101665780636d4b858514610179578063715018a6146101ae5780638129fc1c146101b65780638da5cb5b146101be578063f2fde38b146101cf57600080fd5b8063250742cc146100ae5780632a0ab1dd146100f45780632bed9e0c1461011557806331d98b3f1461012a578063331b18161461013d575b600080fd5b6100d76100bc3660046109fe565b6097602052600090815260409020546001600160a01b031681565b6040516001600160a01b0390911681526020015b60405180910390f35b6101076101023660046109fe565b6101e2565b6040519081526020016100eb565b6101286101233660046109fe565b610203565b005b6101076101383660046109fe565b610327565b6100d761014b3660046109fe565b6000908152609760205260409020546001600160a01b031690565b610128610174366004610a33565b61037d565b61019c6101873660046109fe565b60996020526000908152604090205460ff1681565b60405160ff90911681526020016100eb565b61012861048d565b6101286104a1565b6033546001600160a01b03166100d7565b6101286101dd366004610a5f565b6105b7565b609881815481106101f257600080fd5b600091825260209091200154905081565b61020b61062d565b60008181526097602052604090205461022c906001600160a01b0316610687565b600081815260976020908152604080832080546001600160a01b031916905560999091528120805460ff19169055609854905b8181101561032257826098828154811061027b5761027b610a7a565b90600052602060002001540361031057610296600183610aa6565b81146102e45760986102a9600184610aa6565b815481106102b9576102b9610a7a565b9060005260206000200154609882815481106102d7576102d7610a7a565b6000918252602090912001555b60988054806102f5576102f5610abd565b60019003818190600052602060002001600090559055505050565b8061031a81610ad3565b91505061025f565b505050565b6000818152609760205260408120546001600160a01b031661034881610687565b6000610353826106cd565b506000868152609960205260409020549092506103759150829060ff1661077e565b949350505050565b61038561062d565b61038e81610687565b6000828152609760205260409020546001600160a01b03166103e057609880546001810182556000919091527f2237a976fa961f5921fd19f2b03c925c725d77b20ce8f790c19709c03de4d814018290555b60008281526097602090815260409182902080546001600160a01b0319166001600160a01b038516908117909155825163313ce56760e01b81529251909263313ce5679260048083019391928290030181865afa158015610445573d6000803e3d6000fd5b505050506040513d601f19601f820116820180604052508101906104699190610aec565b600092835260996020526040909220805460ff191660ff9093169290921790915550565b61049561062d565b61049f60006107b2565b565b600054610100900460ff16158080156104c15750600054600160ff909116105b806104db5750303b1580156104db575060005460ff166001145b6105435760405162461bcd60e51b815260206004820152602e60248201527f496e697469616c697a61626c653a20636f6e747261637420697320616c72656160448201526d191e481a5b9a5d1a585b1a5e995960921b60648201526084015b60405180910390fd5b6000805460ff191660011790558015610566576000805461ff0019166101001790555b61056e610804565b80156105b4576000805461ff0019169055604051600181527f7f26b83ff96e1f2b6a682f133852f6798a09c465da95921460cefb38474024989060200160405180910390a15b50565b6105bf61062d565b6001600160a01b0381166106245760405162461bcd60e51b815260206004820152602660248201527f4f776e61626c653a206e6577206f776e657220697320746865207a65726f206160448201526564647265737360d01b606482015260840161053a565b6105b4816107b2565b6033546001600160a01b0316331461049f5760405162461bcd60e51b815260206004820181905260248201527f4f776e61626c653a2063616c6c6572206973206e6f7420746865206f776e6572604482015260640161053a565b6001600160a01b0381166105b45760405162461bcd60e51b815260206004820152600d60248201526c656d707479206164647265737360981b604482015260640161053a565b600080600080600080866001600160a01b031663feaf968c6040518163ffffffff1660e01b815260040160a060405180830381865afa158015610714573d6000803e3d6000fd5b505050506040513d601f19601f820116820180604052508101906107389190610b2d565b509350509250925081945060008212156107725761075583610833565b61076987610764600186610b7d565b610881565b90965090935090505b91969395509093505050565b60006107a961079160ff8416600a610c89565b6107a385670de0b6b3a76400006109b6565b906109c2565b90505b92915050565b603380546001600160a01b038381166001600160a01b0319831681179093556040519116919082907f8be0079c531659141344cd1fd0a4f28419497f9722a3daafe3b4186f6b6457e090600090a35050565b600054610100900460ff1661082b5760405162461bcd60e51b815260040161053a90610c95565b61049f6109ce565b6000816001600160501b0316116105b45760405162461bcd60e51b81526020600482015260126024820152714e6f7420656e6f75676820686973746f727960701b604482015260640161053a565b604051639a6fc8f560e01b81526001600160501b0382166004820152600090819081908190819081906001600160a01b03891690639a6fc8f59060240160a060405180830381865afa1580156108db573d6000803e3d6000fd5b505050506040513d601f19601f820116820180604052508101906108ff9190610b2d565b50935050925092505b60008212156109a85761091a83610833565b610925600184610b7d565b604051639a6fc8f560e01b81526001600160501b03821660048201529093506001600160a01b03891690639a6fc8f59060240160a060405180830381865afa158015610975573d6000803e3d6000fd5b505050506040513d601f19601f820116820180604052508101906109999190610b2d565b50919450909250610908915050565b919450925090509250925092565b60006107a98284610ce0565b60006107a98284610cff565b600054610100900460ff166109f55760405162461bcd60e51b815260040161053a90610c95565b61049f336107b2565b600060208284031215610a1057600080fd5b5035919050565b80356001600160a01b0381168114610a2e57600080fd5b919050565b60008060408385031215610a4657600080fd5b82359150610a5660208401610a17565b90509250929050565b600060208284031215610a7157600080fd5b6107a982610a17565b634e487b7160e01b600052603260045260246000fd5b634e487b7160e01b600052601160045260246000fd5b600082821015610ab857610ab8610a90565b500390565b634e487b7160e01b600052603160045260246000fd5b600060018201610ae557610ae5610a90565b5060010190565b600060208284031215610afe57600080fd5b815160ff81168114610b0f57600080fd5b9392505050565b80516001600160501b0381168114610a2e57600080fd5b600080600080600060a08688031215610b4557600080fd5b610b4e86610b16565b9450602086015193506040860151925060608601519150610b7160808701610b16565b90509295509295909350565b60006001600160501b0383811690831681811015610b9d57610b9d610a90565b039392505050565b600181815b80851115610be0578160001904821115610bc657610bc6610a90565b80851615610bd357918102915b93841c9390800290610baa565b509250929050565b600082610bf7575060016107ac565b81610c04575060006107ac565b8160018114610c1a5760028114610c2457610c40565b60019150506107ac565b60ff841115610c3557610c35610a90565b50506001821b6107ac565b5060208310610133831016604e8410600b8410161715610c63575081810a6107ac565b610c6d8383610ba5565b8060001904821115610c8157610c81610a90565b029392505050565b60006107a98383610be8565b6020808252602b908201527f496e697469616c697a61626c653a20636f6e7472616374206973206e6f74206960408201526a6e697469616c697a696e6760a81b606082015260800190565b6000816000190483118215151615610cfa57610cfa610a90565b500290565b600082610d1c57634e487b7160e01b600052601260045260246000fd5b50049056fea26469706673582212207f568affe12d718d9f36cdef22adcec5a9d322da3223e6a995d3663db4a0681264736f6c634300080d0033",
  "devdoc": {
    "kind": "dev",
    "methods": {
      "owner()": {
        "details": "Returns the address of the current owner."
      },
      "renounceOwnership()": {
        "details": "Leaves the contract without owner. It will not be possible to call `onlyOwner` functions anymore. Can only be called by the current owner. NOTE: Renouncing ownership will leave the contract without an owner, thereby removing any functionality that is only available to the owner."
      },
      "transferOwnership(address)": {
        "details": "Transfers ownership of the contract to a new account (`newOwner`). Can only be called by the current owner."
      }
    },
    "version": 1
  },
  "userdoc": {
    "kind": "user",
    "methods": {},
    "version": 1
  },
  "storageLayout": {
    "storage": [
      {
        "astId": 2558,
        "contract": "contracts/ChainlinkPriceFeed.sol:ChainlinkPriceFeed",
        "label": "_initialized",
        "offset": 0,
        "slot": "0",
        "type": "t_uint8"
      },
      {
        "astId": 2561,
        "contract": "contracts/ChainlinkPriceFeed.sol:ChainlinkPriceFeed",
        "label": "_initializing",
        "offset": 1,
        "slot": "0",
        "type": "t_bool"
      },
      {
        "astId": 3245,
        "contract": "contracts/ChainlinkPriceFeed.sol:ChainlinkPriceFeed",
        "label": "__gap",
        "offset": 0,
        "slot": "1",
        "type": "t_array(t_uint256)50_storage"
      },
      {
        "astId": 2430,
        "contract": "contracts/ChainlinkPriceFeed.sol:ChainlinkPriceFeed",
        "label": "_owner",
        "offset": 0,
        "slot": "51",
        "type": "t_address"
      },
      {
        "astId": 2550,
        "contract": "contracts/ChainlinkPriceFeed.sol:ChainlinkPriceFeed",
        "label": "__gap",
        "offset": 0,
        "slot": "52",
        "type": "t_array(t_uint256)49_storage"
      },
      {
        "astId": 14444,
        "contract": "contracts/ChainlinkPriceFeed.sol:ChainlinkPriceFeed",
        "label": "__gap",
        "offset": 0,
        "slot": "101",
        "type": "t_array(t_uint256)50_storage"
      },
      {
        "astId": 7642,
        "contract": "contracts/ChainlinkPriceFeed.sol:ChainlinkPriceFeed",
        "label": "priceFeedMap",
        "offset": 0,
        "slot": "151",
        "type": "t_mapping(t_bytes32,t_contract(AggregatorV3Interface)1089)"
      },
      {
        "astId": 7645,
        "contract": "contracts/ChainlinkPriceFeed.sol:ChainlinkPriceFeed",
        "label": "priceFeedKeys",
        "offset": 0,
        "slot": "152",
        "type": "t_array(t_bytes32)dyn_storage"
      },
      {
        "astId": 7649,
        "contract": "contracts/ChainlinkPriceFeed.sol:ChainlinkPriceFeed",
        "label": "priceFeedDecimalMap",
        "offset": 0,
        "slot": "153",
        "type": "t_mapping(t_bytes32,t_uint8)"
      },
      {
        "astId": 7653,
        "contract": "contracts/ChainlinkPriceFeed.sol:ChainlinkPriceFeed",
        "label": "__gap",
        "offset": 0,
        "slot": "154",
        "type": "t_array(t_uint256)50_storage"
      }
    ],
    "types": {
      "t_address": {
        "encoding": "inplace",
        "label": "address",
        "numberOfBytes": "20"
      },
      "t_array(t_bytes32)dyn_storage": {
        "base": "t_bytes32",
        "encoding": "dynamic_array",
        "label": "bytes32[]",
        "numberOfBytes": "32"
      },
      "t_array(t_uint256)49_storage": {
        "base": "t_uint256",
        "encoding": "inplace",
        "label": "uint256[49]",
        "numberOfBytes": "1568"
      },
      "t_array(t_uint256)50_storage": {
        "base": "t_uint256",
        "encoding": "inplace",
        "label": "uint256[50]",
        "numberOfBytes": "1600"
      },
      "t_bool": {
        "encoding": "inplace",
        "label": "bool",
        "numberOfBytes": "1"
      },
      "t_bytes32": {
        "encoding": "inplace",
        "label": "bytes32",
        "numberOfBytes": "32"
      },
      "t_contract(AggregatorV3Interface)1089": {
        "encoding": "inplace",
        "label": "contract AggregatorV3Interface",
        "numberOfBytes": "20"
      },
      "t_mapping(t_bytes32,t_contract(AggregatorV3Interface)1089)": {
        "encoding": "mapping",
        "key": "t_bytes32",
        "label": "mapping(bytes32 => contract AggregatorV3Interface)",
        "numberOfBytes": "32",
        "value": "t_contract(AggregatorV3Interface)1089"
      },
      "t_mapping(t_bytes32,t_uint8)": {
        "encoding": "mapping",
        "key": "t_bytes32",
        "label": "mapping(bytes32 => uint8)",
        "numberOfBytes": "32",
        "value": "t_uint8"
      },
      "t_uint256": {
        "encoding": "inplace",
        "label": "uint256",
        "numberOfBytes": "32"
      },
      "t_uint8": {
        "encoding": "inplace",
        "label": "uint8",
        "numberOfBytes": "1"
      }
    }
  }
}