{
  "address": "0xb8749b03A0050377D06cBE5989A2674693467293",
  "abi": [
    {
      "inputs": [
        {
          "internalType": "address",
          "name": "_link",
          "type": "address"
        },
        {
          "internalType": "uint128",
          "name": "_paymentAmount",
          "type": "uint128"
        },
        {
          "internalType": "uint32",
          "name": "_timeout",
          "type": "uint32"
        },
        {
          "internalType": "address",
          "name": "_validator",
          "type": "address"
        },
        {
          "internalType": "int256",
          "name": "_minSubmissionValue",
          "type": "int256"
        },
        {
          "internalType": "int256",
          "name": "_maxSubmissionValue",
          "type": "int256"
        },
        {
          "internalType": "uint8",
          "name": "_decimals",
          "type": "uint8"
        },
        {
          "internalType": "string",
          "name": "_description",
          "type": "string"
        }
      ],
      "stateMutability": "nonpayable",
      "type": "constructor"
    },
    {
      "anonymous": false,
      "inputs": [
        {
          "indexed": true,
          "internalType": "int256",
          "name": "current",
          "type": "int256"
        },
        {
          "indexed": true,
          "internalType": "uint256",
          "name": "roundId",
          "type": "uint256"
        },
        {
          "indexed": false,
          "internalType": "uint256",
          "name": "updatedAt",
          "type": "uint256"
        }
      ],
      "name": "AnswerUpdated",
      "type": "event"
    },
    {
      "anonymous": false,
      "inputs": [
        {
          "indexed": true,
          "internalType": "uint256",
          "name": "amount",
          "type": "uint256"
        }
      ],
      "name": "AvailableFundsUpdated",
      "type": "event"
    },
    {
      "anonymous": false,
      "inputs": [
        {
          "indexed": true,
          "internalType": "uint256",
          "name": "roundId",
          "type": "uint256"
        },
        {
          "indexed": true,
          "internalType": "address",
          "name": "startedBy",
          "type": "address"
        },
        {
          "indexed": false,
          "internalType": "uint256",
          "name": "startedAt",
          "type": "uint256"
        }
      ],
      "name": "NewRound",
      "type": "event"
    },
    {
      "anonymous": false,
      "inputs": [
        {
          "indexed": true,
          "internalType": "address",
          "name": "oracle",
          "type": "address"
        },
        {
          "indexed": false,
          "internalType": "address",
          "name": "admin",
          "type": "address"
        },
        {
          "indexed": false,
          "internalType": "address",
          "name": "newAdmin",
          "type": "address"
        }
      ],
      "name": "OracleAdminUpdateRequested",
      "type": "event"
    },
    {
      "anonymous": false,
      "inputs": [
        {
          "indexed": true,
          "internalType": "address",
          "name": "oracle",
          "type": "address"
        },
        {
          "indexed": true,
          "internalType": "address",
          "name": "newAdmin",
          "type": "address"
        }
      ],
      "name": "OracleAdminUpdated",
      "type": "event"
    },
    {
      "anonymous": false,
      "inputs": [
        {
          "indexed": true,
          "internalType": "address",
          "name": "oracle",
          "type": "address"
        },
        {
          "indexed": true,
          "internalType": "bool",
          "name": "whitelisted",
          "type": "bool"
        }
      ],
      "name": "OraclePermissionsUpdated",
      "type": "event"
    },
    {
      "anonymous": false,
      "inputs": [
        {
          "indexed": true,
          "internalType": "address",
          "name": "from",
          "type": "address"
        },
        {
          "indexed": true,
          "internalType": "address",
          "name": "to",
          "type": "address"
        }
      ],
      "name": "OwnershipTransferRequested",
      "type": "event"
    },
    {
      "anonymous": false,
      "inputs": [
        {
          "indexed": true,
          "internalType": "address",
          "name": "from",
          "type": "address"
        },
        {
          "indexed": true,
          "internalType": "address",
          "name": "to",
          "type": "address"
        }
      ],
      "name": "OwnershipTransferred",
      "type": "event"
    },
    {
      "anonymous": false,
      "inputs": [
        {
          "indexed": true,
          "internalType": "address",
          "name": "requester",
          "type": "address"
        },
        {
          "indexed": false,
          "internalType": "bool",
          "name": "authorized",
          "type": "bool"
        },
        {
          "indexed": false,
          "internalType": "uint32",
          "name": "delay",
          "type": "uint32"
        }
      ],
      "name": "RequesterPermissionsSet",
      "type": "event"
    },
    {
      "anonymous": false,
      "inputs": [
        {
          "indexed": true,
          "internalType": "uint128",
          "name": "paymentAmount",
          "type": "uint128"
        },
        {
          "indexed": true,
          "internalType": "uint32",
          "name": "minSubmissionCount",
          "type": "uint32"
        },
        {
          "indexed": true,
          "internalType": "uint32",
          "name": "maxSubmissionCount",
          "type": "uint32"
        },
        {
          "indexed": false,
          "internalType": "uint32",
          "name": "restartDelay",
          "type": "uint32"
        },
        {
          "indexed": false,
          "internalType": "uint32",
          "name": "timeout",
          "type": "uint32"
        }
      ],
      "name": "RoundDetailsUpdated",
      "type": "event"
    },
    {
      "anonymous": false,
      "inputs": [
        {
          "indexed": true,
          "internalType": "int256",
          "name": "submission",
          "type": "int256"
        },
        {
          "indexed": true,
          "internalType": "uint32",
          "name": "round",
          "type": "uint32"
        },
        {
          "indexed": true,
          "internalType": "address",
          "name": "oracle",
          "type": "address"
        }
      ],
      "name": "SubmissionReceived",
      "type": "event"
    },
    {
      "anonymous": false,
      "inputs": [
        {
          "indexed": true,
          "internalType": "address",
          "name": "previous",
          "type": "address"
        },
        {
          "indexed": true,
          "internalType": "address",
          "name": "current",
          "type": "address"
        }
      ],
      "name": "ValidatorUpdated",
      "type": "event"
    },
    {
      "inputs": [
        {
          "internalType": "address",
          "name": "_oracle",
          "type": "address"
        }
      ],
      "name": "acceptAdmin",
      "outputs": [],
      "stateMutability": "nonpayable",
      "type": "function"
    },
    {
      "inputs": [],
      "name": "acceptOwnership",
      "outputs": [],
      "stateMutability": "nonpayable",
      "type": "function"
    },
    {
      "inputs": [],
      "name": "allocatedFunds",
      "outputs": [
        {
          "internalType": "uint128",
          "name": "",
          "type": "uint128"
        }
      ],
      "stateMutability": "view",
      "type": "function"
    },
    {
      "inputs": [],
      "name": "availableFunds",
      "outputs": [
        {
          "internalType": "uint128",
          "name": "",
          "type": "uint128"
        }
      ],
      "stateMutability": "view",
      "type": "function"
    },
    {
      "inputs": [
        {
          "internalType": "address[]",
          "name": "_removed",
          "type": "address[]"
        },
        {
          "internalType": "address[]",
          "name": "_added",
          "type": "address[]"
        },
        {
          "internalType": "address[]",
          "name": "_addedAdmins",
          "type": "address[]"
        },
        {
          "internalType": "uint32",
          "name": "_minSubmissions",
          "type": "uint32"
        },
        {
          "internalType": "uint32",
          "name": "_maxSubmissions",
          "type": "uint32"
        },
        {
          "internalType": "uint32",
          "name": "_restartDelay",
          "type": "uint32"
        }
      ],
      "name": "changeOracles",
      "outputs": [],
      "stateMutability": "nonpayable",
      "type": "function"
    },
    {
      "inputs": [],
      "name": "decimals",
      "outputs": [
        {
          "internalType": "uint8",
          "name": "",
          "type": "uint8"
        }
      ],
      "stateMutability": "view",
      "type": "function"
    },
    {
      "inputs": [],
      "name": "description",
      "outputs": [
        {
          "internalType": "string",
          "name": "",
          "type": "string"
        }
      ],
      "stateMutability": "view",
      "type": "function"
    },
    {
      "inputs": [
        {
          "internalType": "address",
          "name": "_oracle",
          "type": "address"
        }
      ],
      "name": "getAdmin",
      "outputs": [
        {
          "internalType": "address",
          "name": "",
          "type": "address"
        }
      ],
      "stateMutability": "view",
      "type": "function"
    },
    {
      "inputs": [
        {
          "internalType": "uint256",
          "name": "_roundId",
          "type": "uint256"
        }
      ],
      "name": "getAnswer",
      "outputs": [
        {
          "internalType": "int256",
          "name": "",
          "type": "int256"
        }
      ],
      "stateMutability": "view",
      "type": "function"
    },
    {
      "inputs": [],
      "name": "getOracles",
      "outputs": [
        {
          "internalType": "address[]",
          "name": "",
          "type": "address[]"
        }
      ],
      "stateMutability": "view",
      "type": "function"
    },
    {
      "inputs": [
        {
          "internalType": "uint80",
          "name": "_roundId",
          "type": "uint80"
        }
      ],
      "name": "getRoundData",
      "outputs": [
        {
          "internalType": "uint80",
          "name": "roundId",
          "type": "uint80"
        },
        {
          "internalType": "int256",
          "name": "answer",
          "type": "int256"
        },
        {
          "internalType": "uint256",
          "name": "startedAt",
          "type": "uint256"
        },
        {
          "internalType": "uint256",
          "name": "updatedAt",
          "type": "uint256"
        },
        {
          "internalType": "uint80",
          "name": "answeredInRound",
          "type": "uint80"
        }
      ],
      "stateMutability": "view",
      "type": "function"
    },
    {
      "inputs": [
        {
          "internalType": "uint256",
          "name": "_roundId",
          "type": "uint256"
        }
      ],
      "name": "getTimestamp",
      "outputs": [
        {
          "internalType": "uint256",
          "name": "",
          "type": "uint256"
        }
      ],
      "stateMutability": "view",
      "type": "function"
    },
    {
      "inputs": [],
      "name": "latestAnswer",
      "outputs": [
        {
          "internalType": "int256",
          "name": "",
          "type": "int256"
        }
      ],
      "stateMutability": "view",
      "type": "function"
    },
    {
      "inputs": [],
      "name": "latestRound",
      "outputs": [
        {
          "internalType": "uint256",
          "name": "",
          "type": "uint256"
        }
      ],
      "stateMutability": "view",
      "type": "function"
    },
    {
      "inputs": [],
      "name": "latestRoundData",
      "outputs": [
        {
          "internalType": "uint80",
          "name": "roundId",
          "type": "uint80"
        },
        {
          "internalType": "int256",
          "name": "answer",
          "type": "int256"
        },
        {
          "internalType": "uint256",
          "name": "startedAt",
          "type": "uint256"
        },
        {
          "internalType": "uint256",
          "name": "updatedAt",
          "type": "uint256"
        },
        {
          "internalType": "uint80",
          "name": "answeredInRound",
          "type": "uint80"
        }
      ],
      "stateMutability": "view",
      "type": "function"
    },
    {
      "inputs": [],
      "name": "latestTimestamp",
      "outputs": [
        {
          "internalType": "uint256",
          "name": "",
          "type": "uint256"
        }
      ],
      "stateMutability": "view",
      "type": "function"
    },
    {
      "inputs": [],
      "name": "linkToken",
      "outputs": [
        {
          "internalType": "contract LinkTokenInterface",
          "name": "",
          "type": "address"
        }
      ],
      "stateMutability": "view",
      "type": "function"
    },
    {
      "inputs": [],
      "name": "maxSubmissionCount",
      "outputs": [
        {
          "internalType": "uint32",
          "name": "",
          "type": "uint32"
        }
      ],
      "stateMutability": "view",
      "type": "function"
    },
    {
      "inputs": [],
      "name": "maxSubmissionValue",
      "outputs": [
        {
          "internalType": "int256",
          "name": "",
          "type": "int256"
        }
      ],
      "stateMutability": "view",
      "type": "function"
    },
    {
      "inputs": [],
      "name": "minSubmissionCount",
      "outputs": [
        {
          "internalType": "uint32",
          "name": "",
          "type": "uint32"
        }
      ],
      "stateMutability": "view",
      "type": "function"
    },
    {
      "inputs": [],
      "name": "minSubmissionValue",
      "outputs": [
        {
          "internalType": "int256",
          "name": "",
          "type": "int256"
        }
      ],
      "stateMutability": "view",
      "type": "function"
    },
    {
      "inputs": [
        {
          "internalType": "address",
          "name": "",
          "type": "address"
        },
        {
          "internalType": "uint256",
          "name": "",
          "type": "uint256"
        },
        {
          "internalType": "bytes",
          "name": "_data",
          "type": "bytes"
        }
      ],
      "name": "onTokenTransfer",
      "outputs": [],
      "stateMutability": "nonpayable",
      "type": "function"
    },
    {
      "inputs": [],
      "name": "oracleCount",
      "outputs": [
        {
          "internalType": "uint8",
          "name": "",
          "type": "uint8"
        }
      ],
      "stateMutability": "view",
      "type": "function"
    },
    {
      "inputs": [
        {
          "internalType": "address",
          "name": "_oracle",
          "type": "address"
        },
        {
          "internalType": "uint32",
          "name": "_queriedRoundId",
          "type": "uint32"
        }
      ],
      "name": "oracleRoundState",
      "outputs": [
        {
          "internalType": "bool",
          "name": "_eligibleToSubmit",
          "type": "bool"
        },
        {
          "internalType": "uint32",
          "name": "_roundId",
          "type": "uint32"
        },
        {
          "internalType": "int256",
          "name": "_latestSubmission",
          "type": "int256"
        },
        {
          "internalType": "uint64",
          "name": "_startedAt",
          "type": "uint64"
        },
        {
          "internalType": "uint64",
          "name": "_timeout",
          "type": "uint64"
        },
        {
          "internalType": "uint128",
          "name": "_availableFunds",
          "type": "uint128"
        },
        {
          "internalType": "uint8",
          "name": "_oracleCount",
          "type": "uint8"
        },
        {
          "internalType": "uint128",
          "name": "_paymentAmount",
          "type": "uint128"
        }
      ],
      "stateMutability": "view",
      "type": "function"
    },
    {
      "inputs": [],
      "name": "owner",
      "outputs": [
        {
          "internalType": "address",
          "name": "",
          "type": "address"
        }
      ],
      "stateMutability": "view",
      "type": "function"
    },
    {
      "inputs": [],
      "name": "paymentAmount",
      "outputs": [
        {
          "internalType": "uint128",
          "name": "",
          "type": "uint128"
        }
      ],
      "stateMutability": "view",
      "type": "function"
    },
    {
      "inputs": [],
      "name": "requestNewRound",
      "outputs": [
        {
          "internalType": "uint80",
          "name": "",
          "type": "uint80"
        }
      ],
      "stateMutability": "nonpayable",
      "type": "function"
    },
    {
      "inputs": [],
      "name": "restartDelay",
      "outputs": [
        {
          "internalType": "uint32",
          "name": "",
          "type": "uint32"
        }
      ],
      "stateMutability": "view",
      "type": "function"
    },
    {
      "inputs": [
        {
          "internalType": "address",
          "name": "_requester",
          "type": "address"
        },
        {
          "internalType": "bool",
          "name": "_authorized",
          "type": "bool"
        },
        {
          "internalType": "uint32",
          "name": "_delay",
          "type": "uint32"
        }
      ],
      "name": "setRequesterPermissions",
      "outputs": [],
      "stateMutability": "nonpayable",
      "type": "function"
    },
    {
      "inputs": [
        {
          "internalType": "address",
          "name": "_newValidator",
          "type": "address"
        }
      ],
      "name": "setValidator",
      "outputs": [],
      "stateMutability": "nonpayable",
      "type": "function"
    },
    {
      "inputs": [
        {
          "internalType": "uint256",
          "name": "_roundId",
          "type": "uint256"
        },
        {
          "internalType": "int256",
          "name": "_submission",
          "type": "int256"
        }
      ],
      "name": "submit",
      "outputs": [],
      "stateMutability": "nonpayable",
      "type": "function"
    },
    {
      "inputs": [],
      "name": "timeout",
      "outputs": [
        {
          "internalType": "uint32",
          "name": "",
          "type": "uint32"
        }
      ],
      "stateMutability": "view",
      "type": "function"
    },
    {
      "inputs": [
        {
          "internalType": "address",
          "name": "_oracle",
          "type": "address"
        },
        {
          "internalType": "address",
          "name": "_newAdmin",
          "type": "address"
        }
      ],
      "name": "transferAdmin",
      "outputs": [],
      "stateMutability": "nonpayable",
      "type": "function"
    },
    {
      "inputs": [
        {
          "internalType": "address",
          "name": "_to",
          "type": "address"
        }
      ],
      "name": "transferOwnership",
      "outputs": [],
      "stateMutability": "nonpayable",
      "type": "function"
    },
    {
      "inputs": [],
      "name": "updateAvailableFunds",
      "outputs": [],
      "stateMutability": "nonpayable",
      "type": "function"
    },
    {
      "inputs": [
        {
          "internalType": "uint128",
          "name": "_paymentAmount",
          "type": "uint128"
        },
        {
          "internalType": "uint32",
          "name": "_minSubmissions",
          "type": "uint32"
        },
        {
          "internalType": "uint32",
          "name": "_maxSubmissions",
          "type": "uint32"
        },
        {
          "internalType": "uint32",
          "name": "_restartDelay",
          "type": "uint32"
        },
        {
          "internalType": "uint32",
          "name": "_timeout",
          "type": "uint32"
        }
      ],
      "name": "updateFutureRounds",
      "outputs": [],
      "stateMutability": "nonpayable",
      "type": "function"
    },
    {
      "inputs": [],
      "name": "validator",
      "outputs": [
        {
          "internalType": "contract AggregatorValidatorInterface",
          "name": "",
          "type": "address"
        }
      ],
      "stateMutability": "view",
      "type": "function"
    },
    {
      "inputs": [],
      "name": "version",
      "outputs": [
        {
          "internalType": "uint256",
          "name": "",
          "type": "uint256"
        }
      ],
      "stateMutability": "view",
      "type": "function"
    },
    {
      "inputs": [
        {
          "internalType": "address",
          "name": "_recipient",
          "type": "address"
        },
        {
          "internalType": "uint256",
          "name": "_amount",
          "type": "uint256"
        }
      ],
      "name": "withdrawFunds",
      "outputs": [],
      "stateMutability": "nonpayable",
      "type": "function"
    },
    {
      "inputs": [
        {
          "internalType": "address",
          "name": "_oracle",
          "type": "address"
        },
        {
          "internalType": "address",
          "name": "_recipient",
          "type": "address"
        },
        {
          "internalType": "uint256",
          "name": "_amount",
          "type": "uint256"
        }
      ],
      "name": "withdrawPayment",
      "outputs": [],
      "stateMutability": "nonpayable",
      "type": "function"
    },
    {
      "inputs": [
        {
          "internalType": "address",
          "name": "_oracle",
          "type": "address"
        }
      ],
      "name": "withdrawablePayment",
      "outputs": [
        {
          "internalType": "uint256",
          "name": "",
          "type": "uint256"
        }
      ],
      "stateMutability": "view",
      "type": "function"
    }
  ],
  "transactionHash": "0xacd4db67739e345cf40d5e94ac7e52f7b4168f33ac79f38f0327c9934aac74c7",
  "args": [
    "0x326C977E6efc84E512bB9C30f76E30c160eD06FB",
    "10000000000000000",
    100,
    "0x628AE20554C9BbaaCd47C40205AC878EC62f1b84",
    0,
    "100000000000000000000000",
    18,
    "TEST Collection price"
  ],
  "numDeployments": 1,
  "solcInputHash": "dad340f4fcb6e4311ea159c3c3c357ed",
  "bytecode": "0x60c06040523480156200001157600080fd5b5060405162004aec38038062004aec83398181016040526101008110156200003857600080fd5b815160208301516040808501516060860151608087015160a088015160c089015160e08a0180519651989a9799959894979396929591949391820192846401000000008211156200008857600080fd5b9083019060208201858111156200009e57600080fd5b8251640100000000811182820188101715620000b957600080fd5b82525081516020918201929091019080838360005b83811015620000e8578181015183820152602001620000ce565b50505050905090810190601f168015620001165780820380516001836020036101000a031916815260200191505b50604052505060008054336001600160a01b0319918216178255600280549091166001600160a01b038c1617905589915088908890889088908890889088906200016590889080808a62000237565b62000179856001600160e01b036200061516565b608084905260a08390526005805460ff191660ff84161790558051620001a7906006906020840190620007f9565b50620001c88663ffffffff1642620006df60201b62002ef91790919060201c565b6000805260096020527fec8156718a8372b1db44bb411437d0870f3e3790d4a08526d024ce1b0b668f6c80546001600160401b03929092166801000000000000000002600160401b600160801b0319909216919091179055506200089b9e505050505050505050505050505050565b6000546001600160a01b0316331462000297576040805162461bcd60e51b815260206004820152601660248201527f4f6e6c792063616c6c61626c65206279206f776e657200000000000000000000604482015290519081900360640190fd5b6000620002ac6001600160e01b036200074216565b60ff1690508463ffffffff168463ffffffff16101562000313576040805162461bcd60e51b815260206004820152601960248201527f6d6178206d75737420657175616c2f657863656564206d696e00000000000000604482015290519081900360640190fd5b8363ffffffff168163ffffffff16101562000375576040805162461bcd60e51b815260206004820152601760248201527f6d61782063616e6e6f742065786365656420746f74616c000000000000000000604482015290519081900360640190fd5b63ffffffff811615806200039457508263ffffffff168163ffffffff16115b620003e6576040805162461bcd60e51b815260206004820152601960248201527f64656c61792063616e6e6f742065786365656420746f74616c00000000000000604482015290519081900360640190fd5b620004036001600160801b0387166001600160e01b036200074916565b600d546001600160801b0316101562000463576040805162461bcd60e51b815260206004820152601e60248201527f696e73756666696369656e742066756e647320666f72207061796d656e740000604482015290519081900360640190fd5b6000620004786001600160e01b036200074216565b60ff161115620004de5760008563ffffffff1611620004de576040805162461bcd60e51b815260206004820152601a60248201527f6d696e206d7573742062652067726561746572207468616e2030000000000000604482015290519081900360640190fd5b85600460006101000a8154816001600160801b0302191690836001600160801b0316021790555084600460146101000a81548163ffffffff021916908363ffffffff16021790555083600460106101000a81548163ffffffff021916908363ffffffff16021790555082600460186101000a81548163ffffffff021916908363ffffffff160217905550816004601c6101000a81548163ffffffff021916908363ffffffff1602179055508363ffffffff168563ffffffff16600460009054906101000a90046001600160801b03166001600160801b03167f56800c9d1ed723511246614d15e58cfcde15b6a33c245b5c961b689c1890fd8f8686604051808363ffffffff1663ffffffff1681526020018263ffffffff1663ffffffff1681526020019250505060405180910390a4505050505050565b6000546001600160a01b0316331462000675576040805162461bcd60e51b815260206004820152601660248201527f4f6e6c792063616c6c61626c65206279206f776e657200000000000000000000604482015290519081900360640190fd5b6003546001600160a01b039081169082168114620006db57600380546001600160a01b0319166001600160a01b0384811691821790925560405190918316907fcfac5dc75b8d9a7e074162f59d9adcd33da59f0fe8dfb21580db298fc0fdad0d90600090a35b5050565b60008282111562000737576040805162461bcd60e51b815260206004820152601e60248201527f536166654d6174683a207375627472616374696f6e206f766572666c6f770000604482015290519081900360640190fd5b508082035b92915050565b600c545b90565b60006200073c600262000780620007686001600160e01b036200074216565b60ff16856200079460201b620037221790919060201c565b6200079460201b620037221790919060201c565b600082620007a5575060006200073c565b82820282848281620007b357fe5b0414620007f25760405162461bcd60e51b815260040180806020018281038252602181526020018062004acb6021913960400191505060405180910390fd5b9392505050565b828054600181600116156101000203166002900490600052602060002090601f016020900481019282601f106200083c57805160ff19168380011785556200086c565b828001600101855582156200086c579182015b828111156200086c5782518255916020019190600101906200084f565b506200087a9291506200087e565b5090565b6200074691905b808211156200087a576000815560010162000885565b60805160a051614202620008c960003980610a845280610d08525080610a0f528061190052506142026000f3fe608060405234801561001057600080fd5b50600436106102535760003560e01c8063668a0f0211610146578063a4c0ed36116100c3578063c937450011610087578063c9374500146108b7578063d4cc54e4146108bf578063e2e40317146108c7578063e9ee6eeb146108ed578063f2fde38b1461091b578063feaf968c1461094157610253565b8063a4c0ed36146107c6578063b5ab58dc14610849578063b633620c14610866578063c107532914610883578063c35905c6146108af57610253565b80638205bf6a1161010a5780638205bf6a1461069557806388aa80e71461069d5780638da5cb5b1461072f57806398e5b12a146107375780639a6fc8f51461075e57610253565b8063668a0f02146105f857806370dea79a146106005780637284e4161461060857806379ba5097146106855780637c2b0b211461068d57610253565b806340884c52116101d457806357970e931161019857806357970e931461059457806358609e441461059c578063613d8fcc146105a4578063628806ef146105ac57806364efb22b146105d257610253565b806340884c521461050057806346fcff4c146105585780634f8fc3b51461057c57806350d25bcd1461058457806354fd4d501461058c57610253565b8063357ebb021161021b578063357ebb021461031557806338aa4c72146103365780633969c20f146103805780633a5381b5146104a65780633d3d7714146104ca57610253565b80631327d3d814610258578063202ee0ed1461028057806320ed0275146102a357806323ca2903146102dd578063313ce567146102f7575b600080fd5b61027e6004803603602081101561026e57600080fd5b50356001600160a01b0316610949565b005b61027e6004803603604081101561029657600080fd5b50803590602001356109ff565b61027e600480360360608110156102b957600080fd5b5080356001600160a01b03169060208101351515906040013563ffffffff16610bd1565b6102e5610d06565b60408051918252519081900360200190f35b6102ff610d2a565b6040805160ff9092168252519081900360200190f35b61031d610d33565b6040805163ffffffff9092168252519081900360200190f35b61027e600480360360a081101561034c57600080fd5b506001600160801b038135169063ffffffff6020820135811691604081013582169160608201358116916080013516610d46565b61027e600480360360c081101561039657600080fd5b810190602081018135600160201b8111156103b057600080fd5b8201836020820111156103c257600080fd5b803590602001918460208302840111600160201b831117156103e357600080fd5b919390929091602081019035600160201b81111561040057600080fd5b82018360208201111561041257600080fd5b803590602001918460208302840111600160201b8311171561043357600080fd5b919390929091602081019035600160201b81111561045057600080fd5b82018360208201111561046257600080fd5b803590602001918460208302840111600160201b8311171561048357600080fd5b919350915063ffffffff81358116916020810135821691604090910135166110e9565b6104ae6112b1565b604080516001600160a01b039092168252519081900360200190f35b61027e600480360360608110156104e057600080fd5b506001600160a01b038135811691602081013590911690604001356112c0565b6105086114b3565b60408051602080825283518183015283519192839290830191858101910280838360005b8381101561054457818101518382015260200161052c565b505050509050019250505060405180910390f35b610560611516565b604080516001600160801b039092168252519081900360200190f35b61027e611525565b6102e561163c565b6102e561165e565b6104ae611663565b61031d611672565b6102ff611685565b61027e600480360360208110156105c257600080fd5b50356001600160a01b031661168b565b6104ae600480360360208110156105e857600080fd5b50356001600160a01b0316611771565b6102e561179b565b61031d6117ae565b6106106117c1565b6040805160208082528351818301528351919283929083019185019080838360005b8381101561064a578181015183820152602001610632565b50505050905090810190601f1680156106775780820380516001836020036101000a031916815260200191505b509250505060405180910390f35b61027e61184f565b6102e56118fe565b6102e5611922565b6106cf600480360360408110156106b357600080fd5b5080356001600160a01b0316906020013563ffffffff16611957565b60408051981515895263ffffffff9097166020890152878701959095526001600160401b0393841660608801529190921660808601526001600160801b0391821660a086015260ff1660c08501521660e083015251908190036101000190f35b6104ae611ab7565b61073f611ac6565b6040805169ffffffffffffffffffff9092168252519081900360200190f35b6107876004803603602081101561077457600080fd5b503569ffffffffffffffffffff16611be5565b6040805169ffffffffffffffffffff96871681526020810195909552848101939093526060840191909152909216608082015290519081900360a00190f35b61027e600480360360608110156107dc57600080fd5b6001600160a01b0382351691602081013591810190606081016040820135600160201b81111561080b57600080fd5b82018360208201111561081d57600080fd5b803590602001918460018302840111600160201b8311171561083e57600080fd5b509092509050611d1f565b6102e56004803603602081101561085f57600080fd5b5035611d80565b6102e56004803603602081101561087c57600080fd5b5035611db4565b61027e6004803603604081101561089957600080fd5b506001600160a01b038135169060200135611df3565b610560611f95565b61031d611fa4565b610560611fb7565b6102e5600480360360208110156108dd57600080fd5b50356001600160a01b0316611fcd565b61027e6004803603604081101561090357600080fd5b506001600160a01b0381358116916020013516611ff1565b61027e6004803603602081101561093157600080fd5b50356001600160a01b03166120d4565b610787612172565b6000546001600160a01b03163314610996576040805162461bcd60e51b815260206004820152601660248201526000805160206141ad833981519152604482015290519081900360640190fd5b6003546001600160a01b0390811690821681146109fb57600380546001600160a01b0319166001600160a01b0384811691821790925560405190918316907fcfac5dc75b8d9a7e074162f59d9adcd33da59f0fe8dfb21580db298fc0fdad0d90600090a35b5050565b6060610a0b33846121ac565b90507f0000000000000000000000000000000000000000000000000000000000000000821215610a82576040805162461bcd60e51b815260206004820152601e60248201527f76616c75652062656c6f77206d696e5375626d697373696f6e56616c75650000604482015290519081900360640190fd5b7f0000000000000000000000000000000000000000000000000000000000000000821315610af7576040805162461bcd60e51b815260206004820152601e60248201527f76616c75652061626f7665206d61785375626d697373696f6e56616c75650000604482015290519081900360640190fd5b8051819015610b845760405162461bcd60e51b81526004018080602001828103825283818151815260200191508051906020019080838360005b83811015610b49578181015183820152602001610b31565b50505050905090810190601f168015610b765780820380516001836020036101000a031916815260200191505b509250505060405180910390fd5b50610b8e8361244f565b610b9882846124e3565b600080610ba4856125bc565b91509150610bb185612714565b610bba85612857565b8115610bca57610bca85826128b6565b5050505050565b6000546001600160a01b03163314610c1e576040805162461bcd60e51b815260206004820152601660248201526000805160206141ad833981519152604482015290519081900360640190fd5b6001600160a01b0383166000908152600b602052604090205460ff1615158215151415610c4a57610d01565b8115610c8d576001600160a01b0383166000908152600b60205260409020805460ff19168315151764ffffffff00191661010063ffffffff841602179055610cb6565b6001600160a01b0383166000908152600b60205260409020805468ffffffffffffffffff191690555b60408051831515815263ffffffff8316602082015281516001600160a01b038616927fc3df5a754e002718f2e10804b99e6605e7c701d95cec9552c7680ca2b6f2820a928290030190a25b505050565b7f000000000000000000000000000000000000000000000000000000000000000081565b60055460ff1681565b600454600160c01b900463ffffffff1681565b6000546001600160a01b03163314610d93576040805162461bcd60e51b815260206004820152601660248201526000805160206141ad833981519152604482015290519081900360640190fd5b6000610d9d611685565b60ff1690508463ffffffff168463ffffffff161015610e03576040805162461bcd60e51b815260206004820152601960248201527f6d6178206d75737420657175616c2f657863656564206d696e00000000000000604482015290519081900360640190fd5b8363ffffffff168163ffffffff161015610e64576040805162461bcd60e51b815260206004820152601760248201527f6d61782063616e6e6f742065786365656420746f74616c000000000000000000604482015290519081900360640190fd5b63ffffffff81161580610e8257508263ffffffff168163ffffffff16115b610ed3576040805162461bcd60e51b815260206004820152601960248201527f64656c61792063616e6e6f742065786365656420746f74616c00000000000000604482015290519081900360640190fd5b610ee5866001600160801b03166129af565b600d546001600160801b03161015610f44576040805162461bcd60e51b815260206004820152601e60248201527f696e73756666696369656e742066756e647320666f72207061796d656e740000604482015290519081900360640190fd5b6000610f4e611685565b60ff161115610fb25760008563ffffffff1611610fb2576040805162461bcd60e51b815260206004820152601a60248201527f6d696e206d7573742062652067726561746572207468616e2030000000000000604482015290519081900360640190fd5b85600460006101000a8154816001600160801b0302191690836001600160801b0316021790555084600460146101000a81548163ffffffff021916908363ffffffff16021790555083600460106101000a81548163ffffffff021916908363ffffffff16021790555082600460186101000a81548163ffffffff021916908363ffffffff160217905550816004601c6101000a81548163ffffffff021916908363ffffffff1602179055508363ffffffff168563ffffffff16600460009054906101000a90046001600160801b03166001600160801b03167f56800c9d1ed723511246614d15e58cfcde15b6a33c245b5c961b689c1890fd8f8686604051808363ffffffff1663ffffffff1681526020018263ffffffff1663ffffffff1681526020019250505060405180910390a4505050505050565b6000546001600160a01b03163314611136576040805162461bcd60e51b815260206004820152601660248201526000805160206141ad833981519152604482015290519081900360640190fd5b60005b8881101561116d576111658a8a8381811061115057fe5b905060200201356001600160a01b03166129dd565b600101611139565b508584146111c2576040805162461bcd60e51b815260206004820181905260248201527f6e6565642073616d65206f7261636c6520616e642061646d696e20636f756e74604482015290519081900360640190fd5b604d6111df876111d0611685565b60ff169063ffffffff612bab16565b1115611228576040805162461bcd60e51b81526020600482015260136024820152721b585e081bdc9858db195cc8185b1b1bddd959606a1b604482015290519081900360640190fd5b60005b8681101561127b5761127388888381811061124257fe5b905060200201356001600160a01b031687878481811061125e57fe5b905060200201356001600160a01b0316612bfa565b60010161122b565b506004546112a6906001600160801b03811690859085908590600160e01b900463ffffffff16610d46565b505050505050505050565b6003546001600160a01b031681565b6001600160a01b03838116600090815260086020526040902060020154620100009004163314611330576040805162461bcd60e51b815260206004820152601660248201527537b7363c9031b0b63630b1363290313c9030b236b4b760511b604482015290519081900360640190fd5b6001600160a01b03831660009081526008602052604090205481906001600160801b039081169082168110156113ad576040805162461bcd60e51b815260206004820152601f60248201527f696e73756666696369656e7420776974686472617761626c652066756e647300604482015290519081900360640190fd5b6113c66001600160801b0382168363ffffffff612e8a16565b6001600160a01b038616600090815260086020526040902080546001600160801b0319166001600160801b03928316179055600d5461140e91600160801b9091041683612e8a565b600d80546001600160801b03928316600160801b029083161790556002546040805163a9059cbb60e01b81526001600160a01b03888116600483015293861660248201529051929091169163a9059cbb916044808201926020929091908290030181600087803b15801561148157600080fd5b505af1158015611495573d6000803e3d6000fd5b505050506040513d60208110156114ab57600080fd5b5051610bca57fe5b6060600c80548060200260200160405190810160405280929190818152602001828054801561150b57602002820191906000526020600020905b81546001600160a01b031681526001909101906020018083116114ed575b505050505090505b90565b600d546001600160801b031690565b61152d61405b565b50604080518082018252600d546001600160801b038082168352600160801b90910416602080830182905260025484516370a0823160e01b8152306004820152945193946000946115de94936001600160a01b03909316926370a082319260248082019391829003018186803b1580156115a657600080fd5b505afa1580156115ba573d6000803e3d6000fd5b505050506040513d60208110156115d057600080fd5b50519063ffffffff612ef916565b82519091506001600160801b031681146109fb57600d80546001600160801b0319166001600160801b03831617905560405181907ffe25c73e3b9089fac37d55c4c7efcba6f04af04cebd2fc4d6d7dbb07e1e5234f90600090a25050565b600754600160201b900463ffffffff1660009081526009602052604090205490565b600381565b6002546001600160a01b031681565b600454600160801b900463ffffffff1681565b600c5490565b6001600160a01b038181166000908152600860205260409020600301541633146116fc576040805162461bcd60e51b815260206004820152601e60248201527f6f6e6c792063616c6c61626c652062792070656e64696e672061646d696e0000604482015290519081900360640190fd5b6001600160a01b0381166000818152600860205260408082206003810180546001600160a01b0319169055600201805462010000600160b01b031916336201000081029190911790915590519092917f0c5055390645c15a4be9a21b3f8d019153dcb4a0c125685da6eb84048e2fe90491a350565b6001600160a01b03808216600090815260086020526040902060020154620100009004165b919050565b600754600160201b900463ffffffff1690565b600454600160e01b900463ffffffff1681565b6006805460408051602060026001851615610100026000190190941693909304601f810184900484028201840190925281815292918301828280156118475780601f1061181c57610100808354040283529160200191611847565b820191906000526020600020905b81548152906001019060200180831161182a57829003601f168201915b505050505081565b6001546001600160a01b031633146118a7576040805162461bcd60e51b815260206004820152601660248201527526bab9ba10313290383937b837b9b2b21037bbb732b960511b604482015290519081900360640190fd5b60008054336001600160a01b0319808316821784556001805490911690556040516001600160a01b0390921692909183917f8be0079c531659141344cd1fd0a4f28419497f9722a3daafe3b4186f6b6457e091a350565b7f000000000000000000000000000000000000000000000000000000000000000081565b600754600160201b900463ffffffff16600090815260096020526040902060010154600160401b90046001600160401b031690565b6000808080808080803332146119ad576040805162461bcd60e51b81526020600482015260166024820152756f66662d636861696e2072656164696e67206f6e6c7960501b604482015290519081900360640190fd5b63ffffffff891615611a905763ffffffff89166000908152600960209081526040808320600a9092529091206119e38c8c612f50565b6001600160a01b038d1660009081526008602052604090206001908101548482015491840154600d548f936001600160401b031691600160401b900463ffffffff16906001600160801b0316611a37611685565b60018901546001600160401b0316611a5a576004546001600160801b0316611a70565b6001880154600160601b90046001600160801b03165b8363ffffffff169350995099509950995099509950995099505050611aaa565b611a998a612fa5565b975097509750975097509750975097505b9295985092959890939650565b6000546001600160a01b031681565b336000908152600b602052604081205460ff16611b2a576040805162461bcd60e51b815260206004820152601860248201527f6e6f7420617574686f72697a6564207265717565737465720000000000000000604482015290519081900360640190fd5b60075463ffffffff16600081815260096020526040902060010154600160401b90046001600160401b0316151580611b665750611b6681613170565b611bb7576040805162461bcd60e51b815260206004820152601f60248201527f7072657620726f756e64206d75737420626520737570657273656461626c6500604482015290519081900360640190fd5b6000611bce63ffffffff808416906001906131fb16565b9050611bd98161324c565b63ffffffff1691505090565b6000806000806000611bf5614072565b5063ffffffff8087166000908152600960209081526040918290208251608081018452815481526001909101546001600160401b0380821693830193909352600160401b810490921692810192909252600160801b90049091166060820181905215801590611c745750611c748769ffffffffffffffffffff1661331a565b6040518060400160405280600f81526020016e139bc819185d18481c1c995cd95b9d608a1b81525090611ce85760405162461bcd60e51b8152602060048201818152835160248401528351909283926044909101919085019080838360008315610b49578181015183820152602001610b31565b50805160208201516040830151606090930151989991986001600160401b0391821698509216955063ffffffff9091169350915050565b8015611d72576040805162461bcd60e51b815260206004820181905260248201527f7472616e7366657220646f65736e2774206163636570742063616c6c64617461604482015290519081900360640190fd5b611d7a611525565b50505050565b6000611d8b8261331a565b15611dac575063ffffffff8116600090815260096020526040902054611796565b506000919050565b6000611dbf8261331a565b15611dac575063ffffffff8116600090815260096020526040902060010154600160401b90046001600160401b0316611796565b6000546001600160a01b03163314611e40576040805162461bcd60e51b815260206004820152601660248201526000805160206141ad833981519152604482015290519081900360640190fd5b600d546004546001600160801b03918216918391611e6f91611e6291166129af565b839063ffffffff612ef916565b1015611ec2576040805162461bcd60e51b815260206004820152601a60248201527f696e73756666696369656e7420726573657276652066756e6473000000000000604482015290519081900360640190fd5b6002546040805163a9059cbb60e01b81526001600160a01b038681166004830152602482018690529151919092169163a9059cbb9160448083019260209291908290030181600087803b158015611f1857600080fd5b505af1158015611f2c573d6000803e3d6000fd5b505050506040513d6020811015611f4257600080fd5b5051611f8d576040805162461bcd60e51b81526020600482015260156024820152741d1bdad95b881d1c985b9cd9995c8819985a5b1959605a1b604482015290519081900360640190fd5b610d01611525565b6004546001600160801b031681565b600454600160a01b900463ffffffff1681565b600d54600160801b90046001600160801b031690565b6001600160a01b03166000908152600860205260409020546001600160801b031690565b6001600160a01b03828116600090815260086020526040902060020154620100009004163314612061576040805162461bcd60e51b815260206004820152601660248201527537b7363c9031b0b63630b1363290313c9030b236b4b760511b604482015290519081900360640190fd5b6001600160a01b0382811660008181526008602090815260409182902060030180546001600160a01b0319169486169485179055815133815290810193909352805191927fb79bf2e89c2d70dde91d2991fb1ea69b7e478061ad7c04ed5b02b96bc52b8104929081900390910190a25050565b6000546001600160a01b03163314612121576040805162461bcd60e51b815260206004820152601660248201526000805160206141ad833981519152604482015290519081900360640190fd5b600180546001600160a01b0319166001600160a01b0383811691821790925560008054604051929316917fed8889f560326eb138920d842192f0eb3dd22b4f139c87a2c57538e05bae12789190a350565b600080600080600061219b600760049054906101000a900463ffffffff1663ffffffff16611be5565b945094509450945094509091929394565b6001600160a01b03821660009081526008602052604090205460075460609163ffffffff600160801b909104811691168161221557604051806040016040528060128152602001716e6f7420656e61626c6564206f7261636c6560701b81525092505050612449565b8363ffffffff168263ffffffff16111561226157604051806040016040528060168152602001756e6f742079657420656e61626c6564206f7261636c6560501b81525092505050612449565b6001600160a01b03851660009081526008602052604090205463ffffffff808616600160a01b9092041610156122d0576040518060400160405280601881526020017f6e6f206c6f6e67657220616c6c6f776564206f7261636c65000000000000000081525092505050612449565b6001600160a01b03851660009081526008602052604090205463ffffffff808616600160c01b909204161061233e576040518060400160405280602081526020017f63616e6e6f74207265706f7274206f6e2070726576696f757320726f756e647381525092505050612449565b8063ffffffff168463ffffffff161415801561237a575061236a63ffffffff808316906001906131fb16565b63ffffffff168463ffffffff1614155b801561238d575061238b8482613324565b155b156123d1576040518060400160405280601781526020017f696e76616c696420726f756e6420746f207265706f727400000000000000000081525092505050612449565b8363ffffffff1660011415801561240257506124006123fb63ffffffff8087169060019061338416565b6133e7565b155b15612446576040518060400160405280601f81526020017f70726576696f757320726f756e64206e6f7420737570657273656461626c650081525092505050612449565b50505b92915050565b61245881613421565b612461576124e0565b3360009081526008602052604090205460045463ffffffff600160e01b909204821691600160c01b90910481168201908316118015906124a057508015155b156124ab57506124e0565b6124b482613452565b5033600090815260086020526040902080546001600160e01b0316600160e01b63ffffffff8416021790555b50565b6124ec81613605565b61253d576040805162461bcd60e51b815260206004820152601f60248201527f726f756e64206e6f7420616363657074696e67207375626d697373696f6e7300604482015290519081900360640190fd5b63ffffffff81166000818152600a6020908152604080832080546001808201835591855283852001879055338085526008909352818420805463ffffffff60c01b1916600160c01b8702178155018690555190929185917f92e98423f8adac6e64d0608e519fd1cefb861498385c6dee70d58fc926ddc68c9190a45050565b63ffffffff8082166000908152600a602052604081206001810154905491928392600160201b9092041611156125f75750600090508061270f565b63ffffffff83166000908152600a60209081526040808320805482518185028101850190935280835261265d9383018282801561265357602002820191906000526020600020905b81548152602001906001019080831161263f575b5050505050613625565b63ffffffff8516600081815260096020908152604091829020848155600101805467ffffffffffffffff60401b1916600160401b426001600160401b038116919091029190911763ffffffff60801b1916600160801b8602179091556007805467ffffffff000000001916600160201b860217905582519081529151939450919284927f0559884fd3a460db3073b7fc896cc77986f16e378210ded43186175bf646fc5f928290030190a36001925090505b915091565b63ffffffff81166000908152600a6020526040902060010154600160601b90046001600160801b031661274561405b565b5060408051808201909152600d546001600160801b03808216808452600160801b90920416602083015261277f908363ffffffff612e8a16565b6001600160801b03908116825260208201516127a291168363ffffffff6136ce16565b6001600160801b0390811660208084018290528351600d8054600160801b9094029185166001600160801b031990941693909317841617909155336000908152600890915260409020546127fd91168363ffffffff6136ce16565b3360009081526008602052604080822080546001600160801b0319166001600160801b03948516179055835190519216917ffe25c73e3b9089fac37d55c4c7efcba6f04af04cebd2fc4d6d7dbb07e1e5234f9190a2505050565b63ffffffff8082166000908152600a602052604090206001810154905491161115612881576124e0565b63ffffffff81166000908152600a60205260408120906128a18282614099565b5060010180546001600160e01b031916905550565b6003546001600160a01b0316806128cd57506109fb565b60006128e463ffffffff8086169060019061338416565b63ffffffff808216600090815260096020908152604080832060018101549054825163beed9b5160e01b8152600160801b90920486166004830181905260248301829052958b166044830152606482018a90529151959650939490936001600160a01b0388169363beed9b5193620186a093608480850194929391928390030190829088803b15801561297657600080fd5b5087f19350505050801561299c57506040513d602081101561299757600080fd5b505160015b6129a5576129a7565b505b505050505050565b600061244960026129d16129c1611685565b859060ff1663ffffffff61372216565b9063ffffffff61372216565b6129e68161377b565b612a2c576040805162461bcd60e51b81526020600482015260126024820152711bdc9858db19481b9bdd08195b98589b195960721b604482015290519081900360640190fd5b600754612a459063ffffffff908116906001906131fb16565b6001600160a01b0382166000908152600860205260408120805463ffffffff93909316600160a01b0263ffffffff60a01b1990931692909217909155600c612a9f6001612a90611685565b60ff169063ffffffff612ef916565b81548110612aa957fe5b6000918252602080832091909101546001600160a01b0385811680855260089093526040808520600290810180549390941680875291862001805461ffff90931661ffff199384168117909155939094528154169055600c8054929350909183919083908110612b1557fe5b9060005260206000200160006101000a8154816001600160a01b0302191690836001600160a01b03160217905550600c805480612b4e57fe5b600082815260208120820160001990810180546001600160a01b03191690559091019091556040516001600160a01b038516907f18dd09695e4fbdae8d1a5edb11221eb04564269c29a089b9753a6535c54ba92e908390a3505050565b600082820183811015612bf3576040805162461bcd60e51b815260206004820152601b602482015260008051602061416c833981519152604482015290519081900360640190fd5b9392505050565b612c038261377b565b15612c4e576040805162461bcd60e51b81526020600482015260166024820152751bdc9858db1948185b1c9958591e48195b98589b195960521b604482015290519081900360640190fd5b6001600160a01b038116612ca1576040805162461bcd60e51b8152602060048201526015602482015274063616e6e6f74207365742061646d696e20746f203605c1b604482015290519081900360640190fd5b6001600160a01b03828116600090815260086020526040902060020154620100009004161580612cf657506001600160a01b038281166000908152600860205260409020600201546201000090048116908216145b612d47576040805162461bcd60e51b815260206004820152601c60248201527f6f776e65722063616e6e6f74206f76657277726974652061646d696e00000000604482015290519081900360640190fd5b612d50826137a6565b6001600160a01b03808416600081815260086020526040808220805463ffffffff60a01b1963ffffffff97909716600160801b0263ffffffff60801b19909116179590951663ffffffff60a01b178555600c80546002909601805461ffff90971661ffff19909716969096178655805460018181019092557fdf6966c971051c3d54ec59162606531493a51404a002842f56009d7e5cf4a8c70180546001600160a01b031916851790558383528554948716620100000262010000600160b01b0319909516949094179094559251919290917f18dd09695e4fbdae8d1a5edb11221eb04564269c29a089b9753a6535c54ba92e9190a3806001600160a01b0316826001600160a01b03167f0c5055390645c15a4be9a21b3f8d019153dcb4a0c125685da6eb84048e2fe90460405160405180910390a35050565b6000826001600160801b0316826001600160801b03161115612ef3576040805162461bcd60e51b815260206004820152601e60248201527f536166654d6174683a207375627472616374696f6e206f766572666c6f770000604482015290519081900360640190fd5b50900390565b600082821115612ef3576040805162461bcd60e51b815260206004820152601e60248201527f536166654d6174683a207375627472616374696f6e206f766572666c6f770000604482015290519081900360640190fd5b63ffffffff81166000908152600960205260408120600101546001600160401b031615612f9b57612f8082613605565b8015612f945750612f9183836121ac565b51155b9050612449565b612f808383613809565b6001600160a01b0381166000908152600860205260408120600754815483928392839283928392839283927fec8156718a8372b1db44bb411437d0870f3e3790d4a08526d024ce1b0b668f6b929091849163ffffffff908116600160c01b90920416148061302257506007546130209063ffffffff16613605565b155b6007549091506130379063ffffffff166133e7565b80156130405750805b156130995760075461305e9063ffffffff908116906001906131fb16565b63ffffffff81166000908152600960205260409020600454919b506001600160801b03909116945092506130928c8b613809565b9a506130e3565b60075463ffffffff166000818152600960209081526040808320600a90925290912060010154919b50600160601b9091046001600160801b0316945092506130e08a613605565b9a505b6130ed8c8b6121ac565b51156130f85760009a505b6001808301548482015463ffffffff808e166000908152600a6020526040902090930154600d548f948f94936001600160401b031692600160401b900416906001600160801b0316613148611685565b8a8363ffffffff1693509a509a509a509a509a509a509a509a50505050919395975091939597565b63ffffffff8082166000908152600960209081526040808320600190810154600a909352908320015491926001600160401b0390911691600160401b90041681158015906131c4575060008163ffffffff16115b80156131f35750426131e86001600160401b03841663ffffffff8085169061385316565b6001600160401b0316105b949350505050565b600082820163ffffffff8085169082161015612bf3576040805162461bcd60e51b815260206004820152601b602482015260008051602061416c833981519152604482015290519081900360640190fd5b61325581613421565b61325e576124e0565b336000908152600b602052604090205463ffffffff6501000000000082048116916101009004811682019083161180613295575080155b6132dc576040805162461bcd60e51b81526020600482015260136024820152726d7573742064656c617920726571756573747360681b604482015290519081900360640190fd5b6132e582613452565b50336000908152600b60205260409020805463ffffffff8316650100000000000268ffffffff00000000001990911617905550565b63ffffffff101590565b60008163ffffffff1661334760018563ffffffff166131fb90919063ffffffff16565b63ffffffff16148015612bf357505063ffffffff16600090815260096020526040902060010154600160401b90046001600160401b031615919050565b60008263ffffffff168263ffffffff161115612ef3576040805162461bcd60e51b815260206004820152601e60248201527f536166654d6174683a207375627472616374696f6e206f766572666c6f770000604482015290519081900360640190fd5b63ffffffff8116600090815260096020526040812060010154600160401b90046001600160401b0316151580612449575061244982613170565b60075460009061343d9063ffffffff908116906001906131fb16565b63ffffffff168263ffffffff16149050919050565b61346f61346a63ffffffff8084169060019061338416565b6138a7565b6007805463ffffffff191663ffffffff831617905561348c6140b7565b5060408051600060a0820181815260c083018452825260045463ffffffff600160801b82048116602080860191909152600160a01b8304821685870152600160e01b8304821660608601526001600160801b03909216608085015285168252600a8152929020815180519293849361350792849201906140e5565b5060208281015160019283018054604080870151606088015160809098015163ffffffff1990931663ffffffff9586161767ffffffff000000001916600160201b91861691909102176bffffffff00000000000000001916600160401b97851697909702969096176fffffffffffffffffffffffffffffffff60601b1916600160601b6001600160801b03909216919091021790558516600081815260098352849020909201805467ffffffffffffffff1916426001600160401b039081169190911791829055845191168152925133937f0109fc6f55cf40689f02fbaad7af7fe7bbac8a3d2186600afc7d3e10cac6027192908290030190a35050565b63ffffffff9081166000908152600a602052604090206001015416151590565b60008151600010613676576040805162461bcd60e51b81526020600482015260166024820152756c697374206d757374206e6f7420626520656d70747960501b604482015290519081900360640190fd5b815160028104600182166136b55760008061369b866000600187036001870387613969565b90925090506136aa8282613a47565b945050505050611796565b6136c58460006001850384613ab5565b92505050611796565b60008282016001600160801b038085169082161015612bf3576040805162461bcd60e51b815260206004820152601b602482015260008051602061416c833981519152604482015290519081900360640190fd5b60008261373157506000612449565b8282028284828161373e57fe5b0414612bf35760405162461bcd60e51b815260040180806020018281038252602181526020018061418c6021913960400191505060405180910390fd5b6001600160a01b031660009081526008602052604090205463ffffffff600160a01b90910481161490565b60075460009063ffffffff1680158015906137e857506001600160a01b03831660009081526008602052604090205463ffffffff828116600160a01b90920416145b156137f4579050611796565b612bf363ffffffff808316906001906131fb16565b6001600160a01b03821660009081526008602052604081205460045463ffffffff600160e01b909204821691600160c01b9091048116820190841611806131f35750159392505050565b60008282016001600160401b038085169082161015612bf3576040805162461bcd60e51b815260206004820152601b602482015260008051602061416c833981519152604482015290519081900360640190fd5b6138b081613170565b6138b9576124e0565b60006138d063ffffffff8084169060019061338416565b63ffffffff8181166000908152600960209081526040808320805488861685528285209081556001918201549101805463ffffffff60801b1916600160801b928390049096169091029490941767ffffffffffffffff60401b1916600160401b426001600160401b03160217909355600a90529081209192506139538282614099565b5060010180546001600160e01b03191690555050565b60008082841061397857600080fd5b8386111580156139885750848411155b61399157600080fd5b8286111580156139a15750848311155b6139aa57600080fd5b600786860310156139cb576139c28787878787613b46565b91509150613a3d565b60006139d8888888613f19565b90508084116139e957809550613a37565b848110156139fc57806001019650613a37565b808511158015613a0b57508381105b613a1157fe5b613a1d88888388613ab5565b9250613a2e88826001018887613ab5565b9150613a3d9050565b506139aa565b9550959350505050565b60008083128015613a585750600082135b80613a6e5750600083138015613a6e5750600082125b15613a8e576002613a7f8484613ff6565b81613a8657fe5b059050612449565b60006002808507818507010590506131f3613aaf6002860560028605613ff6565b82613ff6565b600081841115613ac457600080fd5b82821115613ad157600080fd5b82841015613b285760078484031015613afd576000613af38686868687613b46565b5091506131f39050565b6000613b0a868686613f19565b9050808311613b1b57809350613b22565b8060010194505b50613ad1565b848481518110613b3457fe5b60200260200101519050949350505050565b600080600086866001010390506000888860000181518110613b6457fe5b60200260200101519050600082600110613b85576001600160ff1b03613b9d565b898960010181518110613b9457fe5b60200260200101515b9050600083600210613bb6576001600160ff1b03613bce565b8a8a60020181518110613bc557fe5b60200260200101515b9050600084600310613be7576001600160ff1b03613bff565b8b8b60030181518110613bf657fe5b60200260200101515b9050600085600410613c18576001600160ff1b03613c30565b8c8c60040181518110613c2757fe5b60200260200101515b9050600086600510613c49576001600160ff1b03613c61565b8d8d60050181518110613c5857fe5b60200260200101515b9050600087600610613c7a576001600160ff1b03613c92565b8e8e60060181518110613c8957fe5b60200260200101515b905085871315613ca0579495945b83851315613cac579293925b81831315613cb8579091905b84871315613cc4579395935b83861315613cd0579294925b80831315613cda57915b84861315613ce6579394935b80821315613cf057905b82871315613cfc579195915b81861315613d08579094905b80851315613d1257935b82861315613d1e579194915b80841315613d2857925b82851315613d34579193915b81841315613d40579092905b82841315613d4c579192915b8d8c0380613d5c57879a50613e02565b8060011415613d6d57869a50613e02565b8060021415613d7e57859a50613e02565b8060031415613d8f57849a50613e02565b8060041415613da057839a50613e02565b8060051415613db157829a50613e02565b8060061415613dc257819a50613e02565b6040805162461bcd60e51b815260206004820152601060248201526f6b31206f7574206f6620626f756e647360801b604482015290519081900360640190fd5b8e8c038d8d1415613e2057508a9950613a3d98505050505050505050565b80613e375750969850613a3d975050505050505050565b8060011415613e525750959850613a3d975050505050505050565b8060021415613e6d5750949850613a3d975050505050505050565b8060031415613e885750939850613a3d975050505050505050565b8060041415613ea35750929850613a3d975050505050505050565b8060051415613ebe5750919850613a3d975050505050505050565b8060061415613ed95750909850613a3d975050505050505050565b6040805162461bcd60e51b815260206004820152601060248201526f6b32206f7574206f6620626f756e647360801b604482015290519081900360640190fd5b6000808460028585010481518110613f2d57fe5b602002602001015190506001840393506001830192505b60018401935080858581518110613f5757fe5b602002602001015112613f44575b60018303925080858481518110613f7857fe5b602002602001015113613f655782841015613fe857848381518110613f9957fe5b6020026020010151858581518110613fad57fe5b6020026020010151868681518110613fc157fe5b60200260200101878681518110613fd457fe5b602090810291909101019190915252613ff1565b82915050612bf3565b613f44565b600082820181831280159061400b5750838112155b80614020575060008312801561402057508381125b612bf35760405162461bcd60e51b815260040180806020018281038252602181526020018061414b6021913960400191505060405180910390fd5b604080518082019091526000808252602082015290565b60408051608081018252600080825260208201819052918101829052606081019190915290565b50805460008255906000526020600020908101906124e09190614130565b6040805160a08101825260608082526000602083018190529282018390528101829052608081019190915290565b828054828255906000526020600020908101928215614120579160200282015b82811115614120578251825591602001919060010190614105565b5061412c929150614130565b5090565b61151391905b8082111561412c576000815560010161413656fe5369676e6564536166654d6174683a206164646974696f6e206f766572666c6f77536166654d6174683a206164646974696f6e206f766572666c6f770000000000536166654d6174683a206d756c7469706c69636174696f6e206f766572666c6f774f6e6c792063616c6c61626c65206279206f776e657200000000000000000000a26469706673582212209b8ae5fe364bec9026e74dad336e794e8a4fc5b10eb7f8e39766ab11e2d7c77264736f6c63430006060033536166654d6174683a206d756c7469706c69636174696f6e206f766572666c6f77",
  "devdoc": {
    "methods": {
      "acceptAdmin(address)": {
        "params": {
          "_oracle": "is the address of the oracle whose admin is being transferred"
        }
      },
      "acceptOwnership()": {
        "details": "Allows an ownership transfer to be completed by the recipient."
      },
      "changeOracles(address[],address[],address[],uint32,uint32,uint32)": {
        "params": {
          "_added": "is the list of addresses for the new Oracles being added",
          "_addedAdmins": "is the admin addresses for the new respective _added list. Only this address is allowed to access the respective oracle's funds",
          "_maxSubmissions": "is the new maximum submission count for each round",
          "_minSubmissions": "is the new minimum submission count for each round",
          "_removed": "is the list of addresses for the new Oracles being removed",
          "_restartDelay": "is the number of rounds an Oracle has to wait before they can initiate a round"
        }
      },
      "getAdmin(address)": {
        "params": {
          "_oracle": "is the address of the oracle whose admin is being queried"
        }
      },
      "getAnswer(uint256)": {
        "details": "#[deprecated] Use getRoundData instead. This does not error if no answer has been reached, it will simply return 0. Either wait to point to an already answered Aggregator or use the recommended getRoundData instead which includes better verification information.",
        "params": {
          "_roundId": "the round number to retrieve the answer for"
        }
      },
      "getRoundData(uint80)": {
        "details": "Note that for in-progress rounds (i.e. rounds that haven't yet received maxSubmissions) answer and updatedAt may change between queries.",
        "params": {
          "_roundId": "the round ID to retrieve the round data for"
        },
        "returns": {
          "answer": "is the answer for the given round",
          "answeredInRound": "is the round ID of the round in which the answer was computed. answeredInRound may be smaller than roundId when the round timed out. answeredInRound is equal to roundId when the round didn't time out and was completed regularly.",
          "roundId": "is the round ID for which data was retrieved",
          "startedAt": "is the timestamp when the round was started. This is 0 if the round hasn't been started yet.",
          "updatedAt": "is the timestamp when the round last was updated (i.e. answer was last computed)"
        }
      },
      "getTimestamp(uint256)": {
        "details": "#[deprecated] Use getRoundData instead. This does not error if no answer has been reached, it will simply return 0. Either wait to point to an already answered Aggregator or use the recommended getRoundData instead which includes better verification information.",
        "params": {
          "_roundId": "the round number to retrieve the updated timestamp for"
        }
      },
      "latestAnswer()": {
        "details": "#[deprecated] Use latestRoundData instead. This does not error if no answer has been reached, it will simply return 0. Either wait to point to an already answered Aggregator or use the recommended latestRoundData instead which includes better verification information."
      },
      "latestRound()": {
        "details": "#[deprecated] Use latestRoundData instead. This does not error if no answer has been reached, it will simply return 0. Either wait to point to an already answered Aggregator or use the recommended latestRoundData instead which includes better verification information."
      },
      "latestRoundData()": {
        "details": "Note that for in-progress rounds (i.e. rounds that haven't yet received maxSubmissions) answer and updatedAt may change between queries.",
        "returns": {
          "answer": "is the answer for the given round",
          "answeredInRound": "is the round ID of the round in which the answer was computed. answeredInRound may be smaller than roundId when the round timed out. answeredInRound is equal to roundId when the round didn't time out and was completed regularly.",
          "roundId": "is the round ID for which data was retrieved",
          "startedAt": "is the timestamp when the round was started. This is 0 if the round hasn't been started yet.",
          "updatedAt": "is the timestamp when the round last was updated (i.e. answer was last computed)"
        }
      },
      "latestTimestamp()": {
        "details": "#[deprecated] Use latestRoundData instead. This does not error if no answer has been reached, it will simply return 0. Either wait to point to an already answered Aggregator or use the recommended latestRoundData instead which includes better verification information."
      },
      "onTokenTransfer(address,uint256,bytes)": {
        "params": {
          "_data": "is mostly ignored. It is checked for length, to be sure nothing strange is passed in."
        }
      },
      "oracleRoundState(address,uint32)": {
        "params": {
          "_oracle": "the address to look up information for."
        }
      },
      "setRequesterPermissions(address,bool,uint32)": {
        "params": {
          "_authorized": "is a boolean specifying whether they can start new rounds or not",
          "_delay": "is the number of rounds the requester must wait before starting another round",
          "_requester": "is the address to set permissions for"
        }
      },
      "setValidator(address)": {
        "params": {
          "_newValidator": "designates the address of the new validation contract."
        }
      },
      "submit(uint256,int256)": {
        "params": {
          "_roundId": "is the ID of the round this submission pertains to",
          "_submission": "is the updated data that the oracle is submitting"
        }
      },
      "transferAdmin(address,address)": {
        "params": {
          "_newAdmin": "is the new admin address",
          "_oracle": "is the address of the oracle whose admin is being transferred"
        }
      },
      "transferOwnership(address)": {
        "details": "Allows an owner to begin transferring ownership to a new address, pending."
      },
      "updateFutureRounds(uint128,uint32,uint32,uint32,uint32)": {
        "params": {
          "_maxSubmissions": "is the new maximum submission count for each round",
          "_minSubmissions": "is the new minimum submission count for each round",
          "_paymentAmount": "is the payment amount for subsequent rounds",
          "_restartDelay": "is the number of rounds an Oracle has to wait before they can initiate a round"
        }
      },
      "withdrawFunds(address,uint256)": {
        "params": {
          "_amount": "is the amount of LINK to send",
          "_recipient": "is the address to send the LINK to"
        }
      },
      "withdrawPayment(address,address,uint256)": {
        "params": {
          "_amount": "is the amount of LINK to send",
          "_oracle": "is the oracle whose LINK is transferred",
          "_recipient": "is the address to send the LINK to"
        }
      }
    }
  },
  "userdoc": {
    "methods": {
      "acceptAdmin(address)": {
        "notice": "accept the admin address transfer for an oracle"
      },
      "allocatedFunds()": {
        "notice": "the amount of payment yet to be withdrawn by oracles"
      },
      "availableFunds()": {
        "notice": "the amount of future funding available to oracles"
      },
      "changeOracles(address[],address[],address[],uint32,uint32,uint32)": {
        "notice": "called by the owner to remove and add new oracles as well as update the round related parameters that pertain to total oracle count"
      },
      "getAdmin(address)": {
        "notice": "get the admin address of an oracle"
      },
      "getAnswer(uint256)": {
        "notice": "get past rounds answers"
      },
      "getOracles()": {
        "notice": "returns an array of addresses containing the oracles on contract"
      },
      "getRoundData(uint80)": {
        "notice": "get data about a round. Consumers are encouraged to check that they're receiving fresh data by inspecting the updatedAt and answeredInRound return values."
      },
      "getTimestamp(uint256)": {
        "notice": "get timestamp when an answer was last updated"
      },
      "latestAnswer()": {
        "notice": "get the most recently reported answer"
      },
      "latestRound()": {
        "notice": "get the ID of the last updated round"
      },
      "latestRoundData()": {
        "notice": "get data about the latest round. Consumers are encouraged to check that they're receiving fresh data by inspecting the updatedAt and answeredInRound return values. Consumers are encouraged to use this more fully featured method over the \"legacy\" latestRound/ latestAnswer/latestTimestamp functions. Consumers are encouraged to check that they're receiving fresh data by inspecting the updatedAt and answeredInRound return values."
      },
      "latestTimestamp()": {
        "notice": "get the most recent updated at timestamp"
      },
      "onTokenTransfer(address,uint256,bytes)": {
        "notice": "called through LINK's transferAndCall to update available funds in the same transaction as the funds were transferred to the aggregator"
      },
      "oracleCount()": {
        "notice": "returns the number of oracles"
      },
      "oracleRoundState(address,uint32)": {
        "notice": "a method to provide all current info oracles need. Intended only only to be callable by oracles. Not for use by contracts to read state."
      },
      "requestNewRound()": {
        "notice": "allows non-oracles to request a new round"
      },
      "setRequesterPermissions(address,bool,uint32)": {
        "notice": "allows the owner to specify new non-oracles to start new rounds"
      },
      "setValidator(address)": {
        "notice": "method to update the address which does external data validation."
      },
      "submit(uint256,int256)": {
        "notice": "called by oracles when they have witnessed a need to update"
      },
      "transferAdmin(address,address)": {
        "notice": "transfer the admin address for an oracle"
      },
      "updateAvailableFunds()": {
        "notice": "recalculate the amount of LINK available for payouts"
      },
      "updateFutureRounds(uint128,uint32,uint32,uint32,uint32)": {
        "notice": "update the round and payment related parameters for subsequent rounds"
      },
      "withdrawFunds(address,uint256)": {
        "notice": "transfers the owner's LINK to another address"
      },
      "withdrawPayment(address,address,uint256)": {
        "notice": "transfers the oracle's LINK to another address. Can only be called by the oracle's admin."
      },
      "withdrawablePayment(address)": {
        "notice": "query the available amount of LINK for an oracle to withdraw"
      }
    }
  },
  "storageLayout": {
    "storage": [
      {
        "astId": 3309,
        "contract": "contracts/aggregators/CustomFluxAggregator.sol:CustomFluxAggregator",
        "label": "owner",
        "offset": 0,
        "slot": "0",
        "type": "t_address"
      },
      {
        "astId": 3311,
        "contract": "contracts/aggregators/CustomFluxAggregator.sol:CustomFluxAggregator",
        "label": "pendingOwner",
        "offset": 0,
        "slot": "1",
        "type": "t_address"
      },
      {
        "astId": 81,
        "contract": "contracts/aggregators/CustomFluxAggregator.sol:CustomFluxAggregator",
        "label": "linkToken",
        "offset": 0,
        "slot": "2",
        "type": "t_contract(LinkTokenInterface)4270"
      },
      {
        "astId": 83,
        "contract": "contracts/aggregators/CustomFluxAggregator.sol:CustomFluxAggregator",
        "label": "validator",
        "offset": 0,
        "slot": "3",
        "type": "t_contract(AggregatorValidatorInterface)4175"
      },
      {
        "astId": 85,
        "contract": "contracts/aggregators/CustomFluxAggregator.sol:CustomFluxAggregator",
        "label": "paymentAmount",
        "offset": 0,
        "slot": "4",
        "type": "t_uint128"
      },
      {
        "astId": 87,
        "contract": "contracts/aggregators/CustomFluxAggregator.sol:CustomFluxAggregator",
        "label": "maxSubmissionCount",
        "offset": 16,
        "slot": "4",
        "type": "t_uint32"
      },
      {
        "astId": 89,
        "contract": "contracts/aggregators/CustomFluxAggregator.sol:CustomFluxAggregator",
        "label": "minSubmissionCount",
        "offset": 20,
        "slot": "4",
        "type": "t_uint32"
      },
      {
        "astId": 91,
        "contract": "contracts/aggregators/CustomFluxAggregator.sol:CustomFluxAggregator",
        "label": "restartDelay",
        "offset": 24,
        "slot": "4",
        "type": "t_uint32"
      },
      {
        "astId": 93,
        "contract": "contracts/aggregators/CustomFluxAggregator.sol:CustomFluxAggregator",
        "label": "timeout",
        "offset": 28,
        "slot": "4",
        "type": "t_uint32"
      },
      {
        "astId": 96,
        "contract": "contracts/aggregators/CustomFluxAggregator.sol:CustomFluxAggregator",
        "label": "decimals",
        "offset": 0,
        "slot": "5",
        "type": "t_uint8"
      },
      {
        "astId": 99,
        "contract": "contracts/aggregators/CustomFluxAggregator.sol:CustomFluxAggregator",
        "label": "description",
        "offset": 0,
        "slot": "6",
        "type": "t_string_storage"
      },
      {
        "astId": 128,
        "contract": "contracts/aggregators/CustomFluxAggregator.sol:CustomFluxAggregator",
        "label": "reportingRoundId",
        "offset": 0,
        "slot": "7",
        "type": "t_uint32"
      },
      {
        "astId": 130,
        "contract": "contracts/aggregators/CustomFluxAggregator.sol:CustomFluxAggregator",
        "label": "latestRoundId",
        "offset": 4,
        "slot": "7",
        "type": "t_uint32"
      },
      {
        "astId": 134,
        "contract": "contracts/aggregators/CustomFluxAggregator.sol:CustomFluxAggregator",
        "label": "oracles",
        "offset": 0,
        "slot": "8",
        "type": "t_mapping(t_address,t_struct(OracleStatus)67_storage)"
      },
      {
        "astId": 138,
        "contract": "contracts/aggregators/CustomFluxAggregator.sol:CustomFluxAggregator",
        "label": "rounds",
        "offset": 0,
        "slot": "9",
        "type": "t_mapping(t_uint32,t_struct(Round)36_storage)"
      },
      {
        "astId": 142,
        "contract": "contracts/aggregators/CustomFluxAggregator.sol:CustomFluxAggregator",
        "label": "details",
        "offset": 0,
        "slot": "10",
        "type": "t_mapping(t_uint32,t_struct(RoundDetails)48_storage)"
      },
      {
        "astId": 146,
        "contract": "contracts/aggregators/CustomFluxAggregator.sol:CustomFluxAggregator",
        "label": "requesters",
        "offset": 0,
        "slot": "11",
        "type": "t_mapping(t_address,t_struct(Requester)74_storage)"
      },
      {
        "astId": 149,
        "contract": "contracts/aggregators/CustomFluxAggregator.sol:CustomFluxAggregator",
        "label": "oracleAddresses",
        "offset": 0,
        "slot": "12",
        "type": "t_array(t_address)dyn_storage"
      },
      {
        "astId": 151,
        "contract": "contracts/aggregators/CustomFluxAggregator.sol:CustomFluxAggregator",
        "label": "recordedFunds",
        "offset": 0,
        "slot": "13",
        "type": "t_struct(Funds)79_storage"
      }
    ],
    "types": {
      "t_address": {
        "encoding": "inplace",
        "label": "address",
        "numberOfBytes": "20"
      },
      "t_array(t_address)dyn_storage": {
        "base": "t_address",
        "encoding": "dynamic_array",
        "label": "address[]",
        "numberOfBytes": "32"
      },
      "t_array(t_int256)dyn_storage": {
        "base": "t_int256",
        "encoding": "dynamic_array",
        "label": "int256[]",
        "numberOfBytes": "32"
      },
      "t_bool": {
        "encoding": "inplace",
        "label": "bool",
        "numberOfBytes": "1"
      },
      "t_contract(AggregatorValidatorInterface)4175": {
        "encoding": "inplace",
        "label": "contract AggregatorValidatorInterface",
        "numberOfBytes": "20"
      },
      "t_contract(LinkTokenInterface)4270": {
        "encoding": "inplace",
        "label": "contract LinkTokenInterface",
        "numberOfBytes": "20"
      },
      "t_int256": {
        "encoding": "inplace",
        "label": "int256",
        "numberOfBytes": "32"
      },
      "t_mapping(t_address,t_struct(OracleStatus)67_storage)": {
        "encoding": "mapping",
        "key": "t_address",
        "label": "mapping(address => struct FluxAggregator.OracleStatus)",
        "numberOfBytes": "32",
        "value": "t_struct(OracleStatus)67_storage"
      },
      "t_mapping(t_address,t_struct(Requester)74_storage)": {
        "encoding": "mapping",
        "key": "t_address",
        "label": "mapping(address => struct FluxAggregator.Requester)",
        "numberOfBytes": "32",
        "value": "t_struct(Requester)74_storage"
      },
      "t_mapping(t_uint32,t_struct(Round)36_storage)": {
        "encoding": "mapping",
        "key": "t_uint32",
        "label": "mapping(uint32 => struct FluxAggregator.Round)",
        "numberOfBytes": "32",
        "value": "t_struct(Round)36_storage"
      },
      "t_mapping(t_uint32,t_struct(RoundDetails)48_storage)": {
        "encoding": "mapping",
        "key": "t_uint32",
        "label": "mapping(uint32 => struct FluxAggregator.RoundDetails)",
        "numberOfBytes": "32",
        "value": "t_struct(RoundDetails)48_storage"
      },
      "t_string_storage": {
        "encoding": "bytes",
        "label": "string",
        "numberOfBytes": "32"
      },
      "t_struct(Funds)79_storage": {
        "encoding": "inplace",
        "label": "struct FluxAggregator.Funds",
        "members": [
          {
            "astId": 76,
            "contract": "contracts/aggregators/CustomFluxAggregator.sol:CustomFluxAggregator",
            "label": "available",
            "offset": 0,
            "slot": "0",
            "type": "t_uint128"
          },
          {
            "astId": 78,
            "contract": "contracts/aggregators/CustomFluxAggregator.sol:CustomFluxAggregator",
            "label": "allocated",
            "offset": 16,
            "slot": "0",
            "type": "t_uint128"
          }
        ],
        "numberOfBytes": "32"
      },
      "t_struct(OracleStatus)67_storage": {
        "encoding": "inplace",
        "label": "struct FluxAggregator.OracleStatus",
        "members": [
          {
            "astId": 50,
            "contract": "contracts/aggregators/CustomFluxAggregator.sol:CustomFluxAggregator",
            "label": "withdrawable",
            "offset": 0,
            "slot": "0",
            "type": "t_uint128"
          },
          {
            "astId": 52,
            "contract": "contracts/aggregators/CustomFluxAggregator.sol:CustomFluxAggregator",
            "label": "startingRound",
            "offset": 16,
            "slot": "0",
            "type": "t_uint32"
          },
          {
            "astId": 54,
            "contract": "contracts/aggregators/CustomFluxAggregator.sol:CustomFluxAggregator",
            "label": "endingRound",
            "offset": 20,
            "slot": "0",
            "type": "t_uint32"
          },
          {
            "astId": 56,
            "contract": "contracts/aggregators/CustomFluxAggregator.sol:CustomFluxAggregator",
            "label": "lastReportedRound",
            "offset": 24,
            "slot": "0",
            "type": "t_uint32"
          },
          {
            "astId": 58,
            "contract": "contracts/aggregators/CustomFluxAggregator.sol:CustomFluxAggregator",
            "label": "lastStartedRound",
            "offset": 28,
            "slot": "0",
            "type": "t_uint32"
          },
          {
            "astId": 60,
            "contract": "contracts/aggregators/CustomFluxAggregator.sol:CustomFluxAggregator",
            "label": "latestSubmission",
            "offset": 0,
            "slot": "1",
            "type": "t_int256"
          },
          {
            "astId": 62,
            "contract": "contracts/aggregators/CustomFluxAggregator.sol:CustomFluxAggregator",
            "label": "index",
            "offset": 0,
            "slot": "2",
            "type": "t_uint16"
          },
          {
            "astId": 64,
            "contract": "contracts/aggregators/CustomFluxAggregator.sol:CustomFluxAggregator",
            "label": "admin",
            "offset": 2,
            "slot": "2",
            "type": "t_address"
          },
          {
            "astId": 66,
            "contract": "contracts/aggregators/CustomFluxAggregator.sol:CustomFluxAggregator",
            "label": "pendingAdmin",
            "offset": 0,
            "slot": "3",
            "type": "t_address"
          }
        ],
        "numberOfBytes": "128"
      },
      "t_struct(Requester)74_storage": {
        "encoding": "inplace",
        "label": "struct FluxAggregator.Requester",
        "members": [
          {
            "astId": 69,
            "contract": "contracts/aggregators/CustomFluxAggregator.sol:CustomFluxAggregator",
            "label": "authorized",
            "offset": 0,
            "slot": "0",
            "type": "t_bool"
          },
          {
            "astId": 71,
            "contract": "contracts/aggregators/CustomFluxAggregator.sol:CustomFluxAggregator",
            "label": "delay",
            "offset": 1,
            "slot": "0",
            "type": "t_uint32"
          },
          {
            "astId": 73,
            "contract": "contracts/aggregators/CustomFluxAggregator.sol:CustomFluxAggregator",
            "label": "lastStartedRound",
            "offset": 5,
            "slot": "0",
            "type": "t_uint32"
          }
        ],
        "numberOfBytes": "32"
      },
      "t_struct(Round)36_storage": {
        "encoding": "inplace",
        "label": "struct FluxAggregator.Round",
        "members": [
          {
            "astId": 29,
            "contract": "contracts/aggregators/CustomFluxAggregator.sol:CustomFluxAggregator",
            "label": "answer",
            "offset": 0,
            "slot": "0",
            "type": "t_int256"
          },
          {
            "astId": 31,
            "contract": "contracts/aggregators/CustomFluxAggregator.sol:CustomFluxAggregator",
            "label": "startedAt",
            "offset": 0,
            "slot": "1",
            "type": "t_uint64"
          },
          {
            "astId": 33,
            "contract": "contracts/aggregators/CustomFluxAggregator.sol:CustomFluxAggregator",
            "label": "updatedAt",
            "offset": 8,
            "slot": "1",
            "type": "t_uint64"
          },
          {
            "astId": 35,
            "contract": "contracts/aggregators/CustomFluxAggregator.sol:CustomFluxAggregator",
            "label": "answeredInRound",
            "offset": 16,
            "slot": "1",
            "type": "t_uint32"
          }
        ],
        "numberOfBytes": "64"
      },
      "t_struct(RoundDetails)48_storage": {
        "encoding": "inplace",
        "label": "struct FluxAggregator.RoundDetails",
        "members": [
          {
            "astId": 39,
            "contract": "contracts/aggregators/CustomFluxAggregator.sol:CustomFluxAggregator",
            "label": "submissions",
            "offset": 0,
            "slot": "0",
            "type": "t_array(t_int256)dyn_storage"
          },
          {
            "astId": 41,
            "contract": "contracts/aggregators/CustomFluxAggregator.sol:CustomFluxAggregator",
            "label": "maxSubmissions",
            "offset": 0,
            "slot": "1",
            "type": "t_uint32"
          },
          {
            "astId": 43,
            "contract": "contracts/aggregators/CustomFluxAggregator.sol:CustomFluxAggregator",
            "label": "minSubmissions",
            "offset": 4,
            "slot": "1",
            "type": "t_uint32"
          },
          {
            "astId": 45,
            "contract": "contracts/aggregators/CustomFluxAggregator.sol:CustomFluxAggregator",
            "label": "timeout",
            "offset": 8,
            "slot": "1",
            "type": "t_uint32"
          },
          {
            "astId": 47,
            "contract": "contracts/aggregators/CustomFluxAggregator.sol:CustomFluxAggregator",
            "label": "paymentAmount",
            "offset": 12,
            "slot": "1",
            "type": "t_uint128"
          }
        ],
        "numberOfBytes": "64"
      },
      "t_uint128": {
        "encoding": "inplace",
        "label": "uint128",
        "numberOfBytes": "16"
      },
      "t_uint16": {
        "encoding": "inplace",
        "label": "uint16",
        "numberOfBytes": "2"
      },
      "t_uint32": {
        "encoding": "inplace",
        "label": "uint32",
        "numberOfBytes": "4"
      },
      "t_uint64": {
        "encoding": "inplace",
        "label": "uint64",
        "numberOfBytes": "8"
      },
      "t_uint8": {
        "encoding": "inplace",
        "label": "uint8",
        "numberOfBytes": "1"
      }
    }
  }
}