{
  "address": "0x8DD4e339140CBd8a2C67c310413e78660F3008FC",
  "abi": [
    {
      "anonymous": false,
      "inputs": [
        {
          "indexed": false,
          "internalType": "address",
          "name": "amm",
          "type": "address"
        }
      ],
      "name": "AmmAdded",
      "type": "event"
    },
    {
      "anonymous": false,
      "inputs": [
        {
          "indexed": false,
          "internalType": "address",
          "name": "amm",
          "type": "address"
        }
      ],
      "name": "AmmRemoved",
      "type": "event"
    },
    {
      "anonymous": false,
      "inputs": [
        {
          "indexed": false,
          "internalType": "uint8",
          "name": "version",
          "type": "uint8"
        }
      ],
      "name": "Initialized",
      "type": "event"
    },
    {
      "anonymous": false,
      "inputs": [
        {
          "indexed": true,
          "internalType": "address",
          "name": "previousOwner",
          "type": "address"
        },
        {
          "indexed": true,
          "internalType": "address",
          "name": "newOwner",
          "type": "address"
        }
      ],
      "name": "OwnershipTransferred",
      "type": "event"
    },
    {
      "anonymous": false,
      "inputs": [
        {
          "indexed": false,
          "internalType": "uint256",
          "name": "blockNumber",
          "type": "uint256"
        }
      ],
      "name": "ShutdownAllAmms",
      "type": "event"
    },
    {
      "anonymous": false,
      "inputs": [
        {
          "indexed": false,
          "internalType": "address",
          "name": "tokenAddress",
          "type": "address"
        }
      ],
      "name": "TokenAdded",
      "type": "event"
    },
    {
      "anonymous": false,
      "inputs": [
        {
          "indexed": false,
          "internalType": "address",
          "name": "tokenAddress",
          "type": "address"
        }
      ],
      "name": "TokenRemoved",
      "type": "event"
    },
    {
      "anonymous": false,
      "inputs": [
        {
          "indexed": false,
          "internalType": "address",
          "name": "withdrawer",
          "type": "address"
        },
        {
          "indexed": false,
          "internalType": "uint256",
          "name": "amount",
          "type": "uint256"
        }
      ],
      "name": "Withdrawn",
      "type": "event"
    },
    {
      "inputs": [
        {
          "internalType": "contract IAmm",
          "name": "_amm",
          "type": "address"
        }
      ],
      "name": "addAmm",
      "outputs": [],
      "stateMutability": "nonpayable",
      "type": "function"
    },
    {
      "inputs": [],
      "name": "exchange",
      "outputs": [
        {
          "internalType": "contract IExchangeWrapper",
          "name": "",
          "type": "address"
        }
      ],
      "stateMutability": "view",
      "type": "function"
    },
    {
      "inputs": [],
      "name": "getAllAmms",
      "outputs": [
        {
          "internalType": "contract IAmm[]",
          "name": "",
          "type": "address[]"
        }
      ],
      "stateMutability": "view",
      "type": "function"
    },
    {
      "inputs": [],
      "name": "getQuoteTokenLength",
      "outputs": [
        {
          "internalType": "uint256",
          "name": "",
          "type": "uint256"
        }
      ],
      "stateMutability": "view",
      "type": "function"
    },
    {
      "inputs": [],
      "name": "inflationMonitor",
      "outputs": [
        {
          "internalType": "contract IInflationMonitor",
          "name": "",
          "type": "address"
        }
      ],
      "stateMutability": "view",
      "type": "function"
    },
    {
      "inputs": [],
      "name": "initialize",
      "outputs": [],
      "stateMutability": "nonpayable",
      "type": "function"
    },
    {
      "inputs": [
        {
          "internalType": "contract IAmm",
          "name": "_amm",
          "type": "address"
        }
      ],
      "name": "isExistedAmm",
      "outputs": [
        {
          "internalType": "bool",
          "name": "",
          "type": "bool"
        }
      ],
      "stateMutability": "view",
      "type": "function"
    },
    {
      "inputs": [],
      "name": "minter",
      "outputs": [
        {
          "internalType": "contract IMinter",
          "name": "",
          "type": "address"
        }
      ],
      "stateMutability": "view",
      "type": "function"
    },
    {
      "inputs": [],
      "name": "owner",
      "outputs": [
        {
          "internalType": "address",
          "name": "",
          "type": "address"
        }
      ],
      "stateMutability": "view",
      "type": "function"
    },
    {
      "inputs": [],
      "name": "perpToken",
      "outputs": [
        {
          "internalType": "contract IERC20",
          "name": "",
          "type": "address"
        }
      ],
      "stateMutability": "view",
      "type": "function"
    },
    {
      "inputs": [
        {
          "internalType": "uint256",
          "name": "",
          "type": "uint256"
        }
      ],
      "name": "quoteTokens",
      "outputs": [
        {
          "internalType": "contract IERC20",
          "name": "",
          "type": "address"
        }
      ],
      "stateMutability": "view",
      "type": "function"
    },
    {
      "inputs": [
        {
          "internalType": "contract IAmm",
          "name": "_amm",
          "type": "address"
        }
      ],
      "name": "removeAmm",
      "outputs": [],
      "stateMutability": "nonpayable",
      "type": "function"
    },
    {
      "inputs": [
        {
          "internalType": "contract IERC20",
          "name": "_token",
          "type": "address"
        }
      ],
      "name": "removeToken",
      "outputs": [],
      "stateMutability": "nonpayable",
      "type": "function"
    },
    {
      "inputs": [],
      "name": "renounceOwnership",
      "outputs": [],
      "stateMutability": "nonpayable",
      "type": "function"
    },
    {
      "inputs": [
        {
          "internalType": "address",
          "name": "_beneficiary",
          "type": "address"
        }
      ],
      "name": "setBeneficiary",
      "outputs": [],
      "stateMutability": "nonpayable",
      "type": "function"
    },
    {
      "inputs": [
        {
          "internalType": "contract IExchangeWrapper",
          "name": "_exchange",
          "type": "address"
        }
      ],
      "name": "setExchange",
      "outputs": [],
      "stateMutability": "nonpayable",
      "type": "function"
    },
    {
      "inputs": [
        {
          "internalType": "contract IInflationMonitor",
          "name": "_inflationMonitor",
          "type": "address"
        }
      ],
      "name": "setInflationMonitor",
      "outputs": [],
      "stateMutability": "nonpayable",
      "type": "function"
    },
    {
      "inputs": [
        {
          "internalType": "contract IMinter",
          "name": "_minter",
          "type": "address"
        }
      ],
      "name": "setMinter",
      "outputs": [],
      "stateMutability": "nonpayable",
      "type": "function"
    },
    {
      "inputs": [
        {
          "internalType": "address",
          "name": "newOwner",
          "type": "address"
        }
      ],
      "name": "transferOwnership",
      "outputs": [],
      "stateMutability": "nonpayable",
      "type": "function"
    },
    {
      "inputs": [
        {
          "internalType": "contract IERC20",
          "name": "_quoteToken",
          "type": "address"
        },
        {
          "components": [
            {
              "internalType": "uint256",
              "name": "d",
              "type": "uint256"
            }
          ],
          "internalType": "struct Decimal.decimal",
          "name": "_amount",
          "type": "tuple"
        }
      ],
      "name": "withdraw",
      "outputs": [],
      "stateMutability": "nonpayable",
      "type": "function"
    }
  ],
  "transactionHash": "0xd7fae8de5b4b043457f1f697df6b60917c93dcbbfa6de161bff468c7db33a4ad",
  "args": [],
  "numDeployments": 1,
  "solcInputHash": "ac2826b142e515be3df06490dfecc761",
  "bytecode": "0x608060405234801561001057600080fd5b50612360806100206000396000f3fe608060405234801561001057600080fd5b506004361061012c5760003560e01c80639cadb3a0116100ad578063cf23097911610071578063cf2309791461027e578063d2f7265a14610291578063d926de1c146102a4578063f2fde38b146102b7578063fca3b5aa146102ca57600080fd5b80639cadb3a01461021f578063b7538c6214610232578063beb0597a14610247578063c68ade3714610258578063ca58b1981461026b57600080fd5b80635fa7b584116100f45780635fa7b584146101d857806367b1f5df146101eb578063715018a6146101fe5780638129fc1c146102065780638da5cb5b1461020e57600080fd5b806307546172146101315780630774a784146101615780631c31f7101461019d578063252978b8146101b25780632c9115c7146101c5575b600080fd5b60d054610144906001600160a01b031681565b6040516001600160a01b0390911681526020015b60405180910390f35b61018d61016f366004611efe565b6001600160a01b0316600090815260ca602052604090205460ff1690565b6040519015158152602001610158565b6101b06101ab366004611efe565b6102dd565b005b6101b06101c0366004611f1b565b610307565b6101446101d3366004611f5c565b6104f5565b6101b06101e6366004611efe565b61051f565b6101b06101f9366004611efe565b61076f565b6101b0610799565b6101b06107ad565b6033546001600160a01b0316610144565b60cf54610144906001600160a01b031681565b61023a6108c6565b6040516101589190611f75565b60cd54604051908152602001610158565b6101b0610266366004611efe565b610928565b60d154610144906001600160a01b031681565b6101b061028c366004611efe565b610952565b60ce54610144906001600160a01b031681565b6101b06102b2366004611efe565b610b15565b6101b06102c5366004611efe565b610d37565b6101b06102d8366004611efe565b610dad565b6102e5610e55565b60d280546001600160a01b0319166001600160a01b0392909216919091179055565b60d2546001600160a01b031633146103665760405162461bcd60e51b815260206004820152601960248201527f63616c6c6572206973206e6f742062656e65666963696172790000000000000060448201526064015b60405180910390fd5b6001600160a01b038216600090815260cb602052604090205460ff166103c75760405162461bcd60e51b8152602060048201526016602482015275105cdcd95d081a5cc81b9bdd081cdd5c1c1bdc9d195960521b604482015260640161035d565b60006103d283610eaf565b90506103dc815190565b6103f26103ee3685900385018561200f565b5190565b111561042c5760006104138261040d3686900386018661200f565b90610ece565b905061041f8482610f02565b61042884610eaf565b9150505b61043e6103ee3684900384018461200f565b815110156104805760405162461bcd60e51b815260206004820152600f60248201526e08ceadcc840dcdee840cadcdeeaced608b1b604482015260640161035d565b61049983336104943686900386018661200f565b6111b2565b7f7084f5476618d8e60b11ef0d7d3f06914655adb8793e28ff7f018d4c76d505d5336104cd6103ee3686900386018661200f565b604080516001600160a01b0390931683526020830191909152015b60405180910390a1505050565b60cd818154811061050557600080fd5b6000918252602090912001546001600160a01b0316905081565b610527610e55565b6001600160a01b038116600090815260cb602052604090205460ff166105835760405162461bcd60e51b81526020600482015260116024820152701d1bdad95b881b9bdd08195e1a5cdd1959607a1b604482015260640161035d565b6001600160a01b038116600090815260cb60205260408120805460ff1916905560cd54905b818110156106bb57826001600160a01b031660cd82815481106105cd576105cd612033565b6000918252602090912001546001600160a01b0316036106a9576105f260018361205f565b8110156106715760cd61060660018461205f565b8154811061061657610616612033565b60009182526020909120015460cd80546001600160a01b03909216918390811061064257610642612033565b9060005260206000200160006101000a8154816001600160a01b0302191690836001600160a01b031602179055505b60cd80548061068257610682612076565b600082815260209020810160001990810180546001600160a01b03191690550190556106bb565b806106b38161208c565b9150506105a8565b5060006106ca6103ee84610eaf565b111561072e5760006106da611296565b90506001600160a01b0381166106f8575060cf546001600160a01b03165b61072b838261070686610eaf565b604080516020808201835260009182905282519081019092528152611403565b611403565b50505b6040516001600160a01b03831681527f4c910b69fe65a61f7531b9c5042b2329ca7179c77290aa7e2eb3afa3c8511fd3906020015b60405180910390a15050565b610777610e55565b60ce80546001600160a01b0319166001600160a01b0392909216919091179055565b6107a1610e55565b6107ab6000611567565b565b600054610100900460ff16158080156107cd5750600054600160ff909116105b806107e75750303b1580156107e7575060005460ff166001145b61084a5760405162461bcd60e51b815260206004820152602e60248201527f496e697469616c697a61626c653a20636f6e747261637420697320616c72656160448201526d191e481a5b9a5d1a585b1a5e995960921b606482015260840161035d565b6000805460ff19166001179055801561086d576000805461ff0019166101001790555b6108756115b9565b61087d6115e8565b80156108c3576000805461ff0019169055604051600181527f7f26b83ff96e1f2b6a682f133852f6798a09c465da95921460cefb38474024989060200160405180910390a15b50565b606060cc80548060200260200160405190810160405280929190818152602001828054801561091e57602002820191906000526020600020905b81546001600160a01b03168152600190910190602001808311610900575b5050505050905090565b610930610e55565b60d180546001600160a01b0319166001600160a01b0392909216919091179055565b61095a610e55565b6001600160a01b038116600090815260ca602052604090205460ff166109b45760405162461bcd60e51b815260206004820152600f60248201526e185b5b481b9bdd08195e1a5cdd1959608a1b604482015260640161035d565b6001600160a01b038116600090815260ca60205260408120805460ff1916905560cc54905b81811015610b1057826001600160a01b031660cc82815481106109fe576109fe612033565b6000918252602090912001546001600160a01b031603610afe5760cc610a2560018461205f565b81548110610a3557610a35612033565b60009182526020909120015460cc80546001600160a01b039092169183908110610a6157610a61612033565b9060005260206000200160006101000a8154816001600160a01b0302191690836001600160a01b0316021790555060cc805480610aa057610aa0612076565b6000828152602090819020600019908301810180546001600160a01b03191690559091019091556040516001600160a01b03851681527fdaad2af263ebb3abf337a324f20752addc3bf170971ce7b80cc3bfea1fcf30ee91016104e8565b80610b088161208c565b9150506109d9565b505050565b610b1d610e55565b6001600160a01b038116600090815260ca602052604090205460ff1615610b7a5760405162461bcd60e51b8152602060048201526011602482015270185b5b48185b1c9958591e481859191959607a1b604482015260640161035d565b6001600160a01b038116600081815260ca60209081526040808320805460ff1916600190811790915560cc805491820181559093527f47197230e1e4b29fc0bd84d7d78966c0925452aff72a2a121538b102457e9ebe90920180546001600160a01b0319168417905590519182527f10cdbb821aa416c854add806e1d7e8138afe2a538921cebe99b1351362ae38b2910160405180910390a16000816001600160a01b031663fdf262b76040518163ffffffff1660e01b8152600401602060405180830381865afa158015610c53573d6000803e3d6000fd5b505050506040513d601f19601f82011682018060405250810190610c7791906120a5565b9050610c9b816001600160a01b0316600090815260cb602052604090205460ff1690565b610d335760cd805460018082019092557f83978b4c69c48dd978ab43fe30f077615294f938fb7f936d9eb340e51ea7db2e0180546001600160a01b0319166001600160a01b038416908117909155600081815260cb6020908152604091829020805460ff1916909417909355519081527f784c8f4dbf0ffedd6e72c76501c545a70f8b203b30a26ce542bf92ba87c248a49101610763565b5050565b610d3f610e55565b6001600160a01b038116610da45760405162461bcd60e51b815260206004820152602660248201527f4f776e61626c653a206e6577206f776e657220697320746865207a65726f206160448201526564647265737360d01b606482015260840161035d565b6108c381611567565b610db5610e55565b60d080546001600160a01b0319166001600160a01b0383169081179091556040805163eb7c8c2560e01b8152905163eb7c8c25916004808201926020929091908290030181865afa158015610e0e573d6000803e3d6000fd5b505050506040513d601f19601f82011682018060405250810190610e3291906120a5565b60cf80546001600160a01b0319166001600160a01b039290921691909117905550565b6033546001600160a01b031633146107ab5760405162461bcd60e51b815260206004820181905260248201527f4f776e61626c653a2063616c6c6572206973206e6f7420746865206f776e6572604482015260640161035d565b604080516020810190915260008152610ec88230611617565b92915050565b60408051602081019091526000815260408051602081019091526000815282518451610ef9916116a0565b81529392505050565b6000610f0d836116ac565b905060005b815181101561108a5760408051602081019091526000815260ce5483516000916001600160a01b03169063c643ea6390869086908110610f5457610f54612033565b602002602001015188886040518463ffffffff1660e01b8152600401610f7c939291906120c2565b602060405180830381865afa158015610f99573d6000803e3d6000fd5b505050506040513d601f19601f82011682018060405250810190610fbd91906120e5565b9050610fe46103ee858581518110610fd757610fd7612033565b6020026020010151610eaf565b8151116110345761102b84848151811061100057611000612033565b6020026020010151878361072660408051602080820183526000918290528251908101909252815290565b50505050505050565b61106784848151811061104957611049612033565b602002602001015187610706878781518110610fd757610fd7612033565b91506110738583610ece565b9450505080806110829061208c565b915050610f12565b506000611095835190565b1115610b105760ce5460cf5460405163c643ea6360e01b81526000926001600160a01b039081169263c643ea63926110d79290911690889088906004016120c2565b602060405180830381865afa1580156110f4573d6000803e3d6000fd5b505050506040513d601f19601f8201168201806040525081019061111891906120e5565b60d05460405163b90ffc4160e01b8152825160048201529192506001600160a01b03169063b90ffc4190602401600060405180830381600087803b15801561115f57600080fd5b505af1158015611173573d6000803e3d6000fd5b505060cf546111ab92506001600160a01b03169050858361072660408051602080820183526000918290528251908101909252815290565b5050505050565b6111bb83611a57565b60006111c78484611617565b905060006111d58584611aa1565b60405163a9059cbb60e01b81526001600160a01b038681166004830152602482018390529192509086169063a9059cbb906044016020604051808303816000875af1158015611228573d6000803e3d6000fd5b505050506040513d601f19601f8201168201806040525081019061124c9190612109565b61128a5760405162461bcd60e51b815260206004820152600f60248201526e1d1c985b9cd9995c8819985a5b1959608a1b604482015260640161035d565b6111ab85858385611b03565b60cd546000908082036112ab57600091505090565b806001036112e25760cd6000815481106112c7576112c7612033565b6000918252602090912001546001600160a01b031692915050565b600060cd6000815481106112f8576112f8612033565b60009182526020822001546001600160a01b03169150819061131982610eaf565b905060015b848110156113f957600060cd828154811061133b5761133b612033565b600091825260208220015460ce546001600160a01b0391821693501663c1094e5b838861136782610eaf565b6040518463ffffffff1660e01b8152600401611385939291906120c2565b602060405180830381865afa1580156113a2573d6000803e3d6000fd5b505050506040513d601f19601f820116820180604052508101906113c691906120e5565b905060006113d48286611b77565b60000b13156113e4578194508093505b505080806113f19061208c565b91505061131e565b5090949350505050565b604080516020810190915260008152825160000361143c575060408051602080820183526000918290528251908101909252815261155f565b60ce546114549086906001600160a01b031685611ba8565b60ce546001600160a01b031663e5e75d1e8686868661148a60408051602080820183526000918290528251908101909252815290565b6040516001600160e01b031960e088901b1681526001600160a01b0395861660048201529490931660248501529051604484015251606483015251608482015260a4016020604051808303816000875af11580156114ec573d6000803e3d6000fd5b505050506040513d601f19601f8201168201806040525081019061151091906120e5565b9050600061151c825190565b1161155f5760405162461bcd60e51b815260206004820152601360248201527222bc31b430b733b29039bbb0b81032b93937b960691b604482015260640161035d565b949350505050565b603380546001600160a01b038381166001600160a01b0319831681179093556040519116919082907f8be0079c531659141344cd1fd0a4f28419497f9722a3daafe3b4186f6b6457e090600090a35050565b600054610100900460ff166115e05760405162461bcd60e51b815260040161035d9061212b565b6107ab611be7565b600054610100900460ff1661160f5760405162461bcd60e51b815260040161035d9061212b565b6107ab611c17565b604080516020810182526000815290516370a0823160e01b81526001600160a01b0383811660048301526116999185918216906370a0823190602401602060405180830381865afa158015611670573d6000803e3d6000fd5b505050506040513d601f19601f820116820180604052508101906116949190612176565b611c45565b9392505050565b6000611699828461205f565b6060600060cd80548060200260200160405190810160405280929190818152602001828054801561170657602002820191906000526020600020905b81546001600160a01b031681526001909101906020018083116116e8575b5050505050905060005b60cd5481101561195857600060cd828154811061172f5761172f612033565b600091825260208220015460ce5460cf546001600160a01b0392831694509082169163c1094e5b9185911661176382610eaf565b6040518463ffffffff1660e01b8152600401611781939291906120c2565b602060405180830381865afa15801561179e573d6000803e3d6000fd5b505050506040513d601f19601f820116820180604052508101906117c291906120e5565b9050825b80156119425760ce546000906001600160a01b031663c1094e5b876117ec60018661205f565b815181106117fc576117fc612033565b602090810291909101015160cf546001600160a01b03166118328a61182260018961205f565b81518110610fd757610fd7612033565b6040518463ffffffff1660e01b8152600401611850939291906120c2565b602060405180830381865afa15801561186d573d6000803e3d6000fd5b505050506040513d601f19601f8201168201806040525081019061189191906120e5565b905061189b815190565b8351111561192f57856118af60018461205f565b815181106118bf576118bf612033565b60200260200101518683815181106118d9576118d9612033565b6001600160a01b039092166020928302919091019091015283866118fe60018561205f565b8151811061190e5761190e612033565b60200260200101906001600160a01b031690816001600160a01b0316815250505b508061193a8161218f565b9150506117c6565b50505080806119509061208c565b915050611710565b5060018151611967919061205f565b67ffffffffffffffff81111561197f5761197f611fc2565b6040519080825280602002602001820160405280156119a8578160200160208202803683370190505b5091506000805b8251811015611a4f57846001600160a01b03168382815181106119d4576119d4612033565b60200260200101516001600160a01b03160315611a3d578281815181106119fd576119fd612033565b6020026020010151848381518110611a1757611a17612033565b6001600160a01b039092166020928302919091019091015281611a398161208c565b9250505b80611a478161208c565b9150506119af565b505050919050565b6000611a6282611cd8565b6001600160a01b0383166000908152609760205260409020549091508114610d33576001600160a01b0391909116600090815260976020526040902055565b600080611aad84611cd8565b905060128110611ae157611ac260128261205f565b611acd90600a61228a565b8351611ad99190612296565b915050610ec8565b611aec81601261205f565b611af790600a61228a565b835161155f91906122b5565b611b2a611b1a611b138685611c45565b8390611dec565b611b248686611617565b90611b77565b60000b15611b715760405162461bcd60e51b815260206004820152601460248201527318985b185b98d9481a5b98dbdb9cda5cdd195b9d60621b604482015260640161035d565b50505050565b805182516000911015611b8c57506001610ec8565b815183511015611b9f5750600019610ec8565b50600092915050565b611bb183611a57565b611bdc8383611bd760408051602080820183526000918290528251908101909252815290565b611e17565b610b10838383611e17565b600054610100900460ff16611c0e5760405162461bcd60e51b815260040161035d9061212b565b6107ab33611567565b600054610100900460ff16611c3e5760405162461bcd60e51b815260040161035d9061212b565b6001606555565b6040805160208101909152600081526000611c5f84611cd8565b905060128110611ca1576040518060200160405280601283611c81919061205f565b611c8c90600a61228a565b611c9690866122b5565b815250915050610ec8565b6040518060200160405280826012611cb9919061205f565b611cc490600a61228a565b611cce9086612296565b9052949350505050565b6001600160a01b038116600090815260976020526040812054808203610ec85760408051600481526024810182526020810180516001600160e01b031663313ce56760e01b179052905160009182916001600160a01b03871691611d3b916122d7565b600060405180830381855afa9150503d8060008114611d76576040519150601f19603f3d011682016040523d82523d6000602084013e611d7b565b606091505b5091509150818015611d8d5750805115155b611dcf5760405162461bcd60e51b815260206004820152601360248201527219d95d08191958da5b585b1cc819985a5b1959606a1b604482015260640161035d565b80806020019051810190611de39190612176565b95945050505050565b60408051602081019091526000815260408051602081019091526000815282518451610ef991611edd565b826001600160a01b031663095ea7b383611e318685611aa1565b6040516001600160e01b031960e085901b1681526001600160a01b03909216600483015260248201526044016020604051808303816000875af1158015611e7c573d6000803e3d6000fd5b505050506040513d601f19601f82011682018060405250810190611ea09190612109565b610b105760405162461bcd60e51b815260206004820152600e60248201526d185c1c1c9bdd994819985a5b195960921b604482015260640161035d565b60006116998284612312565b6001600160a01b03811681146108c357600080fd5b600060208284031215611f1057600080fd5b813561169981611ee9565b6000808284036040811215611f2f57600080fd5b8335611f3a81611ee9565b92506020601f1982011215611f4e57600080fd5b506020830190509250929050565b600060208284031215611f6e57600080fd5b5035919050565b6020808252825182820181905260009190848201906040850190845b81811015611fb65783516001600160a01b031683529284019291840191600101611f91565b50909695505050505050565b634e487b7160e01b600052604160045260246000fd5b6040516020810167ffffffffffffffff8111828210171561200957634e487b7160e01b600052604160045260246000fd5b60405290565b60006020828403121561202157600080fd5b612029611fd8565b9135825250919050565b634e487b7160e01b600052603260045260246000fd5b634e487b7160e01b600052601160045260246000fd5b60008282101561207157612071612049565b500390565b634e487b7160e01b600052603160045260246000fd5b60006001820161209e5761209e612049565b5060010190565b6000602082840312156120b757600080fd5b815161169981611ee9565b6001600160a01b0393841681529190921660208201529051604082015260600190565b6000602082840312156120f757600080fd5b6120ff611fd8565b9151825250919050565b60006020828403121561211b57600080fd5b8151801515811461169957600080fd5b6020808252602b908201527f496e697469616c697a61626c653a20636f6e7472616374206973206e6f74206960408201526a6e697469616c697a696e6760a81b606082015260800190565b60006020828403121561218857600080fd5b5051919050565b60008161219e5761219e612049565b506000190190565b600181815b808511156121e15781600019048211156121c7576121c7612049565b808516156121d457918102915b93841c93908002906121ab565b509250929050565b6000826121f857506001610ec8565b8161220557506000610ec8565b816001811461221b576002811461222557612241565b6001915050610ec8565b60ff84111561223657612236612049565b50506001821b610ec8565b5060208310610133831016604e8410600b8410161715612264575081810a610ec8565b61226e83836121a6565b806000190482111561228257612282612049565b029392505050565b600061169983836121e9565b60008160001904831182151516156122b0576122b0612049565b500290565b6000826122d257634e487b7160e01b600052601260045260246000fd5b500490565b6000825160005b818110156122f857602081860181015185830152016122de565b81811115612307576000828501525b509190910192915050565b6000821982111561232557612325612049565b50019056fea2646970667358221220e161ea2088c7ee2de7fe047dc190d1c8b23beec35356ca5c2c500e0ad85a2bba64736f6c634300080d0033",
  "devdoc": {
    "kind": "dev",
    "methods": {
      "addAmm(address)": {
        "details": "only owner can call",
        "params": {
          "_amm": "IAmm address"
        }
      },
      "owner()": {
        "details": "Returns the address of the current owner."
      },
      "removeAmm(address)": {
        "details": "only owner can call. no need to call",
        "params": {
          "_amm": "IAmm address"
        }
      },
      "renounceOwnership()": {
        "details": "Leaves the contract without owner. It will not be possible to call `onlyOwner` functions anymore. Can only be called by the current owner. NOTE: Renouncing ownership will leave the contract without an owner, thereby removing any functionality that is only available to the owner."
      },
      "transferOwnership(address)": {
        "details": "Transfers ownership of the contract to a new account (`newOwner`). Can only be called by the current owner."
      },
      "withdraw(address,(uint256))": {
        "params": {
          "_amount": "the amount of quoteToken caller want to withdraw"
        }
      }
    },
    "version": 1
  },
  "userdoc": {
    "kind": "user",
    "methods": {
      "withdraw(address,(uint256))": {
        "notice": "withdraw token to caller"
      }
    },
    "version": 1
  },
  "storageLayout": {
    "storage": [
      {
        "astId": 138,
        "contract": "contracts/InsuranceFund.sol:InsuranceFund",
        "label": "_initialized",
        "offset": 0,
        "slot": "0",
        "type": "t_uint8"
      },
      {
        "astId": 141,
        "contract": "contracts/InsuranceFund.sol:InsuranceFund",
        "label": "_initializing",
        "offset": 1,
        "slot": "0",
        "type": "t_bool"
      },
      {
        "astId": 698,
        "contract": "contracts/InsuranceFund.sol:InsuranceFund",
        "label": "__gap",
        "offset": 0,
        "slot": "1",
        "type": "t_array(t_uint256)50_storage"
      },
      {
        "astId": 10,
        "contract": "contracts/InsuranceFund.sol:InsuranceFund",
        "label": "_owner",
        "offset": 0,
        "slot": "51",
        "type": "t_address"
      },
      {
        "astId": 130,
        "contract": "contracts/InsuranceFund.sol:InsuranceFund",
        "label": "__gap",
        "offset": 0,
        "slot": "52",
        "type": "t_array(t_uint256)49_storage"
      },
      {
        "astId": 314,
        "contract": "contracts/InsuranceFund.sol:InsuranceFund",
        "label": "_status",
        "offset": 0,
        "slot": "101",
        "type": "t_uint256"
      },
      {
        "astId": 372,
        "contract": "contracts/InsuranceFund.sol:InsuranceFund",
        "label": "__gap",
        "offset": 0,
        "slot": "102",
        "type": "t_array(t_uint256)49_storage"
      },
      {
        "astId": 2793,
        "contract": "contracts/InsuranceFund.sol:InsuranceFund",
        "label": "decimalMap",
        "offset": 0,
        "slot": "151",
        "type": "t_mapping(t_address,t_uint256)"
      },
      {
        "astId": 2797,
        "contract": "contracts/InsuranceFund.sol:InsuranceFund",
        "label": "__gap",
        "offset": 0,
        "slot": "152",
        "type": "t_array(t_uint256)50_storage"
      },
      {
        "astId": 842,
        "contract": "contracts/InsuranceFund.sol:InsuranceFund",
        "label": "ammMap",
        "offset": 0,
        "slot": "202",
        "type": "t_mapping(t_address,t_bool)"
      },
      {
        "astId": 846,
        "contract": "contracts/InsuranceFund.sol:InsuranceFund",
        "label": "quoteTokenMap",
        "offset": 0,
        "slot": "203",
        "type": "t_mapping(t_address,t_bool)"
      },
      {
        "astId": 850,
        "contract": "contracts/InsuranceFund.sol:InsuranceFund",
        "label": "amms",
        "offset": 0,
        "slot": "204",
        "type": "t_array(t_contract(IAmm)2253)dyn_storage"
      },
      {
        "astId": 854,
        "contract": "contracts/InsuranceFund.sol:InsuranceFund",
        "label": "quoteTokens",
        "offset": 0,
        "slot": "205",
        "type": "t_array(t_contract(IERC20)777)dyn_storage"
      },
      {
        "astId": 857,
        "contract": "contracts/InsuranceFund.sol:InsuranceFund",
        "label": "exchange",
        "offset": 0,
        "slot": "206",
        "type": "t_contract(IExchangeWrapper)2345"
      },
      {
        "astId": 860,
        "contract": "contracts/InsuranceFund.sol:InsuranceFund",
        "label": "perpToken",
        "offset": 0,
        "slot": "207",
        "type": "t_contract(IERC20)777"
      },
      {
        "astId": 863,
        "contract": "contracts/InsuranceFund.sol:InsuranceFund",
        "label": "minter",
        "offset": 0,
        "slot": "208",
        "type": "t_contract(IMinter)2418"
      },
      {
        "astId": 866,
        "contract": "contracts/InsuranceFund.sol:InsuranceFund",
        "label": "inflationMonitor",
        "offset": 0,
        "slot": "209",
        "type": "t_contract(IInflationMonitor)2362"
      },
      {
        "astId": 868,
        "contract": "contracts/InsuranceFund.sol:InsuranceFund",
        "label": "beneficiary",
        "offset": 0,
        "slot": "210",
        "type": "t_address"
      },
      {
        "astId": 872,
        "contract": "contracts/InsuranceFund.sol:InsuranceFund",
        "label": "__gap",
        "offset": 0,
        "slot": "211",
        "type": "t_array(t_uint256)50_storage"
      }
    ],
    "types": {
      "t_address": {
        "encoding": "inplace",
        "label": "address",
        "numberOfBytes": "20"
      },
      "t_array(t_contract(IAmm)2253)dyn_storage": {
        "base": "t_contract(IAmm)2253",
        "encoding": "dynamic_array",
        "label": "contract IAmm[]",
        "numberOfBytes": "32"
      },
      "t_array(t_contract(IERC20)777)dyn_storage": {
        "base": "t_contract(IERC20)777",
        "encoding": "dynamic_array",
        "label": "contract IERC20[]",
        "numberOfBytes": "32"
      },
      "t_array(t_uint256)49_storage": {
        "base": "t_uint256",
        "encoding": "inplace",
        "label": "uint256[49]",
        "numberOfBytes": "1568"
      },
      "t_array(t_uint256)50_storage": {
        "base": "t_uint256",
        "encoding": "inplace",
        "label": "uint256[50]",
        "numberOfBytes": "1600"
      },
      "t_bool": {
        "encoding": "inplace",
        "label": "bool",
        "numberOfBytes": "1"
      },
      "t_contract(IAmm)2253": {
        "encoding": "inplace",
        "label": "contract IAmm",
        "numberOfBytes": "20"
      },
      "t_contract(IERC20)777": {
        "encoding": "inplace",
        "label": "contract IERC20",
        "numberOfBytes": "20"
      },
      "t_contract(IExchangeWrapper)2345": {
        "encoding": "inplace",
        "label": "contract IExchangeWrapper",
        "numberOfBytes": "20"
      },
      "t_contract(IInflationMonitor)2362": {
        "encoding": "inplace",
        "label": "contract IInflationMonitor",
        "numberOfBytes": "20"
      },
      "t_contract(IMinter)2418": {
        "encoding": "inplace",
        "label": "contract IMinter",
        "numberOfBytes": "20"
      },
      "t_mapping(t_address,t_bool)": {
        "encoding": "mapping",
        "key": "t_address",
        "label": "mapping(address => bool)",
        "numberOfBytes": "32",
        "value": "t_bool"
      },
      "t_mapping(t_address,t_uint256)": {
        "encoding": "mapping",
        "key": "t_address",
        "label": "mapping(address => uint256)",
        "numberOfBytes": "32",
        "value": "t_uint256"
      },
      "t_uint256": {
        "encoding": "inplace",
        "label": "uint256",
        "numberOfBytes": "32"
      },
      "t_uint8": {
        "encoding": "inplace",
        "label": "uint8",
        "numberOfBytes": "1"
      }
    }
  }
}